:020000040000fa
:080000000001040000000000f3
:020000040000fa
:100200000f85200080792200000188000000000096
:10021000050007000c000700340a0200000000007f
:100220000040da000000fe004440a9000000200069
:100230000000e0000300320000002000a001880060
:100240004440a8000000060000f720000100200044
:100250001600370062004000e080480091018800ed
:100260009001ba0062004000e080480091018800df
:100270009002ba0062004000e08048000002eb00fb
:100280006028e10005003a008301e900070033001f
:10029000038009000059eb00040037006128e100e9
:1002a000010032000082eb00050007009101880088
:1002b0001001ba000200e000e6ff3a00000005006d
:1002c000910188008002780062004000e0804800d0
:1002d0003559ba008301e900080032002559ba00f7
:1002e0008301e900050032000400e000f4ff320061
:1002f00015d9ba008301e900f1ff3a0000000600b9
:10030000889fbe008a9fbe00010578000100e000c2
:100310000400350008003c000000e000200032002e
:100320000500370060001000e080180002003b006c
:1003300001f02c001a0037000004be006011b80064
:100340006b0920000982cf00020039000882cf002b
:100350000441b000694252000e00320008003b0028
:1003600082817100610164008904d1000884d30096
:100370008b05e8000442e800f9ff3a000500370069
:100380000804440089844c008b05e9000442e9001c
:10039000fbff3a00540107000af0a70001f0a0009b
:1003a0004f05be004f04be0000000600889fbe003f
:1003b0008a9fbe008c1f780071010700780133000e
:1003c00003866c006450e1002e0032006420e100de
:1003d000330032006150e1002f0032006120e10063
:1003e0003100320085855500eb07b0000900200080
:1003f00008042000050037000804440089844c00ec
:100400000a0031000603430087834b0000015300bc
:1004100081815b00f8ff33000203be000800a000ea
:100420000804440089844c00f6ff3900c639dd0019
:100430008301730001003200130020008904d10001
:100440000884d3000998a300050032000800a70023
:100450000300a0008904d1000884d3008b05e800c4
:100460008904d1000884d3000001eb000281d2008e
:100470001d01070001f0a1000cf0a70001f0a00091
:10048000500137006420e100520132000801be0033
:100490000200be00f7ff37006120e1004d0132008d
:1004a0006000b800f3ff37000000200001f82700cb
:1004b000f0ff37000001be00490107000470a700eb
:1004c00003f0a10003f8a30013003a006509b1008e
:1004d00010003200090035006928e10002003500f3
:1004e0000100280000000500000040008180480055
:1004f0008502e900fcff3a0000000600f88f420088
:10050000050035008100d1000080d3008502e8009d
:10051000fcff3a00000006008000eb000000050030
:10052000889fbe008a9fbe008c1f780014010700c0
:100530001b01330003866c006450e100240032008c
:100540006420e100270032006150e1002200320007
:100550006120e100210032008b854200eb07b100f1
:100560000134b800003ab8000804420089844a0007
:10057000013ab8000030b8008880400009014a0004
:10058000040033000000400081804800020149005f
:100590008b05e900c909dd0083017000010032000c
:1005a00013002000c814de004814dd004709de00f7
:1005b0001200b200c808de0008847000ca000700fc
:1005c00001f0a1000cf0a70001f0a000fd00370031
:1005d0006120e100ff0032000801be000200be0001
:1005e000f7ff37006150e100fcff3a00f9003700e7
:1005f0000081eb000f01370003f0a200889fbe00ce
:100600008a9fbe008c1f7800dd000700e4003300e5
:100610006450e1004f0032006420e10052003200db
:1006200003826c0007003b000905d0000306d000e0
:10063000820f54000c065d000200390002003200f7
:1006400089017800030678008582550004003d008a
:100650000003fd008103fd008502ea008b85420056
:10066000840f720002003b0060001000e080180060
:100670006011b8000005eb007a28e1000a0039009b
:1006800006007800c75ddd00f707b20087807500bf
:100690002d003700828171000a0178006105600039
:1006a0008180d1000080d3008502e900f9ff3b0082
:1006b000060440008784480002003b0060041400e8
:1006c000e0841c000988a300070032008a817100c1
:1006d00082817100610164008904d1000884d30023
:1006e0008b05e800170037000978a30013003a00d3
:1006f0000b00e000130034008b05e90008044400ff
:1007000089844c000a4474000978a3000d003a0063
:100710000b00e000070034008b05e90008044400ea
:1007200089844c0001003a000b0020000978a300e6
:10073000f7ff32000001eb000200370082817100f8
:100740000a017800680007000cf0a70001f0a00083
:100750009c0037006420e10002003a00838f6c00a7
:100760009c0033000801be000200be009500370067
:100770000001eb00af003700f4ff2f001601370037
:1007800014002000140137000001be00940007008f
:100790000470a70003f0a1006509b1001600320043
:1007a0000d0035006828e10006003500f0ff2f003d
:1007b000f1ff27000300e00013003b0001002800c8
:1007c0000000050000004000818048008502e9002b
:1007d000fcff3a0008003700f88f420002003c009e
:1007e0008000eb00000005008100d1000080d300f4
:1007f0008502e800fcff3a000300e00002003b0035
:1008000060001000e080180000000600889fbe0015
:100810008a9fbe008c1f78000004be007000070095
:100820000478a30026003a006120e1002500320090
:1008300009f8a30025003a006420e10021003200fd
:10084000f507b1000508a3000200320000004000d7
:10085000818048006044b80003102000020020009e
:1008600000004000818048000805440089854c0054
:100870000a0541008b8549000a0550008b85580008
:10088000030033000a00be00020474008384740075
:100890008301d1000281d300830f7100f0ff3a0081
:1008a0008904d1000884d3006001490082017800e6
:1008b000c1adde00fb07b0000b00070041003700b0
:1008c0000960a0000800be003e00370012022000b0
:1008d00072428800f0ff2f00f1ff27003900370037
:1008e00032002000d70037008100200061805500d1
:1008f0000b003d000b00200061fe2f000100e10015
:100900001d00340082817100610164008904d100fe
:100910000884d3000000e800faff3a0071002000cc
:1009200061006400030070000200600009003200f2
:1009300061044400e0844c000988a50005003200f1
:100940008b05e8006808e10002003a008904d10044
:100950000884d300f20f20000258e10005003d009a
:10096000c75ddd00f907b2008980750008007800d6
:10097000000006000bf827008b007800000005003f
:100980000004be00160007000003be000405be0000
:100990000200be0012000700844f75000000060030
:1009a0000200be006450e100050036006420e10052
:1009b000020036000968a30001003a000800be00ea
:1009c0000160a0004f0678004f05be004f04be0036
:1009d00000000600f0ff2f00f1ff2700f9ff3700ad
:1009e000c70ade00f107b200f50fb20008003200be
:1009f000e1cf4200020032000170a0002400050097
:100a0000810f700001003200040805004400050059
:100a1000810f700002003a00140005008502e90011
:100a20000000400081c04800fcff3b000170a000b6
:100a300024000500889fbe008a9fbe008c9fbe00d8
:100a4000820578000004be00e5ff07000800be0034
:100a50006420e1000700390002003a00f1ff27009e
:100a6000f0ff2f000160a0001202200072428800f7
:100a7000550037006120e10003003a000b00a70099
:100a800001f823005000370001f0a100020021000e
:100a9000936424003aff07000800be0004003500fc
:100aa000b2fd2000930c2400cd0007000004be001e
:100ab0000005eb000b00a6004f0dde0001f0a100c9
:100ac0000004be0032982f0023ea230094fe0700a2
:100ad0000001eb0003f023000b00a70003f8230044
:100ae000c6fe070028ff07000000a7000a00a200ba
:100af00003fe07000b00e0000300320002002000ac
:100b000003f02300bcfe070001f0a2000006be00b7
:100b1000020020009304240081fe07000801be00ab
:100b2000b6fe0700809fbe000c00be0022a22a0075
:100b3000d3a723007afe07004f01be00affe0700d7
:100b40000004be0001f0a100020020000398230071
:100b50000bff07000800be00190035000001be00b1
:100b60006ffe07000006be00b2c52900e362230045
:100b70006bfe070022222b00f3942b009ffe070040
:100b80000c01be0066fe0700e273280083c023004c
:100b90009afe07000c01be0061fe070042aa2a006f
:100ba000a3e22b0095fe07000c01be005cfe0700cf
:100bb0000801be005afe07000801be008ffe0700b4
:100bc0000a00a70001f0a2004f06be004f05be00bc
:100bd0004f04be0000000600889fbe008a9fbe0032
:100be000841f780066ff07004f0078001100330073
:100bf000f0ff2f00838f6c0006003b0004056500aa
:100c00000a00a7000800370009f0a6001000200025
:100c100008003700820f5400838f5c000300390006
:100c20001000200001003e000000200009f0a70095
:100c30000000ea004f05be004f04be000000e000c7
:100c400000000600889fbe008a9fbe008c9fbe00e9
:100c50000206780001f0a7000cf0a0000004be001e
:100c60005fff07000800be006420e10007003900b4
:100c700002003a00f1ff2700f0ff2f000160a00002
:100c800012022000724288005100370009f0a100d2
:100c90000800be000200200003f82300b6fe070093
:100ca000f4ff3c000800be0002002000039823006f
:100cb000b3fe07000800be0030003500020020002f
:100cc00003f02300acfe070005003c000800be0056
:100cd0000801be0012fe07000005be000e0037002e
:100ce0000c10a2000000200001f823000801be0043
:100cf00041fe07000200200003f0230008fe070069
:100d00000005be00c1fe07000200200003002c0009
:100d100003fe07000004be000a00be00b2d0280097
:100d2000130b2c0035fe07000a01be00fcfd070076
:100d3000020f2500330b240030fe0700809fbe0009
:100d40000a00be005206220013f02b00f4fd07003b
:100d5000b2662100f3f6230028fe07000a01be0058
:100d6000effd07004f01be0090fd07000801be0027
:100d7000ebfd07000801be0020fe07000c00a700e5
:100d800007003700b2fd200093fc23000c10a700e1
:100d90001afe07000cf0a70001f0a2000c003700bb
:100da0000cf0a7000200370001f0a2000400370099
:100db000b2fd2000930424000c10a60003003700ad
:100dc000b2fd200093fc23000c10a7000bfe0700cf
:100dd0004f06be004f05be004f04be0000000600d7
:100de0000400200000003700889fbe008a9fbe00dc
:100df0008c1f78004f26dd00e1fe0700e8fe33007f
:100e00006120e100430032006250e10041003e00f9
:100e10003e0039006420e1003c00320005825500ac
:100e20000f003b000402e80038003a00800f530036
:100e3000818f5b00350034000800be0003f0a10084
:100e400001f0a60003f0a0000cf0a700ebfd0700e6
:100e5000dcfe37000603430087834b000c46460048
:100e60000005530081855b00020033000a03be00c9
:100e70000c00a0000402e900f6ff3b0085057800a5
:100e80000602430087824b0004003a006000b8006d
:100e900009f0a70001f0a000cafe370000025200ce
:100ea00081825a000704e000040033000603430077
:100eb00087834b008b05e900faff370009057800ae
:100ec0000604be000203be006011b80086fe0700e3
:100ed000e00f5200e08f5a000700350002003c008e
:100ee0000c08a300040032000601be0003f0a000bd
:100ef0000cf0a700c1fd07000a85680001f0a10001
:100f00000af0a70001f0a000aefe37000800be0006
:100f1000acfe3700100220000cf0a60070428800e2
:100f2000acfe37000000fa00c4c2a900c4e2a90068
:100f3000c522a900c582a900c542a900c5a2a90071
:100f4000c5c2a900c5e2a900c0c2a900c0e2a900ab
:100f5000c122a900c182a900c142a900c1a2a90061
:100f6000c1c2a900c1e2a900d022a900cc22a900d7
:100f7000d042a900cc42a900e2e2a900e302a90004
:100f8000e802a900e822a900dee2a900df02a90028
:100f9000e402a900e422a900e202a900de02a900fd
:100fa000d602a900d622a900d642a900d662a9007d
:100fb000d682a900d6a2a900d6c2a900d6e2a9006d
:100fc000d202a900d222a900d242a900d262a9006d
:100fd000d282a900d2a2a900d2c2a900d2e2a9005d
:100fe000d1a2a900cda2a900e842a900e862a90007
:100ff000e442a900e462a900de22a800dec2a80043
:10100000e4c2a800e4e2a800e502a800e522a800e6
:10101000d302a800d322a800d342a800d362a8001c
:10102000d382a800d3a2a800d3c2a800d3e2a8000c
:101030000080fa000000060000a0fe003400f80066
:10104000881f780008c0b300a80188004f0478000a
:101050000200fa0086c0a900104280000000e000f3
:101060000c003400304280000000e800304288006c
:10107000504280000000e900504288005042800049
:101080000000e0000e003d003000200050428800cb
:101090000b003700304280000000e9003042880039
:1010a000504280000000e80050428800504280001a
:1010b000e30f5000020034000000eb0050428800b3
:1010c00050428000000f78001e007800e10f5000b1
:1010d000130032001e007800e10f500004003c00b5
:1010e0001e0078000000e000080032001a003700ff
:1010f0001e007800e20f50000e0032001e00780043
:10110000e30f50001000320013003700d602a90090
:10111000d622a800d642a900d662a8000e00370049
:10112000d602a900d622a800d642a800d662a900fd
:1011300009003700d602a800d622a900d642a8008e
:10114000d662a90004003700d602a800d622a90062
:10115000d642a900d662a8000080fa003400f90047
:101160000080fe000040060000a0fe003400f800f1
:10117000881f780008c0b300a80188004f047800d9
:101180000200fa0086a0a900204280000000e000d2
:101190000c003d00404280000000e9004042880011
:1011a000604280000000e9006042880060428000e8
:1011b0000000e0000e003d0030002000604288008a
:1011c0000b003700404280000000e80040428800e9
:1011d000604280000000e8006042880060428000b9
:1011e000e30f5000020034000000eb006042880072
:1011f00060428000000f78001e007800e10f500070
:10120000130032001e007800e10f500004003c0083
:101210001e0078000000e000080032001a003700cd
:101220001e007800e20f50000e0032001e00780011
:10123000e30f50001000320013003700d682a900df
:10124000d6a2a800d6c2a900d6e2a8000e00370098
:10125000d682a900d6a2a800d6c2a800d6e2a900cc
:1012600009003700d682a800d6a2a900d6c2a800dd
:10127000d6e2a90004003700d682a800d6a2a900b1
:10128000d6c2a900d6e2a8000080fa003400f90016
:101290000080fe00004006000000fa0021ff070069
:1012a0000080fa00000006000400fa00000f780039
:1012b0001e00e00006003a0021e1a900d602a900c4
:1012c000d622a900d642a900d662a9002000370084
:1012d00021e1a9001e007800104288000000eb0008
:1012e00000098800011220009140780000c3b3007b
:1012f00000c0700020e1b7000000eb00c0088800cb
:101300001e017800120798001e0090000000e00007
:1013100003003d001e0190000201ea001207980040
:101320001e0190006110b900f5fb07000001be002e
:1013300000002000117624001cfc07005dfc070063
:10134000e008880086c0a9008ec0a80021e1a8009e
:101350000080fa00000006000400fa00000f780088
:101360001e00e00006003a001fe1a900d682a90095
:10137000d6a2a900d6c2a900d6e2a9002000370053
:101380001fe1a9001e007800204288000000eb0049
:10139000f0088800e11120009140780000c3b300fc
:1013a00000c070001ee1b7000000eb00a00888003c
:1013b0001e017800120798001e0090000000e00057
:1013c00003003d001e0190000201ea001207980090
:1013d0001e0190006110b900c9fb07000001be00aa
:1013e0000000200011762400f0fb070031fc07000c
:1013f000d008880086a0a9008ea0a8001fe1a80040
:101400000080fa00000006000000fa003042800070
:101410000080fa00000006000200fa00000f7800c9
:101420001027fc001e007800304288000200fc00fb
:101430000080fa00000006000000fa004042800030
:101440000080fa00000006000200fa00000f780099
:101450001027fc001e007800404288000200fc00bb
:101460000080fa00000006000000fa008aff070072
:1014700013020700c1e02f00c0e02f00ec000700be
:101480000000eb0088ff07000000eb00b2ff070040
:10149000ffff37000400fa00100798000000eb007f
:1014a000000f78000000eb00000f7800020037000a
:1014b000000000001e0fe8001e0090009e0f1000ac
:1014c000fbff35000080fa00000006000000fa0073
:1014d000a04180000080fa00000006000000fa0031
:1014e000b04180000080fa00000006000200fa000f
:1014f000000f7800c4ff07009e0f500003003d005e
:10150000cdff07009e0f5000faff35000080fa0063
:10151000000006000000fa000000eb00beff07001c
:101520000000eb00c8ff07000080fa000000060082
:101530000200fa00000f7800c04180001e00400049
:10154000c0418800c04180000000e00004003d0070
:10155000c04180008016b000c041880008003700fc
:10156000c141800080162000808f500004003400ac
:10157000c041800081e92f0001004000c041880087
:101580000080fa00000006000800fa00889fbe00f4
:101590009dff070000047800a7ff070080004400bb
:1015a0004f08de00010040000080d100cf80de0047
:1015b00053fb07002007980031079800c0418000c6
:1015c000cf80de004efb0700b2fd20009304240014
:1015d000d3fb0700020020004333240073fb070005
:1015e000008fbe00d0418000e14180000004be00b9
:1015f0001e00be00fefb07002e019000be01900001
:10160000c7fb07000001be000800be00fbfb07008f
:10161000d0418800e1418800f04180000142800013
:101620000004be001e00be0051fc07002e01900009
:10163000be019000bafb07000001be000800be001a
:10164000eefb0700f041880001428800d84180008d
:10165000e9418000a1418000e0fc2f0000804000b3
:10166000cf80de0026fb07000001be000800be00a0
:1016700041fc07000000e00001003c0026003700ac
:10168000d8418000e9418000a04180002003b000e3
:10169000cf80de001afb07000001be000800be007c
:1016a00037fc07000000e000010035001a00370099
:1016b000f841800009428000b1418000e0fc2f0029
:1016c00000804000cf80de000dfb07000001be005f
:1016d0000800be0028fc07000000e00001003c00fc
:1016e0000d003700f841800009428000b0418000c1
:1016f0002003b000cf80de0001fb07000001be0028
:101700000800be001efc07000000e00001003500dc
:1017100001003700c4c2a8004f04be000080fa00d8
:10172000000006000400fa00008fbe0079ff0700e9
:10173000d042a800401f2000dbfe0700c0e02f00c1
:1017400005ff07001e00be000ffc070067ff070033
:10175000d042a9000080fa00000006000200fa0052
:10176000000f78001e007800cf80de00e4fa07004a
:10177000c2962000d306240069fb0700e9ff07009a
:101780001e0078006aff07000080fa0000000600d3
:101790000400fa00008fbe005eff0700d042a800e0
:1017a000c0e02f00c0fe0700401f2000eafe070037
:1017b0001e00be00f4fb07004cff0700d042a9004a
:1017c0000080fa00000006000200fa00000f780016
:1017d0001e007800cf80de00c9fa0700c296200004
:1017e000d30624004efb0700e9ff07008016200007
:1017f0001e0050004eff07000080fa0000000600a7
:101800000200fa00000f780042ff0700803e20002f
:10181000a5fe0700803e2000cffe07001e007800d6
:1018200032ff070058ff07000080fa0000000600a2
:101830001400fa00000f9800110f98000e08900095
:10184000cf80de00aefa07000001be0034fb0700c7
:1018500060079800710798001e089000cf80de0096
:10186000a7fa07000001be002dfb07004007980003
:10187000510798004e019000de0190006e0090002c
:10188000fe0090005dfb0700e0fb070020079800ca
:10189000310798001e089000cf80de0098fa0700fc
:1018a0002e019000be019000c0fa07000cfc07005a
:1018b000008fbe0002002000433324001e00be0043
:1018c00017fb0700b2fd200093042400b7fa0700bd
:1018d000008fbe000e0890000000e00005003d00f3
:1018e0001e01be0000002000413b240042fb070017
:1018f000008fbe00c0418000cf80de0080fa07006c
:101900000001be001e00be003bfb0700008fbe00b2
:101910006011b8001e00be0099fb07000000e00047
:10192000010035000500370002002000433b240081
:101930001e00be0031fb0700008fbe000200200029
:10194000433324001e00be008bfb07000000e000b4
:1019500001003c00070037001e01be00000020000f
:10196000413b240024fb070087fb070096ff07008c
:10197000030037001e00be0083fb070077ff07004f
:101980002e009000be0090007ffb07009cff070028
:101990000080fa00000006000000fa000000eb00e2
:1019a000200888004110200091407800f0ccb3005e
:1019b00000c060000044a00004e1b7000000eb009c
:1019c0000008880050282000100888008460a900c2
:1019d0008c60a80005e1a8000080fa000000060065
:1019e0003600f800809fbe00829fbe00849fbe002c
:1019f000869fbe003400f80000c0b300a00188003c
:101a00000200fa008460a90000408000000f780006
:101a10001e007800e10f5000330032001e007800f5
:101a2000e10f500004003c001e0078000000e000c0
:101a3000080032009a0037001e007800e20f5000c4
:101a40004e0032001e007800e30f5000700032009c
:101a500093003700104080000000e0000c003a00c6
:101a6000502820001008880080002000ff00070098
:101a700020408800c0002000fc0007006040880073
:101a8000e2e2a80010002000104088008400370027
:101a9000e0f120001008880080002000f30007001b
:101aa000a0408800c0002000f0000700e04088004f
:101ab00021408000a040800000805000204188002c
:101ac00061408000e040800000805000604188005c
:101ad000e2e2a9000000eb001040880010002000a6
:101ae000004088006e003700104080000000e000d9
:101af0000c003a00502820001008880090002000b8
:101b0000da00070030408800d0002000d70007002e
:101b100070408800e302a8001000200010408800f8
:101b20005f003700e0f120001008880090002000de
:101b3000ce000700b0408800d0002000cb00070096
:101b4000f040880031408000b040800000805000ac
:101b50003041880071408000f040800000805000db
:101b600070418800e302a9000000eb0010408800eb
:101b7000200020000040880049003700104080000d
:101b80000000e0000c003a005028200010088800f7
:101b9000a0002000b500070040408800e0002000c1
:101ba000b200070080408800e802a8001000200072
:101bb000104088003a003700e0f12000100888004b
:101bc000a0002000a9000700c0408800e00020001d
:101bd000a60007000041880041408000c04080000e
:101be000008050004041880081408000004180001a
:101bf0000080500080418800e802a9000000eb004e
:101c00001040880030002000004088002400370089
:101c1000104080000000e0000c003a005028200036
:101c200010088800b0002000900007005040880095
:101c3000f00020008d00070090408800e822a800f6
:101c4000100020001040880015003700e0f120004f
:101c500010088800b000200084000700d0408800f1
:101c6000f0002000810007001041880051408000f2
:101c7000d04080000080500050418800914080009a
:101c8000104180000080500090418800e822a900a7
:101c90000000eb00104088000000eb0000408800ce
:101ca0000080fa003400f9004f03be004f02be006e
:101cb0004f01be004f00be003600f9000040060094
:101cc0000000fa004b00070033ff07000080fa0015
:101cd000000006000000fa0005e1a900e822a900c2
:101ce000e8c2bf000080fb000000d100614060003e
:101cf00061416000812e200091407800e0cfb30068
:101d000000c0600002407000e8e2b700e8c2bf0017
:101d10006140600061416000312e200091407800f8
:101d2000e0cfb30000c0600002407000e3e2b70003
:101d3000e3c2bf006140600000404000004040003e
:101d40000040400000404000004040000040400093
:101d500080404000e2c2bf000074a100014070005a
:101d6000e2e2b7000080fa00000006000400fa007a
:101d7000000f7800700020009e0f10000300360056
:101d80000000eb0010079800060037001e007800e6
:101d90008000400040822000008040001000780059
:101da000100798001e0090000080fa000000060056
:101db0000400fa00000f7800700020009e0f100051
:101dc000030036000000eb00100798000600370003
:101dd0001e0078008000400040802000008040000d
:101de00010007800100798001e0090000080fa0094
:101df000000006000000fa000000eb00201588003b
:101e0000201580001015880010158000001588002e
:101e1000a802a800a822a800a842a900a862a900b8
:101e2000a882a900a8a2a900a8c2a900a8e2a900a6
:101e3000a902a900a922a900a942a900a962a90092
:101e4000a982a900a9a2a900a9c2a900a9e2a90082
:101e50002001200020158800700020003015880027
:101e6000a1e2a8000080fa00000006000600fa00c7
:101e7000100798001e009000ef0f5000030036007e
:101e80000000eb0020079800120037001e009000b1
:101e900030158800a022a8000000eb00000f780099
:101ea000010037001e0fe800700220009e0f100096
:101eb000fcff34008560a900a022a90085c0bf00f6
:101ec000684060000004e000fcff32000014800065
:101ed000200798002e0090000080fa000000060005
:020000040000fa
:0200000401f009
:04000000e6ff000017
:020000040000fa
:0200000401f009
:04000400ff7f00007a
:020000040000fa
:0200000401f009
:040008007fff000076
:020000040000fa
:0200000401f009
:04001400ffff0000ea
:020000040000fa
:10000800940f0000940f0000940f0000940f00005c
:10001800940f0000940f0000940f0000940f00004c
:10002800940f0000940f0000940f0000f00c0000e3
:10003800940f0000940f0000940f0000940f00002c
:10004800940f0000940f0000940f0000940f00001c
:10005800940f0000940f0000940f0000940f00000c
:10006800940f0000940f0000940f0000940f0000fc
:10007800940f0000b40800001c080000940f000052
:10008800940f0000940f0000940f0000940f0000dc
:10009800940f0000940f0000940f0000940f0000cc
:1000a800940f0000940f0000940f0000940f0000bc
:1000b800940f0000940f0000940f0000940f0000ac
:1000c800940f0000940f0000940f0000940f00009c
:1000d800940f0000940f0000940f0000940f00008c
:1000e800940f0000940f0000940f0000940f00007c
:0800f800940f0000940f0000ba
:020000040000fa
:10010800940f0000940f0000940f0000940f00005b
:10011800940f0000940f0000940f0000940f00004b
:10012800940f0000940f0000940f0000f00c0000e2
:10013800940f0000940f0000940f0000940f00002b
:10014800940f0000940f0000940f0000940f00001b
:10015800940f0000940f0000940f0000940f00000b
:10016800940f0000940f0000940f0000940f0000fb
:10017800940f0000b40800001c080000940f000051
:10018800940f0000940f0000940f0000940f0000db
:10019800940f0000940f0000940f0000940f0000cb
:1001a800940f0000940f0000940f0000940f0000bb
:1001b800940f0000940f0000940f0000940f0000ab
:1001c800940f0000940f0000940f0000940f00009b
:1001d800940f0000940f0000940f0000940f00008b
:1001e800940f0000940f0000940f0000940f00007b
:0801f800940f0000940f0000b9
:020000040000fa
:101ee000420800000c000000000000003408000060
:101ef0000e000000020000000cfe0c00fe000000be
:101f000000000000000000000000000000080000c9
:101f100034000000000000004e0800000200000035
:081f20000000000000000000b9
:020000040000fa
:041f28000000fe00b7
:00000001FF
