:020000040000fa
:080000003001040000000000c3
:020000040000fa
:10020000da53040000000000725b040000000000ec
:10021000e8280400000000008e3504000000000003
:10022000283a0400000000000c3b0400000000001d
:10023000a43d040000000000a03e040000000000f7
:10024000e63f0400000000005841040000000000e8
:10025000505d040000000000ea02040000000000fd
:100260008f732100807922000001880000000000c7
:10027000050007000c000700142102000000000028
:100280000040da000000fe004440a90040f72000d2
:100290000000e0000300320010002000a0018800f0
:1002a0004440a8000000060000df280001002000f4
:1002b0001600370062004000e0804800910188008d
:1002c0009001ba0062004000e0804800910188007f
:1002d0009002ba0062004000e08048000002eb009b
:1002e0006028e10005003a008301e90007003300bf
:1002f000038009000059eb00040037006128e10089
:10030000010032000082eb00050007009101880027
:100310001001ba000200e000e6ff3a00000005000c
:10032000910188008002780062004000e08048006f
:100330003559ba008301e900080032002559ba0096
:100340008301e900050032000400e000f4ff320000
:1003500015d9ba008301e900f1ff3a000000060058
:1003600080007800010037000000e8001004e00081
:10037000fdff3a000100500000000600889fbe000b
:10038000e30440000900a100808f540049003600ba
:10039000e38f540001003e0049002000b0a6800019
:1003a0000000e00002003200800078000c003700fe
:1003b000814d210003003700908f54002300360048
:1003c0008080e800110078001100e000faff3a0098
:1003d0000f003700928f54001c0036008280e80026
:1003e000110178001100e000faff3a0010017800d6
:1003f000814d210003003700908f54001300360018
:100400008080e80011007800820f5000faff3a0067
:10041000a8a68000890f540001003100090478006b
:10042000080078008b0007000000e00004003a009c
:10043000890f54001f0032000804d100f5ff370077
:100440000818780030000700d4ff37001101780049
:100450009201780064805100890f50000300310040
:100460001200900080087800070037000900410062
:100470008008780092019000130098001100780025
:100480001288140009097800910178001100e00039
:1004900004003200130090008380e8000000e000b8
:1004a00001003a008000eb00b1a688000280e8005d
:1004b000010037000000eb004f04be000000060002
:1004c000000478000600370082004100e0a68000aa
:1004d000e10078000200e800d0a6880001000100d9
:1004e000d2a68000f0a68000800f5100f6ff3900f0
:1004f00080342100e0a6880020022000f0a68800b9
:1005000008007800cf0807000000e000300032004b
:100510008080e90091027800e38f52002c003600c1
:100520000508a3002a003a00c2a680000200e000ed
:1005300002003200828f500004003100020878006f
:10054000c1a68800160037000301780092019000d0
:100550000300e00002003200818f5100faff3900f1
:100560001202780004004100808f5000180039000a
:10057000810f500003003a00050942008200780014
:10058000070037000300e000030032000580400050
:10059000808f51000e0039009300980011019800df
:1005a000110190000200e0000900320011804000bb
:1005b000820f500006003a00d634ef001100900080
:1005c0001101780090084100100090009000980000
:1005d00000000600881f780002047800140007005d
:1005e000080040004f047800000006000000fa00f8
:1005f000881f7800000478003fb99700ea8157000f
:1006000080007800a02e20001900070080007800ec
:100610000000e000020035000040eb0080707c002c
:10062000010078004f0478000080fa000000060006
:10063000000278008001780001003700b15978008d
:1006400002004200808f5100fcff3a000400780055
:10065000000006000000e0000300340081080700ed
:10066000e10f400001003a000000eb00000006002e
:100670006200fa00889fbe008a9fbe000004be0090
:10068000020578008300780060f92f000f00400019
:10069000af00070088979f0099979f000000eb002c
:1006a000a09f9f009a4578000b80fb000000ea00a5
:1006b000cf04de000904e90050c2b30080cf55002a
:1006c00001003200090478000800e0000b0034004b
:1006d000080178008a0078001f9097008f9197009a
:1006e0000300010090979f000000e000930032009b
:1006f0002f98970008004000a09f9f000905450023
:1007000050c2b30080cf5500040032000b04e0005b
:10071000e4ff3a002f989700890037000000eb00b3
:10072000809f9f00f0979f00e0979f00d0979f00c9
:10073000c0979f00b0979f00c09f9f00090037009f
:100740002047210000805000000040006146210049
:10075000e08078004f98970001007000c09f9f00d4
:100760000a05e8001a4478008800fb0020472100b1
:100770007c000700800078000000e000f0ff3a00f5
:10078000a0c2b300804f54000e003a00bf8897000b
:100790000180e900b08f9f0090007800b19f9f001a
:1007a0000100e00005003d000100ea00b09f9f004d
:1007b0004f9897000020a000c09f9f000a05e80006
:1007c00010003700b19f9f0009003700bf989700c5
:1007d000f0ff2700808f5000040032006a08b90043
:1007e0000000410003004000b09f9f000a05e800a0
:1007f0001a01fb0003fd2f0003004100e90f500028
:10080000f2ff3600e0c2b3009a4f1000040032003d
:100810000080eb00909f9f008a0478001c00370046
:100820008a04e800a0c2b300994f100007003a0004
:10083000bf8897000180e900b08f9f00100078000a
:10084000909f9f008a84e800110037000000eb00b1
:10085000909f9f00090037009f989700f0ff2700a6
:10086000808f5000040032006a08b9000000410087
:1008700003004000909f9f008904e8001901fb00dd
:1008800003fd2f0003004100e90f5000f2ff360086
:10089000194478008800fb00e05221003100070075
:1008a0000000e00002003a00004478000100370038
:1008b0008904e800a87f9f0080c6b300804f5400e1
:1008c00004003a0066405000994f140007003200bf
:1008d00008003700c0c6b300804f540005003a003e
:1008e000994f140003003a0065404000a07f9f002c
:1008f0008904e8000905e800c8fb2f000f04440044
:1009000060f92f000f0040008085e8008801780022
:1009100019417800800078000b007800e3000700a0
:100920000000e00005003a00880078000b00780025
:10093000140007000000e0005aff3d000080eb00bb
:100940004f05be004f04be000080fa000000060004
:100950000200fa00f1bf9f00010878000080fa0051
:1009600000000600040037001004e00001003a0017
:10097000000005000000e80090cf1000faff3a00e8
:10098000000006000400fa00889fbe008a9fbe0097
:100990008c1f780000047800010678007008900031
:1009a000f8009000010050008808900001005000fd
:1009b0009808900001005000a80890000100500025
:1009c000b808900001005000c80890008105500050
:1009d00000022200a0bf9f000003230090bf9f00e1
:1009e000081090000028a30018003a000b00e00057
:1009f000160034008b04780009057800e28f54005b
:100a0000020036002a002000020037000900e00042
:100a10000b003400c80190000a017800ec805700f8
:100a20005800900003000100500498000000e0000e
:100a300096003200680890000a004000600c9800a0
:100a40008a8454004240a900ebff3c0078019000ea
:100a50000200e0000b003400c80190008c00780018
:100a60005800900003000100500498000000e000ce
:100a70008600320068089000f800900001004000f5
:100a8000600c9800880c90000900e000150034000c
:100a900009057800e28f5400020036002a00200089
:100aa000020037000900e0000b003400c80190008c
:100ab0000a017800ee805700580090000300010002
:100ac000500498000000e0007000320068089000b8
:100ad0000a004000600c98008a8454004240a9003b
:100ae000ebff3c00180990000200e0000b0034000e
:100af000c8019000e8009000580090000300010039
:100b0000500498000000e000600032006808900087
:100b10009808900001004000600c9800a80c90001c
:100b20000900e0001500340009057800e28f540048
:100b3000020036002a002000020037000900e00011
:100b40000b003400c80190000a017800ee805700c5
:100b50005800900003000100500498000000e000dd
:100b60004a003200680890000a004000600c9800bb
:100b70008a8454004240a900ebff3c0038099000f1
:100b80000200e0000d003400e8009000180890001a
:100b900080804000c80190005800900003000100d0
:100ba000500498000000e00038003200680890000f
:100bb000b808900001004000600c9800c80c90003c
:100bc0000900e0001500340009057800e28f5400a8
:100bd000020036002a002000020037000900e00071
:100be0000b003400c80190000a017800ee80570025
:100bf0005800900003000100500498000000e0003d
:100c000022003200680890000a004000600c980042
:100c10008a8454004240a900ebff3c000810900079
:100c20000028a3001b0032000b00e0001900340074
:100c30008b04780009057800e28f5400020036002a
:100c40002a002000020037000900e0000b003400f9
:100c5000c80190000a017800ec805700580090000d
:100c600003000100500498000000e000070032007b
:100c7000680890000a004000600c98008a845400c4
:100c80004240a90003003400eaff37000080eb0077
:100c9000010037000000eb004f0678004f05be0052
:100ca0004f04be000080fa0000000600889fbe00ce
:100cb0008a1f7800000478000102780082447800de
:100cc0000305780070c6b300804f510021003c003e
:100cd00000c0e900804f5100e5003d007240500027
:100ce000804f5100510132000d003c006c4050001b
:100cf000804f510066013c0000c0e900804f510068
:100d0000db003d0050c2b300804f51005d01320056
:100d10007c404000804f51005d013a00d400370014
:100d200010c6b300804f5100d100320004003c00d7
:100d300069405000804f510055013a00750037005e
:100d400030c6b300804f5100180032000040e80068
:100d50000900370000c7b300804f51002401320062
:100d600008003c0000c0e900804f5100ea0032005a
:100d700068003c006540500080cf540044013a00b8
:100d80000f00370050c7b300804f510061003200a0
:100d900063404000804f51005e00320065405000cb
:100da000804f51003a013a00200137009180e9005c
:100db000010a78007800900011f079003a013700bc
:100dc000a8609000c0c6b30080cf50000a003a006f
:100dd0001400780064015000020a78001200be007e
:100de0004f88de00cf80de001202be0000037800d4
:100df000800378001600370010c7b30080cf500082
:100e000003003a0094007800688050000500370025
:100e100014017800a0c6b30080cf500005003a004e
:100e200068005100000a78003002be002003be00b6
:100e3000070037000280e900000a780010007800ff
:100e400000027800cfa2de00050378008603780058
:100e5000049cbe000694be00a860900080c6b3004b
:100e600080cf50000e00320020c6b30080cf50006b
:100e700005003a000400fb00cf80de00010178008d
:100e8000820178000a00370040c7b30080cf5000cd
:100e9000030032006640400080cf500006003a0058
:100ea00004007800cf80de00010178008201780024
:100eb000009cbe000294be003800be002801be00a7
:100ec000e00f5000e08f5800e00f5900e08f59000c
:100ed00003003d0078009000d1c2b3000a00370043
:100ee000081090000018a300030032007800900062
:100ef000b1c2b300040037000008a300570032005d
:100f00007800900001c2b30001707d000000e8008d
:100f100051003700a8609000c0c6b30080cf5000d9
:100f200007003a009400780064805000000a7800be
:100f30001002be000003eb008603780016003700a5
:100f400010c7b30080cf500003003a00940078002f
:100f5000688050000500370014017800a0c6b30077
:100f600080cf500005003a0068005100000a780068
:100f70003002be002003be00070037000280e900f7
:100f8000000a7800100078000002780005002000b8
:100f90000600200007002000049cbe000694be004e
:100fa000a860900080c6b30080cf50000e003200d1
:100fb00020c6b30080cf500005003a000480fb003b
:100fc0000100200002002000030020000a0037007a
:100fd00040c7b30080cf500003003200664040009d
:100fe00080cf500006003a00040078000100200085
:100ff0000200200003002000009cbe000294be00fe
:10100000081090000038a300140032003800be0021
:101010002801be00e00f5000e08f5800e00f59009b
:10102000e08f59000d00320080c7b30080cf54001c
:101030000300320080c5b30080cf540007003a009f
:101040007800900001c3b30001707d008000e800cb
:1010500089707d000080e80070049800780090009e
:101060000000450060049800894078006c0037005b
:10107000a860900014017800c0c4b30080cf500075
:1010800005003a0068005100000a78005001be00d7
:101090004000be000400370064005100000a7800e0
:1010a0001000be0044080700009cbe000294be0071
:1010b000380090000000e00003003d007800900040
:1010c000d1c2b3000a003700081090000018a30036
:1010d0000300320078009000b1c2b3000400370072
:1010e0000008a300050032007800900001c2b300a0
:1010f00001707d000000e800700498007800900006
:1011000000004500600498008940780008007800dd
:101110002801070066003700a8609000c0c6b30031
:1011200080cf5000250032000a003c00644050008f
:1011300080cf50002800320000c0e80080cf50006f
:10114000140032006840500080cf500022003a0066
:101150000a00370040c7b30080cf50001e003200a5
:101160006640400080cf50001b00320069405000b4
:1011700080cf500018003a00060037001480e900c4
:10118000000a780010007800485c90000848780059
:10119000470037001480e900000a78001002780048
:1011a00068089000cf80de0001017800820178009d
:1011b000009abe000292be003d0037001480e90094
:1011c000000a78001001780068089000cf80de00e7
:1011d0000089be00360037001480e900000a78005c
:1011e00010007800680c9000080878003000370084
:1011f0001180e9008008780010007800cf80de00c0
:101200000101780082017800009cbe000294be00bb
:1012100078009000000045006004980081c7b3008a
:101220000800780026000700210037001480e9003c
:10123000000a780090017800630498005809900033
:101240000200e00003003d000300780044fc0700ba
:101250000a0037008000eb0003007800cb00070095
:10126000800078000000e000030032006800900079
:10127000008050000100370058089000100c9800c2
:101280000b0037007800900002707d0006003700e8
:1012900078009000800045000904e00001003a0059
:1012a00059c2b300894878000000e8007004980033
:1012b0000000eb004f0578004f04be000000060060
:1012c0006f02b000889fbe008a9fbe008c9fbe0048
:1012d0008e1f780000067800d03d210080bf9f005f
:1012e00080c5b30080cf500007003200820020008c
:1012f000f2b79f00c33c210083bf9f0077404000ae
:1013000080cf50000a00320080c7b30080cf500069
:1013100005003200a4002000f4b79f0080c5b30090
:1013200080cf500002003a0000012000f0b79f007b
:101330003c04be002c05be0040c6b30080cf500068
:10134000030032006540400080cf50000b003a009f
:10135000e00f5400e08f5c00e00f5d00e08f5d0067
:1013600006003d006000b8006011b800080450009d
:10137000898458000a0559008b855900e00f5400f4
:10138000e08f5c00e00f5d00e08f5d0004003a003c
:101390005c0890008d0120000000e0000c0032008d
:1013a000ffb0970001027800cfa2de0005037800ad
:1013b000860378000800be000a01be002808070066
:1013c0000fba970064407800d0e79f007d012000ad
:1013d0007fb0970000027800cfa2de0005037800fe
:1013e000860378000800be000a01be001508070049
:1013f000009ebe000296be000d00e900e1fc2f0039
:101400008f804000008740001a0037007fb19700ae
:1014100002027800cfa2de00050378008603780080
:101420003c00be002c01be00110807000205be00f2
:101430000004be008d06e900ffb1970003027800aa
:10144000cfa2de0005037800860378000800be0006
:101450000a01be008f0807003fb29700000052004b
:101460008fb8970060cf7800089ebe000a96be0035
:101470000e07e9003c00be002c01be00b0b79f0083
:10148000c1b79f00d2b79f00e3b79f00e00f5000a5
:10149000e08f5800e00f5900e08f5900020034003f
:1014a0000d00e000d9ff3c00ffb09700e88f50002e
:1014b00010003a000c1090000038a3000d0032001c
:1014c000f78f560006003e00e2fc2f000d014100a0
:1014d000e2c07f0000c3b30080cf5000050032009f
:1014e0008d06e90000c3b300e3fc2f008d814100ad
:1014f00080f17f0078811600120e98006c00900039
:10150000e3fc2f008f8141008d80410048fc0700e3
:101510001c0990005c089000800f510006003d00ff
:1015200002005000000e98000c1090000040a10036
:10153000001698000f0037000000e0000d003d008d
:101540000c10900074006000f00f500009003a0089
:101550007c089000fc009000010050008c08900076
:1015600001005000020050004240a9000100340078
:10157000000e98004f0778004f06be004f05be00d2
:101580004f04be006f02b100000006008201780027
:101590000400370090cf1000050032000000e80082
:1015a0008301e9000300e000faff3a000000eb00cd
:1015b000000006002f04b000889fbe008a9fbe0076
:1015c0008c9fbe008e1f780080bf9f00014778006f
:1015d0005001be004000be00a09f9f00b19f9f0031
:1015e000c29f9f00d39f9f0010c6b300804f57003b
:1015f0001500320010c4b300804f570012003200b3
:101600000fb99700520890000000e00003003d0071
:1016100060002000500998000b0037000000e00037
:1016200009003a0070c6b300804f57000300320033
:1016300070c4b300804f570003003a001000200030
:101640008fb99700d00998008fb8970020fb2f0022
:101650000f0040000102070000017800e20f500077
:1016600014003a00300020000fba9700100a9800ca
:1016700010c6b300804f57000a003200644040009b
:10168000804f5700070032000040e800804f5700ad
:1016900004003200c14f21000040e800804f570095
:1016a00001003a00015021008fba970065009000b8
:1016b000150037000000e000170034003000200063
:1016c0008fb897009008980010c6b300804f57005d
:1016d0000a00320064404000804f5700070032008b
:1016e0000040e800804f57000400320041502100c4
:1016f0000040e800804f570001003a00815021006f
:101700000fb9970062009000315878003158780086
:1017100011487800cb01370014c6b300844f57003e
:101720000300320010c4b300804f570011003a008c
:101730008fba9700e50190008300780000c3b300e2
:1017400080587800e102980080c7b300844f5700aa
:101750000100320080c5b300804878000380e800b3
:101760008fb89700e0009800710090000080e800ba
:10177000f00098000200e00005003a00929f9f00f0
:10178000c3fb2f000f8141009f999700a9013700eb
:10179000c4502100f4b79f0010c6b300804f57001b
:1017a0000500320010c4b300804f5700b0003a006b
:1017b000d5512100f5b79f008fb8970051089000d0
:1017c00012022000a2b79f000000e00002003500d6
:1017d0000000e800a0b79f00afb197008301e800c8
:1017e000e3b79f006022b8006033b8002f989700dd
:1017f000bf9897004f999700df999700d30707008c
:101800008fb897003102be002103be000000e00047
:1018100004003d000400be000601be0003f0a2006b
:10182000020037000400be000601be00a09f9f001a
:10183000b19f9f00c29f9f00d39f9f001f99970059
:1018400064015100929f9f00c3fb2f000f80410055
:101850000048eb00d4fb2f000f024200c4b79f00ea
:1018600032003700c20120000300200045fb2f009a
:101870000f804200a50107002f9c9700bf9c970096
:101880004f9d9700df9d97000800be000a01be0033
:10189000b30707000006be006fb197006701510053
:1018a000e2b79f004240a9000a003400d8070700b1
:1018b0000002be000203be000800be000a01be0016
:1018c000d6070700a09f9f00b19f9f00c29f9f0067
:1018d000d39f9f00cfb19700678041007100200027
:1018e000060037000000e9006f4866004c6add0022
:1018f0004466de000c067200c4eede00e00f560007
:10190000e08f5e00050034008100e900e18f4000b7
:10191000f4ff3a00010037000060eb008100e900ad
:10192000fdff3b0067004000c0b79f00efb297008b
:101930000500e000090034006022b8006033b80000
:101940002f989700bf9897004f999700df999700bd
:10195000b40707000000e000c2ff3c00c0fb2f00fe
:101960008f0040004fb19700010051000000e900d6
:10197000afb19700830f500001003d00a0b79f005a
:10198000afb297000500e00004003d00850178003b
:10199000d0fb2f000f0140002e0037002fb1970021
:1019a000800f510005003d000100410010409000f3
:1019b000f5c0b300e74f500001003c008042eb004f
:1019c000d3fb2f000f8041002fb29700040040008e
:1019d0008000e9000402e900114178008100e9007b
:1019e000854f5100fbff32008401e800afb0970043
:1019f0000100500000004200efcf520001003a0009
:101a00000248e80025fb2f008f8242006b814200d4
:101a10000400e00005003d008301e8001f989700e6
:101a200064004000909f9f006a81420003004100d3
:101a30008000e90003027800040037001100fb0079
:101a4000ffb29700e0c87a008100e9000402e900d3
:101a5000faff3b008fb89700510890000000e000ab
:101a6000f4003d000300e900d0089800f1003700c1
:101a70002f9c9700bf9c97004f9d9700df9d97007c
:101a80006022b8006033b8000800be000a01be0042
:101a90002e0707000000e00005003d000bf0a2004b
:101aa000a89f9f00b99f9f00ca9f9f00db9f9f0038
:101ab0001f989700725927000280b900026a280017
:101ac00013002000d3040700e4005000919f9f0002
:101ad00015003b00e3801000c0ff2f000084600071
:101ae0000801ea00929f9f002f989700bf989700e7
:101af0004f999700df999700c92b21000700370005
:101b00000808a300030032003902be002903be000a
:101b1000490707000884d100e88444000800e00079
:101b2000f7ff3c001c0037009f9997000300e0007e
:101b30001d003400c0ff2f0000806000909f9f00b8
:101b4000000478006000b8000200200003ff2300ba
:101b5000c92b2100070037000808a300030032004a
:101b60003902be002903be00330707000884d100f4
:101b7000e88444000800e000f7ff3c000002be00db
:101b80000203be002f989700bf9897004f999700c7
:101b9000df9997009d070700a09f9f00b19f9f00be
:101ba000c29f9f00d39f9f000fba970054099000d7
:101bb00060c6b300804f570004003200610020006f
:101bc00060c4b300804f570002003a009f9a97000c
:101bd000ea80420001014100d2b79f00f30f51009b
:101be0000200340030012000d0b79f0000c3b300d2
:101bf000c07f9f00d1fb2f008f804000b1b79f00b6
:101c0000310037000800be000a01be00d4060700fc
:101c10000006be005fb1970068015100d2b79f0077
:101c20004240a9000e003400f90607000002be0081
:101c30000203be000800be000a01be00f70607004e
:101c40006022b80046782d0077192400fa060700b4
:101c5000a09f9f00b19f9f00c29f9f00d39f9f00a6
:101c6000bfb1970068844100890020000800370058
:101c7000a2002000030020000c00be001f0107008e
:101c80000804e90004c3b300044c41000006be0090
:101c9000e00f5600e08f5e00070034008904e90081
:101ca000e18f4400f2ff3a00030037000804e90026
:101cb00000c3b300004c78008904e900fbff3b003f
:101cc00068044400b8b79f00dfb297000500e00049
:101cd0000b0034002f9c9700bf9c97004f9d9700ee
:101ce000df9d97006022b8006033b8000800be0096
:101cf0000a01be00cb0607000000e000c1ff3c0067
:101d0000c1fb2f000f8040003fb197000000510041
:101d10008001e9001f9a9700e7004200d5fb2f00e1
:101d20000f814200010037000201e80000c3b30048
:101d3000924f1000fcff3200d4fb2f000f00420036
:101d4000808040008280500000804100820150006d
:101d5000919f9f008fba9700550a900060c6b3000c
:101d6000804f57000300320060c4b300804f57001b
:101d700002003a008100e8000800370050c6b300b6
:101d8000804f5700040032008000eb0050c4b300c5
:101d9000804f570001003a0011002000010242006c
:101da000848f510001003d00030278000400e00030
:101db00002003d00840178001e003700830f5200ae
:101dc00005003d00e440790097c3b30040c3b30071
:101dd00080cf500001003c0007c3b3000400410065
:101de0008001e900840278008502e900134378004d
:101df0008301e900874f5300fbff32008501e800b3
:101e0000040050008080420090c3b30080cf530094
:101e100001003a008648e8000500e00005003d00aa
:101e20000201e9008301e8001f9897000000e80024
:101e3000909f9f001f9a97008e4078000fb89700e0
:101e4000c80007004f0778004f06be004f05be00d0
:101e50004f04be002f04b10000000600889fbe00a2
:101e6000800478006684400000ff270018006000ae
:101e70004401de00f07f2000800f51000e003a0088
:101e8000800ceb00180478006f0064001c003a001e
:101e9000210090000000e00019003a0011009000bd
:101ea0000000e00016003a00100020001100e000e1
:101eb00014003200120037000200e00005003c0070
:101ec00001007800db010700000178000000e0005d
:101ed00008003c00f00028001800600001fe23000c
:101ee000010c700020c02f00800c41000080eb002e
:101ef00004003700800ceb000000eb00010037000d
:101f0000200020004f04be0000000600889fbe0095
:101f10008a1f78008c9fbe00000478000206be0075
:101f2000e6044000190178000200d0004505de00fb
:101f30008a007800f07f2000800f55000c003a00e6
:101f40006f00610068003a00280090000000e00087
:101f500065003a00180090000000e00062003a00be
:101f6000100020001800e000600032005e00370022
:101f70000a00e00007003a0008007800ad01070001
:101f8000800078000000e000020034000a007800c1
:101f9000560037006108b9000c0140008d814800ef
:101fa000e07f2000800f5100e08f59000d003400c9
:101fb0001900e00004003d006000b80002002000ad
:101fc00003ff2f00030037006000b800020020006c
:101fd00003ff2700009cbe000294be0010002000fa
:101fe0004200370019027800e00f5100e08f5900dd
:101ff00008003400f1002800810062000200410066
:10200000000040000000400000004000808c700094
:102010003300370000002800000362006f006200f8
:102020000040a000800c780061015100e08159005f
:10203000c0fc2f00f1ff2f00800f5100818f59004d
:102040000d003d00860c78000000eb002004980095
:1020500010049800000c7800240037008880e80005
:10206000110c78006400440090087800190878008a
:10207000800ceb0070014100f00f4100f7ff3400cd
:102080008202ea00150032008881e80070821200a6
:10209000980078008508de00130078000400dd0059
:1020a000008c700064014400930078008508de0015
:1020b000120078000400dd00808970009200780032
:1020c0008508de00190078000400dd00008970003a
:1020d000190078000500de00800c7800990c730070
:1020e0000080eb0001003700200020004f06be00fa
:1020f0004f0578004f04be00000006000800fa00fb
:10210000889fbe008a9fbe008c9fbe00e0b79f00e4
:10211000f1b79f000206be003e03070080bf9f008c
:1021200091bf9f000001be000c00be009106070099
:102130006fb19700ffb197000005510081855900ec
:102140000fbc97009fbc97000800be000a01be00ac
:102150004f06be004f05be004f04be000080fa00cf
:1021600000000600ec874700889fbe008a9fbe00e3
:102170008c9fbe008e1f7800000478000145780017
:102180000206780083047800840678000300e000eb
:1021900002003c00190020006c53210060c6b3000f
:1021a000804f55000e00320060c4b300804f5500d0
:1021b0000b00320070c6b300804f550003003200a0
:1021c00070c4b300804f55009c003a00e48f460075
:1021d0008000350058089000808f56007d003d003b
:1021e0008d05e80060c6b300804f55001000320036
:1021f00060c4b300804f55000d00320008109000fd
:102200000038a30004003a0058089000808f540062
:1022100001003d00590c9800580890000b00500038
:10222000500c980002003b000000eb00500c98009e
:102230000b00e00027003c001809900068009000a7
:1022400001c3b300017178008201e800130c98000b
:10225000580890000000e00003003c0008109000c7
:102260000038a3000500320068009000e1c2b3000e
:10227000817178000280e800100c9800d808900066
:102280000b00ea00808f500001003d008105ea004c
:102290000b00ea00200c98000b804000500c9800c6
:1022a000890f500001003d0080047800390c98002f
:1022b0006800900098089000010040000901780033
:1022c0008c007800daf807005808900009005000e8
:1022d0001a00370098089000680090008b8f540017
:1022e00018003d0001004000090178008c007800d2
:1022f000cff807001808900009014000120c980060
:1023000009805500200c9800580890000000e0005b
:1023100003003c00081090000038a30006003200c3
:10232000e8009000e0c2b30000f1780038089000a7
:102330000000e800300c980058089000400c98000d
:10234000a4003700010040000b0178008c007800e9
:10235000b7f80700180890000b014000120c980015
:102360008b845400580890000000e00003003c00fb
:10237000081090000038a3000500320068009000ab
:10238000e1c2b300017178000200e800100c98006f
:1023900058089000890f500001003d00800478002b
:1023a0006800900098089000010040008b004600f3
:1023b000090178009ef80700180890000900400005
:1023c000100c98005808900009005000200c98004c
:1023d0008000370070c6b300804f55000300320004
:1023e00070c4b300804f550014003a0058089000a4
:1023f000808f540004003d00081090000038a300b6
:1024000001003a00590c9800580890000000e900bb
:10241000500c980002003b000000eb00500c9800ac
:1024200070c6b300804f550002003a005ac6b30090
:102430000b0037005ac4b3000900370010c6b300c0
:10244000804f550002003a000ac7b300040037006d
:1024500010c4b300804f550001003a000ac5b30014
:1024600018099000680090003c7178008201e80033
:10247000130c98000c027800580890000000e0004f
:1024800003003c00081090000038a3001700320041
:10249000e8009000e0c2b30080f178008280e8009c
:1024a000110c9800580890000000e0000f00340064
:1024b0008904e900890f500001003d008004780084
:1024c0006800900001004000090178008400780055
:1024d00057f807001808900009004000100c9800f9
:1024e0005808900009005000200c980068009000e7
:1024f00098089000010040000086e8000a58780023
:10250000800078000d00e00004003500b0c2b30088
:10251000804878008c04780004003700d0c2b300f3
:10252000804878008c0478008d06ea008005eb0076
:102530007887570006003700a10020000d007800c2
:10254000b5000700015f78008b05e8008006780081
:102550000d00e000f8ff3c00e18f550009003c0051
:1025600050c6b300804f55000300320050c4b30082
:10257000804f550003003a0000c3b300005e7800ae
:102580008c0478000b00e000040032000b00e9002e
:10259000f8805700008040000700370000c3b300f8
:1025a000805c7800060037008b05e90001c3b300aa
:1025b00090dc40000000e9000b00e000faff3c0066
:1025c00068009000980890000100400000805400ce
:1025d000300c98000810900074006000f00f50005c
:1025e0000e003a007800900098089000010040002a
:1025f000a808900001004000b808900001004000c9
:10260000c80890008100400078089000808f50003a
:1026100002003d0001005000000c98004f077800b8
:102620004f06be004f05be004f04be00cf00b100f4
:1026300000000600881f780000027800e6024000d3
:102640001500780001002800810360006f00600021
:10265000800a780012003a00240090000000e00098
:102660000f003a00140090000000e0000c003a0057
:10267000160020001400e00063003200080037005c
:10268000e4004200910a78000480e8009008780095
:1026900014087800020a7800700353000100370024
:1026a00016002000150178001500e000f4ff32004c
:1026b00013003700640142008000400012007800df
:1026c0004f00de00808a70008480e80012007800ed
:1026d00080014000110078004f00de000089710089
:1026e0009101780003814100140078004f00de0062
:1026f0008008710014047800080a44000603e90009
:1027000015007800ef0f5000eaff36003a0037005e
:102710000481e8009400d100920178000380410018
:1027200000004000000040000000400000004000a9
:102730000000400000004000000040000000400099
:102740000000400000004000000040000000400089
:102750000000400000004000008a7000e4004200d9
:102760008301d100110478000800440000004000fb
:102770000000400000004000000040000000400059
:102780000000400000004000000040000000400049
:102790000000400000004000000040000000400039
:1027a00000004000008971001101d10095017800fe
:1027b0000380410000004000000040000000400095
:1027c0000000400000004000000040000000400009
:1027d00000004000000040000000400000004000f9
:1027e0000000400000004000000040008008710030
:1027f000950ad1000603e80015007800ff0f50008d
:10280000c3ff3e00ef0a6000958a7300060078005f
:102810004f0478000000060001017800801f780056
:10282000110009000200d800800078004f007800f5
:102830000191b90082025000010278000400be003c
:10284000000006000c02e20004003d000f42ab0055
:10285000020032000f02ab00feff32000040da003f
:10286000feff3700889fbe0080047800d0a780005c
:102870000000e00003003a00100007000000e00044
:102880000a003500d0a780000900e00002003a00ed
:1028900000047800060037000004780009004000ba
:1028a000060007000000e00001003d000084eb008e
:1028b000080078004f04be00000006008000780089
:1028c0000000e00004003a0080532100d0a78800f7
:1028d00001017800060037000081eb0080732100c1
:1028e000808f500002003e00d1a788000001eb005d
:1028f0000200780000000600889fbe008a9fbe008c
:102900008c1f7800870107008e01330003866c005e
:102910006450e100240032006420e100270032000e
:102920006150e100220032006120e100210032000c
:102930008b854200eb07b1000134b800003ab800c3
:102940000804420089844a00013ab8000030b80007
:102950008880400009014a00040033000000400064
:1029600081804800020149008b05e900c909dd00aa
:10297000830170000100320013002000c814de0043
:102980004814dd004709de001200b200c808de006e
:10299000088470007b01070001f0a1000cf0a70083
:1029a00001f0a000700137006120e10072013200e7
:1029b0000801be000200be00f7ff37006150e100d1
:1029c000fcff3a006c013700889fbe008a9fbe0062
:1029d0008c1f7800530107005a01330003866c00f6
:1029e0006450e1002e0032006420e1003300320028
:1029f0006150e1002f0032006120e100310032001f
:102a000085855500eb07b000090020000804200070
:102a1000050037000804440089844c000a00310096
:102a20000603430087834b000001530081815b0054
:102a3000f8ff33000203be000800a00008044400b1
:102a400089844c00f6ff3900c639dd00830173002c
:102a500001003200130020008904d1000884d30053
:102a60000998a300050032000800a7000300a00099
:102a70008904d1000884d3008b05e8008904d100c3
:102a80000884d3000001eb000281d2003d01070061
:102a900001f0a1000cf0a70001f0a0003201370006
:102aa0006420e100340132000801be000200be00d3
:102ab000f7ff37006120e1002f0132006000b8000d
:102ac000f3ff37000000200001f82700f0ff370077
:102ad0000001eb0051010700040032000200200059
:102ae00003f8230001f0a7006a00070000000600b9
:102af0000001be00700107000470a70003f0a100f0
:102b00006509b100160032000d0035006828e100ab
:102b100006003500f0ff2f00f1ff27000300e00062
:102b200013003b00010028000000050000004000e9
:102b3000818048008502e900fcff3a000800370068
:102b4000f88f420002003c008000eb00000005000e
:102b50008100d1000080d3008502e800fcff3a002c
:102b60000300e00002003b0060001000e08018005d
:102b700000000600889fbe008a9fbe000105780005
:102b80000100e0000400350008003c000000e00007
:102b9000200032000500370060001000e0801800bf
:102ba00002003b0001f02c001a0037000004be00b8
:102bb0006011b8006b0920000982cf0002003900c3
:102bc0000882cf000441b000694252000e0032007a
:102bd00008003b0082817100610164008904d1001a
:102be0000884d3008b05e8000442e800f9ff3a00ae
:102bf000050037000804440089844c008b05e90077
:102c00000442e900fbff3a00de0007000af0a700db
:102c100001f0a0004f05be004f04be0000000600fa
:102c20000001be00240107000470a70003f0a1000a
:102c300003f8a30013003a006509b1001000320048
:102c4000090035006928e100020035000100280074
:102c50000000050000004000818048008502e90076
:102c6000fcff3a0000000600f88f42000500350026
:102c70008100d1000080d3008502e800fcff3a000b
:102c8000000006008000eb0000000500140020009a
:102c90001e01370003f0a200889fbe008a9fbe007d
:102ca0008c1f78009f000700a60033006450e100ed
:102cb0004f0032006420e1005200320003826c00b9
:102cc00007003b000905d0000306d000820f540026
:102cd0000c065d0002003900020032008901780014
:102ce000030678008582550004003d000003fd00c6
:102cf0008103fd008502ea008b854200840f72008b
:102d000002003b0060001000e08018006011b80075
:102d10000005eb007a28e1000a003900060078007f
:102d2000c75ddd00f707b200878075002d00370012
:102d3000828171000a017800610560008180d10004
:102d40000080d3008502e900f9ff3b000604400043
:102d50008784480002003b0060041400e0841c00eb
:102d60000988a300070032008a8171008281710006
:102d7000610164008904d1000884d3008b05e80058
:102d8000170037000978a30013003a000b00e00099
:102d9000130034008b05e9000804440089844c00ca
:102da0000a4474000978a3000d003a000b00e0000b
:102db000070034008b05e9000804440089844c00b6
:102dc00001003a000b0020000978a300f7ff320051
:102dd0000001eb0002003700828171000a017800d7
:102de000680007000cf0a70001f0a0005e003700ab
:102df0006420e10002003a00838f6c005e00330023
:102e00000801be000200be0057003700f4ff2f008b
:102e1000be003700839f68000100e00002003d0013
:102e200060001000e08018000300e00002003d0098
:102e300060011100e0811900cf0007004f00e000a1
:102e400002003b0060001000e08018000000060057
:102e5000889fbe008a9fbe008c1f78000004be00c1
:102e6000950007000478a30026003a006120e100e5
:102e70002500320009f8a30025003a006420e10093
:102e800021003200f507b1000508a300020032005e
:102e900000004000818048006044b800031020001a
:102ea0000200200000004000818048000805440026
:102eb00089854c000a0541008b8549000a055000b0
:102ec0008b855800030033000a00be000204740022
:102ed000838474008301d1000281d300830f7100c9
:102ee000f0ff3a008904d1000884d3006001490052
:102ef00082017800c1adde00fb07b00021000700b1
:102f0000190037000960a0000800be001600370055
:102f100012022000a2a78800f0ff2f00f1ff270077
:102f2000110037000004be00630007000003be006c
:102f30000405be000200be005f000700844f75005c
:102f4000000006000200be006450e10005003600eb
:102f50006420e100020036000968a30001003a0085
:102f60000800be000160a0004f0678004f05be00bb
:102f70004f04be0000000600f0ff2f00f1ff270005
:102f8000f9ff370081002000618055000b003d00f3
:102f90000b00200061fe2f000100e1001d00340045
:102fa00082817100610164008904d1000884d3002a
:102fb0000000e800faff3a007100200061006400a0
:102fc0000300700002006000090032006104440048
:102fd000e0844c000988a500050032008b05e8005c
:102fe0006808e10002003a008904d1000884d30097
:102ff000f20f20000258e10005003d00c75ddd0032
:10300000f907b2008980750008007800000006000a
:103010000bf827008b00780000000500889fbe0099
:103020008a9fbe000003be002300070085057800cc
:1030300082815200020020006220e10004003a0078
:10304000f307b100040035007718e10004003500f3
:103050000600be00140037006000b8000f00370003
:10306000f50f2000faff2f008502d1000a85d3005a
:103070008301e900fcff3b008184620000046500dd
:10308000890f7400f2ff32008582ea000a85ea00a7
:103090008184620000046500baff070007f0a70002
:1030a00001f0a0000081eb000200e0004f05be002f
:1030b0004f04be0000000600c70ade00f107b200a0
:1030c000f50fb20008003200e1cf420002003200ea
:1030d0000170a00024000500810f70000100320083
:1030e0000408050044000500810f700002003a004a
:1030f000140005008502e9000000400081c048007e
:10310000fcff3b000170a00024000500889fbe006a
:103110008a9fbe00841f780082ff07004f0078005e
:1031200011003300f0ff2f00838f6c0006003b007e
:10313000040565000a00a7000800370009f0a60092
:103140001000200008003700820f5400838f5c00bd
:10315000030039001000200001003e0000002000a4
:1031600009f0a7000000ea004f05be004f04be00b2
:103170000000e000000006006022b8000602200007
:103180000000d0008180d2000482d2008582d2006b
:103190000000a0000202520083825a0003003b009c
:1031a0000202420083824a000000a1000603e900f7
:1031b000f3ff3a000000060081037800beff07001d
:1031c0000001be006000b8000478a30013003a00bc
:1031d0006220e10015003e000d0039008301d1009e
:1031e0000281d3008180d3008301d1000281d3000a
:1031f0008180d3008301d1000281d3008180d3007c
:103200000538b000c42add00f300b20083817200eb
:1032100007f0a70003f0a00000000600f3ff27005e
:10322000f2ff2f006110b900fbff370003ff2700fa
:10323000f7ff3700881f7800000478005001be00b7
:103240004000be000000420081804a0002014b00a5
:1032500083814b00009cbe000294be000400e1008c
:103260000588e1000690e1000798e10002003100c6
:10327000680044001008e8004f04780000000600d1
:10328000f4874700889fbe008a9fbe008c9fbe00c7
:103290008e1f78000205be000004be00d4b79f0058
:1032a000e5b79f00f6b79f0087bf9f000000eb00c7
:1032b000c0b79f00b0b79f00a0b79f0090b79f0016
:1032c00080b79f000d042000bfb097004fb097005b
:1032d000000140000000e00014003d004f08de0047
:1032e00000007100c0b79f00ad00070001003d0065
:1032f00012002000b000070001003d001200200075
:10330000b500070001003d0012002000ba000700d0
:10331000be000700feff3a00c2000700c800070019
:103320000f004000c3ff0700270037004f08de00f2
:1033300000067100ccb79f009900070001003d0016
:10334000120020009c00070001003d001200200038
:10335000a100070001003d0012002000a6000700a8
:10336000aa000700feff3a00ae0007000fb2970068
:103370009fb297002fb39700bfb39700b600070026
:103380000000520081805a0002015b0083815b00d3
:1033900080b79f0091b79f00a2b79f00b3b79f006f
:1033a0000007eb00ac0007000020e10001a8e100ed
:1033b00002b0e10003b8e100010031001e0020006e
:1033c0000e005600c0b79f004fb297000400e00007
:1033d0000700350010002000010020006011b80037
:1033e00008047000898470000a0571008b857100e3
:1033f0008d06e900b4ff3a000400e00003003d0040
:103400008f0007000f0040008aff07004fa89700b9
:103410000000e00004003a000fb497009fb497004a
:103420002fb59700bfb59700970007004f077800aa
:103430004f06be004f05be004f04be004f01b10055
:1034400000000600881f780018002000881f780000
:103450008bff07008f87e9004f047800000006000b
:10346000801feb0086ff07008f87e9000000060041
:10347000889fbe008a9fbe008c1f78007b000700db
:1034800005003d002f00070007003d003d0007003c
:103490000006eb00040037003f00070002003d007b
:1034a000300007001c00200077000700e5ff070040
:1034b0000203be000002be000c00e000010032006a
:1034c000280007000400be000601be004f06780079
:1034d0004f05be004f04be0000000600889fbe00de
:1034e0008a9fbe008c1f78006000070003003d002b
:1034f0001400070006003d00040037002600070006
:1035000003003d006000b8006011b8001d00070016
:103510005d000700d2ff07000203be000002be00ec
:103520000c00e000010032000e0007000400be00a5
:103530000601be004f0678004f05be004f04be00d6
:10354000000006006000b8006011b80008045000d8
:10355000898458000a0559008b8559001c002000f9
:10356000030037006000b8006011b80005003700a4
:10357000e00f5200e08f5a00e00f5b00e08f5b002d
:10358000000006000402500085825800060359001e
:1035900087835900000006000006eb00f4ff3700a7
:1035a0000180400090b79f000001eb008fb09700b2
:1035b0000100e000000006000200700090b79f00cc
:1035c0000180400080b79f000001eb00ffa897003a
:1035d0000100e000000006000200700080b79f00bc
:1035e00001804000f0af9f000001eb00efa89700c2
:1035f0000100e0000000060002007000f0af9f0034
:103600000182400020000700f50305008301d1007e
:103610000281d3008180d3000080d3008502e900bd
:103620000000060000027200e4af9f00080444009e
:1036300089844c000a054d008b854d000000060072
:103640003fb29700cfb297005fb39700efb39700f8
:1036500000fe2f00000006003fb09700cfb097009b
:103660005fb19700efb19700000006000205be00b1
:103670000004be00e00f5000e08f5800e00f59003a
:10368000e08f5900000006000800be000a01be00dd
:1036900000000600889fbe008a9fbe008c1f780035
:1036a0000205be000004be000006eb00e00f500063
:1036b000e08f5800e00f5900e08f590007003d00ef
:1036c0006000b8006011b8000804500089845800f8
:1036d0000a0559008b8559001c002000e00f52009c
:1036e000e08f5a00e00f5b00e08f5b0002003d00be
:1036f0000f0007000c00a2000800be000a01be0077
:10370000220107000203be000002be000c00e00020
:1037100001003200060007000400be000601be00e2
:103720004f0678004f05be004f04be0000000600a3
:103730006000b8006011b800040250008582580093
:103740000603590087835900000006008f1fd1002f
:10375000300107008f87e9000000e000000006004c
:103760001400fa00889fbe008a9fbe008c9fbe0096
:103770000004be000205be00680047000a90be00bb
:103780000890be004c0107000070a7000bf0a100dc
:10379000304320009e02900080825200b0fe2f0035
:1037a0000028e10011003d00b0fc2f000028e100de
:1037b000150034001e0990008e0890007e009000d5
:1037c0000501b0000201d1008180d3000080d30048
:1037d0008502e800fbff3a000b00e00071013b00ae
:1037e00060001000e08018006e013700f0ff2f002d
:1037f000f1ff27000b00e0006a013b0001002800f8
:1038000000002000670137006000b8006501370044
:103810004f89de00820178006701370007f0a200bf
:103820009c013700809feb00fa0007008f87e900ba
:103830000000e000000006002800fa00889fbe009b
:103840008a9fbe008c9fbe0003866b00410107006b
:103850000028a30064003a000128a30067003a0092
:103860000008a30062003a000108a30065003a00c6
:103870001e009000be08900081064000ed3fb100a0
:10388000f4805700ee019000111ab8008e099000e4
:10389000311bb8009e099000311cb800511db800c2
:1038a000f485570046000700fe0190003a0007002b
:1038b0008b85e8003e0007008e099000400007005d
:1038c000ee019000340007008b85e8003800070007
:1038d0008e099000400007009e0990001b18b80058
:1038e000890440000a854800fe019000340007006a
:1038f0008b85e80038000700ee01900030000700db
:103900008e0990001b18b800890440000a85480001
:103910000a98a30008003a000402420085824a0087
:1039200006034b0087834b0008044c0089844c003d
:103930000a054d008d06e90084827200850273003d
:103940004c3add00850272000100320015002000b3
:10395000443ade001400b2004538de00cb45dd00fd
:103960000b007000c540de00cb4ddd008b80700089
:103970004549de00cb55dd000b017100c551de006d
:103980000d037800c001070003f0a1000cf0a700b0
:1039900003f0a000030137001b18b80085024000a7
:1039a00006834800e0834b0060044c0007003700aa
:1039b0001b18b8000603400087834800faff370051
:1039c0001b18b8008703400008844800e0844c00be
:1039d00060054d00000006001b18b80008044000f8
:1039e00089844800faff37000108a300ea003a0082
:1039f0005800be005801be00e3ff37000008a300d6
:103a0000e5003a0009047800f9ff37002800fa00c1
:103a1000889fbe008a9fbe008c9fbe0003866b00fd
:103a2000cc0007006400e100440032006408e100bb
:103a30004a0032006100e100460032006108e10006
:103a400049003200ec0647006000b8003d02be00ad
:103a50003d03be00f48657006011b8003d04be006f
:103a60003d05be007d0320000b0037000000a000d4
:103a70008d06e900130032000402420085824a00ec
:103a800006034b0087834b00000040008180480004
:103a900002014900838149000802520089825a00cc
:103aa0000a035b008b835b00f0ff3b0008024200cf
:103ab00089824a000a034b008b834b008d06e90084
:103ac000edff3a008482720086827200f707b2002e
:103ad0008782720001003200150020001e04900051
:103ae0003e0b900006035400e63fb0000368a300bd
:103af000070032000000a7000500a0008301d100ec
:103b00000281d3008180d3000080d3000603e80047
:103b10008301d1000281d3008180d3000080d300d3
:103b20000002eb000482d2005701070003f0a1005d
:103b30000cf0a70003f0a0009a00370064024700d1
:103b40006408e100940032003400be003401be007d
:103b5000f6ff37006108e1008f0032006011b80005
:103b60006000b800f1ff370003ff270002002000cb
:103b7000fbff3700020ab900001bb9000200b800c1
:103b8000810042008100430000000600889fbe00c3
:103b90008a9fbe008c9fbe000404b8000506b800d2
:103ba0008904460060854e000606b8000a054600f6
:103bb000e0854e000706b8008b054600040eb800ed
:103bc000890446000a854e00e0854d00050eb800c8
:103bd0000a0546008b854e00060eb8008b05460090
:103be0000416b8000a0546008b854e000516b8007d
:103bf0008b054600041eb8008b0546000800be0079
:103c00000a01be004f06be004f05be004f04be00b5
:103c100000000600889fbe008a9fbe008c9fbe00e9
:103c20000404be000605be00809fbe00829fbe0049
:103c300041010700040678000800be000a01be002a
:103c40003d010700840678004f03be004f02be000e
:103c50008d4f76007fb0970013003300f0ff2f00e8
:103c60008b8f6b0006003b000d0666000c00a70062
:103c70000a00370007f0a600100020000a003700f5
:103c8000880f5200898f5a008a0f5b008b8f5b0070
:103c9000030039001000200001003e000000200059
:103ca00007f0a7000000ea004f06be004f05be0067
:103cb0004f04be0000000600800078005002be00e5
:103cc0005003be004439de00f700b200f37f20004d
:103cd00003016100090032000218e10016003a00f9
:103ce0008501720083017300838173000008200046
:103cf00015003a00400020001300370085017200d3
:103d0000830173008381730005003a0004a8be009c
:103d100006a8be00100020000b0037000201e900d9
:103d20000402420085824a0006034b0087834b0051
:103d30000748a300f9ff32000740a00004a8be0016
:103d400006a8be0020002000800098009200980085
:103d500000000600680447000294be000094be0004
:103d6000fc0447008694be008494be0009007800dd
:103d7000d1ff070008007800cfff07009900780006
:103d8000814f70000b003b000800be00fc000700e4
:103d90004f00b10003003700f3ff2700f2ff2f00b0
:103da0006110b9004f06be004f05be004f04be00b3
:103db0000080fa0000000600889fbe00830478009f
:103dc0000300e0002c00350003003c00008270007e
:103dd000040271002600320036432000c500200096
:103de0008383cf000a0039000541b1008283cf00f0
:103df000070039000541b1008183cf00040039007c
:103e00000541b1008083cf00010039000541b100b8
:103e100085c353006022b800120032000a003b0044
:103e200084827200610260008301d1000281d300ac
:103e30008180d3000080d3000603e8008743e800b8
:103e4000f7ff3a000700370000004000818048007b
:103e500002014900838149000603e9008743e90024
:103e6000f9ff3a008800070009f0a70003f0a0005e
:103e70004f04be000000060060001000e080180043
:103e800060011900e0811900d3ff3b00033e2c00c4
:103e9000f7ff37002800fa00889fbe008a9fbe0007
:103ea0008c9fbe0007067800878669000c003b00e7
:103eb000030478008704780008f0a10009f0a1004d
:103ec000840f5000858f5800860f5900890f5c00c1
:103ed000030033000cf0a20001003a000cf0a10036
:103ee0009cff07006400e1005f003200780147009a
:103ef0006408e100610032006c01470074855700de
:103f00003200be001201be003a04be001a05be0017
:103f10001e039000be0a90008503530006003d007a
:103f20000004fd008104fd000205fd008305fd0085
:103f30008703ea00050378000df8a30004003200af
:103f400060041400e0841c0060051d00e0851d0075
:103f50006022b8007d0320000d38e1008006eb00f0
:103f60000b0039004433dd00f300b200830173001d
:103f700039003700848272000d027800e106640087
:103f80008b85d1000a85d3008984d3000884d300af
:103f90008703e900f7ff3b000800400089804800e4
:103fa0000a0149008b81490004003b0060001000b9
:103fb000e080180060011900e08119000358a30097
:103fc000090032008d8272008482720061026000fa
:103fd0008301d1000281d3008180d3000080d3000f
:103fe0000603e8001b0037000348a30017003a004f
:103ff0000600e000170034000603e9000d00a300ee
:104000000000480081804800020149008381490086
:104010000348a3000f003a000600e0000900340046
:104020000603e900000040008180480002014900c9
:104030008381490001003a000003eb000348a3001c
:10404000f5ff32006022b80002003700848272005f
:10405000618266000c00070003f0a1000cf0a700cd
:1040600003f0a0004fff3700640147006408e1003f
:1040700002003a000df8a30047ff3a003200be00ec
:104080001201be0047ff3700180020005700200033
:10409000080453000d003d000600200097fc2f008f
:1040a0000740e1001e00340084827200610260005b
:1040b0008301d1000281d3008180d3000080d3002e
:1040c0000804e800f8ff3a0047002000610460009f
:1040d00005047400040464000d0032006100400017
:1040e000e080480060014900e081490003b8a50074
:1040f000070032000603e8006538e10004003a00da
:104100008301d1000281d3008180d3000080d300dd
:10411000f87f20000830e100030035000803780034
:104120006000b8006011b8004433dd00f300b20055
:10413000830173000000060005ff2700058261006f
:10414000070032000428e1000100320024000500cd
:104150000600070001003a004400050004080500bd
:1041600002000700f9ff3a00140005006f826100a9
:104170008102700085027100850272000000060055
:10418000e48240001078a30007003200640240007f
:104190001178a3003400be001401be0004003200f8
:1041a0000330a700000006003500be001501be0068
:1041b0000330a000000006000000fa00e6c2bf00c5
:1041c0000080fb004600de00614060000081fb00d3
:1041d000e7c2bf000080fb000000d100614060002a
:1041e0000080fb000000400080007800e7c2bf00b4
:1041f000614060000080fb00008040000000400043
:1042000080007800e6c2bf000080fb004700de00af
:104210000080fb00008040000000400000004100e2
:104220000080fa00000006002a00fa00e2ff070002
:1042300070079800b71a0700690d0700e010070023
:104240008a1a07000000eb00600798007e009000cb
:104250006101b9002217980033179800d0002000a0
:10426000010020002e119000be119000800f51001f
:10427000818f5900dd003e002e109000be1090008e
:10428000006001000d0037000e0037000f003700fe
:1042900010003700110037003b0037007400370072
:1042a0007a0037007d003700830037009600370022
:1042b000a6003700b5003700c3003700f10f070034
:1042c000cc003700360f0700ca003700580407003b
:1042d000c8003700af100700c60037006063280031
:1042e000cd1807008a120700fe1207008513070089
:1042f00076140700c4e2a80000652800c61807006d
:104300000000eb0050079800040037000000000098
:104310005e0090000000e80050079800de0090006a
:10432000301f2000808f5000f8ff34000066280006
:10433000b9180700b0662800b71807001000200061
:10434000400798007003200030079800be009000de
:104350004e009000181d0700200798002e009000c6
:10436000c81807002e009000cf80de0093160700cb
:10437000341707000000e000fdff3200406828000d
:10438000a5180700dcff370080692800a218070085
:104390005f120700d31207005a1307004b140700df
:1043a000506b28009c18070070004700f9130700a5
:1043b00070004700f0009000110798001e00900068
:1043c0000000e000f8ff3a00906d28009218070006
:1043d000700047001000be00000f780000022000af
:1043e0000e0040009e007800d21c0700106f2800cd
:1043f000891807001e007800a21807000e10900010
:10440000a01807001e1090009e18070076090700ec
:10441000ee00900070002800808060004117980036
:104420004e1190000200e0000a003d00ce11900005
:104430008301e9004317980080ff2f00ce10900001
:1044400080807000411798004e1190000201e80032
:10445000421798004e10900011002000b707070087
:104460006e0090000000e80060079800ccff370065
:104470007070280068180700c542a80011002000cd
:1044800010002000001d0700ffff370010732800f8
:10449000611807004e1d0700ffff3700f075280068
:1044a0005d180700c542a8008000eb001000200046
:1044b000f51c0700ffff3700207928005618070079
:1044c000c4e2a800100020002a1907009006070087
:1044d0000f120700831207000a130700fb130700df
:1044e00081bb2000a03d25009e060700411f200043
:1044f00020b725009b060700310120000000eb00db
:1045000049190700ffff3700607b280042180700a9
:1045100010002000171907007d0607007112070020
:10452000f8120700e91307007f1d0700909f800025
:10453000e20f5000fdff3400807d28003618070090
:104540000000eb000d2f0700ffff3700d07e280092
:10455000311807000000eb00061907006c06070081
:10456000c4e2a80000242400f1002000f1050700a7
:10457000c4e2a900807d2800271807000000eb0096
:10458000fe2e0700d042a800ffff370070812800f0
:104590002118070010002000f61807005c0607002d
:1045a000c4e2a80000242400f1002000e105070077
:1045b000c4e2a900807d2800171807000000eb0066
:1045c000ee2e0700ffff3700510607000000eb004a
:1045d000e81807000000eb00b09f8800c4e2a800c4
:1045e0002331070010002000e42e0700d042a8006d
:1045f000ffff37000000eb000080fa00000006001b
:104600000400fa00008fbe0002002000a34724002f
:104610001e00be00b8f8070042df2f0043d523007c
:10462000b5f8070002fd200093042400b2f807004b
:1046300032eb2200f3f42300e3f8070024f907002b
:104640002bf907000080fa00000006000400fa00c1
:10465000008fbe0002fd2000930424001e00be0057
:10466000a5f807000200200043332400d6f8070015
:104670000080fa00000006000200fa00000f780037
:10468000803e20009e0f100002003400803e20007b
:10469000000f780080c12f009e0f100002003d0027
:1046a00080c12f00000f78001e0078000080fa0003
:1046b000000006000600fa00000f780011079800bd
:1046c0001e009000ecff0700100798001e00780005
:1046d000200798002e0090000000e0000400320047
:1046e0002e009000e10f50000a0032001100370048
:1046f000d19f80001e009000808f50000d0032007e
:104700001e0090003f0c07001e009000d09f880004
:1047100008003700e19f80001e009000808f50004d
:10472000040032001e009000730c07001e00900071
:10473000e09f88000080fa00000006000400fa00f4
:10474000000f7800110798009e0078000000eb0031
:10475000d8ff07009e00900010002000d5ff070042
:104760000080fa00000006000400fa00000f780044
:10477000bf0c07009e0f500006003d00c60c07004e
:104780009e0f500003003d000000eb001007980052
:104790000200370010002000100798001e00900053
:1047a0000080fa00000006000200fa00000f780006
:1047b000af0c07009e0f500003003d00b60c070031
:1047c0009e0f5000faff35000080fa00000006003e
:1047d0000000fa000000eb00a90c07000000eb004d
:1047e000b10c07000080fa00000006000200fa0089
:1047f000000f7800f6ff0700411f2000c0e02f00e7
:10480000ceff07001e007800e7ff07000080fa00d7
:10481000000006000200fa00000f7800ecff07001d
:10482000c1e02f00401f2000c4ff07001e007800d9
:10483000ddff07000080fa00000006000200fa0019
:10484000000f78001e007800cf80de00c9f8070056
:10485000c2962000d306240027f80700a4f807001a
:10486000ecff07000080fa00000006000e00fa00ce
:104870001007980021079800320798004307980016
:1048800054079800d2ff0700ce0090003e00900031
:10489000008f50001e009000600798006e0090008e
:1048a0000000e000100032006e009000e10f5000a8
:1048b00001003200170037001e00e00005003d0037
:1048c0005e0090009e0050000000eb0079ff0700a2
:1048d000100037005e0090009e0050001000200085
:1048e00074ff07000b0037001e00e00005003d00cc
:1048f0005e0090009e005000100020006dff070039
:10490000040037005e0090009e0050000000eb00a5
:1049100068ff07000080fa00000006000400fa00ab
:10492000000f780011079800a9ff07009e0078008b
:104930001e00780081ff07001e0090009aff07000c
:104940000080fa00000006000600fa001007980038
:10495000d0142000000f7800208428002e170700b4
:104960001e007800471707001e00900020079800df
:104970002e0090000000e000070032002e009000a2
:10498000e10f500001003200050037001e007800e2
:10499000a0ff0700020037001e00780093ff070009
:1049a0008000eb000000eb0064ff070088ff0700b9
:1049b0000080fa00000006000000fa000000370046
:1049c00006c2bf00614060000004e000fcff3a0046
:1049d00006c2bf00644060000004e000f8ff3a0037
:1049e00006c2bf00684060000004e000f4ff3a0027
:1049f00006c2bf00704060000004e000f0ff3a0013
:104a000009c2bf000044b2000004e000ecff3a001d
:104a10000080fa00000006000400fa00600920008f
:104a20002010880007e2a90007e2a80085c0a900bd
:104a300085a0a900b10920009140780080cfb30083
:104a400000c060005040b3009be0b7008da0a900fb
:104a50000071220001002000008fbe00040037001a
:104a60000080eb008080eb001e0f40005e97480046
:104a70001e00be00e00f5000e08f5800f8ff3a0023
:104a8000100020000080fa00000006000000fa007c
:104a900007e2a90085c0a90085a0a9008dc0a900d2
:104aa0008da0a900100020000080fa000000060080
:104ab0000400fa006000b800008fbe0007e2a90001
:104ac00085c0a90085a0a9008da0a9000000eb0069
:104ad000401088000071220001002000008fbe00fd
:104ae000040037000080eb008080eb001e0f4000c8
:104af0005e9748001e00be00e00f5000e08f580097
:104b0000f8ff3a00c4ff07000f0007000071220001
:104b100001002000008fbe00040037000080eb0081
:104b20008080eb001e0f40005e9748001e00be0014
:104b3000e00f5000e08f5800f8ff3a00100020000e
:104b40000080fa00000006000000fa0085c0a900fd
:104b50008dc0a800100020000080fa0000000600b0
:104b60000000fa0085c0a9008dc0a9001000200037
:104b70000080fa00000006000600fa0010c0b30032
:104b8000a8f4b70008c2bf00704060000004e00055
:104b9000160032000602a800007122000100200069
:104ba000008fbe000a003700a8d4bf000004e00058
:104bb00003003a0010002000200798000d00370085
:104bc0000080eb008080eb001e0f40005e974800e5
:104bd0001e00be00e00f5000e08f5800f2ff3a00c8
:104be0008000eb0021079800020037000000eb0076
:104bf000200798002e0090000080fa0000000600b8
:104c00000600fa0060c0b300a8f4b70008c2bf00f5
:104c1000684060000004e000160032000622a80090
:104c20000071220001002000008fbe000a00370042
:104c3000a8d4bf000004e00003003a0010002000e8
:104c4000200798000d0037000080eb008080eb000b
:104c50001e0f40005e9748001e00be00e00f50008f
:104c6000e08f5800f2ff3a008000eb002107980027
:104c7000020037000000eb00200798002e00900093
:104c80000080fa00000006000600fa0050c0b300e1
:104c9000a8f4b7000642a80000712200010020001d
:104ca000008fbe000a003700a8d4bf000004e00057
:104cb00003003a0010002000200798000a00370087
:104cc0000080eb008080eb001e0f40005e974800e4
:104cd0001e00be00e00f5000e08f5800f2ff3a00c7
:104ce0008000eb00210798002e0090000080fa0061
:104cf000000006000600fa0030c0b300a8f4b700b8
:104d000006c2bf00614060000004e00010003a00ed
:104d100006c2bf00644060000004e0000c003a00de
:104d200006c2bf00684060000004e00008003a00ce
:104d300006c2bf00704060000004e00004003a00ba
:104d400006c2bf00624060000004e00003003200c1
:104d50000000eb00200798001600370006a2a9000b
:104d60000682a8000071220001002000008fbe0012
:104d70000a003700a8d4bf000004e00003003a0096
:104d800011002000210798000a0037000080eb0086
:104d90008080eb001e0f40005e9748001e00be00a2
:104da000e00f5000e08f5800f2ff3a008000eb0067
:104db000210798002e0090000080fa0000000600f5
:104dc0000600fa0030c0b300a8f4b70006c2bf0066
:104dd000614060000004e00010003a0006c2bf001d
:104de000644060000004e0000c003a0006c2bf000e
:104df000684060000004e00008003a0006c2bf00fe
:104e0000704060000004e00004003a0006c2bf00e9
:104e1000624060000004e000030032000000eb008c
:104e2000200798001600370006a2a8000682a800f6
:104e30000071220001002000008fbe000a00370030
:104e4000a8d4bf000004e00003003a0011002000d5
:104e5000210798000a0037000080eb008080eb00fb
:104e60001e0f40005e9748001e00be00e00f50007d
:104e7000e08f5800f2ff3a008000eb002107980015
:104e80002e0090000080fa00000006000a00fa00e0
:104e900030079800007122000100200010079800e0
:104ea000210798000040eb00004f780040c0b3009d
:104eb000a8f4b7000071220001002000100798003c
:104ec000210798001d00370006c2bf006140600046
:104ed0000004e00013003a0006c2bf006440600016
:104ee0000004e0000f003a0006c2bf006840600006
:104ef0000004e0000b003a0006c2bf0070406000f2
:104f00000004e00007003a0009c2bf000044b200fc
:104f10000004e00003003a0010c0b300004f780026
:104f20000b0037001e009000ae00900061005000a2
:104f3000e080580010079800210798001e0090009c
:104f4000ae009000e00f5000e08f5800deff3a0006
:104f50001e04e00003003a000000eb004007980048
:104f60001d0037000662a800006a2800110020001a
:104f7000100798002107980010003700a8d4bf0040
:104f80000004e00007003a0000c2bf008040780043
:104f90003e00900001487800100020004007980073
:104fa0000d0037001e009000ae0090006100500020
:104fb000e080580010079800210798001e0090001c
:104fc000ae009000e00f5000e08f5800ebff3a0079
:104fd0000000eb00400798004e0090000080fa00af
:104fe000000006000800fa004047980020c0b30007
:104ff000a8f4b7004e40900002e2b7000071220012
:1050000001002000008fbe000a003700a8d4bf00b6
:105010000004e00003003a00100020003007980070
:105020000a0037000080eb008080eb001e0f40007c
:105030005e9748001e00be00e00f5000e08f580051
:10504000f2ff3a008000eb00310798003e0090002c
:105050000080fa0000000600801f78003400f8008d
:1050600010c0b300a00188000000fa0085c0a900ac
:105070000040eb00a8f4b7000080fa003400f9000b
:105080004f007800004006000000fa0062fe0700b2
:105090000080fa00000006000000fa007bfe070016
:1050a0000080fa00000006000000fa00a6fe0700db
:1050b0000080fa00000006000000fa00a8fe0700c9
:1050c0000080fa00000006000400fa002047980063
:1050d000314798000040eb00004f7800180037007f
:1050e00010c0b300004f7800a3fe07001e4f600001
:1050f0002e409000bbff07001e4f60003e40900016
:10510000b8ff07001e4f6000bdfe07001e4f600085
:105110002e4090000040e800b2ff07001e4f6000e4
:105120000e00e80059ff07001e4f600024ff070033
:10513000d5fe07001e04e00003003a005cfe0700f5
:105140001e04e000e6ff32001e4090000000fb005d
:105150000080fa00000006000600fa0020479800d0
:1051600031479800424798000040eb00004f78001c
:105170001200370010c0b300004f78007efe070019
:105180001e4f60002e40900096ff07001e4f6000eb
:105190003e40900093ff07001e4f60004e4090007d
:1051a00090ff07001e4f6000b7fe07001e4f600013
:1051b0001e04e00003003a003dfe07001e04e0006c
:1051c000ecff32001e00fb000080fa000000060029
:1051d0003200fa00c0122000000f9800803e20002c
:1051e0007007980080c12f0060079800f600470004
:1051f0007000200080087800f60047006000200062
:1052000090009800f600470050002000a000980091
:10521000f60047000000eb00b0009800f6004700e1
:1052200010002000c0009800f60047002000200079
:10523000d0009800210220008e8040003000200025
:1052400080087800210220008e804000200020008d
:1052500090009800210220008e8040001000200065
:10526000a0009800210220008e8040003000200025
:10527000b0009800210220008e8040002000200015
:10528000c0009800210220008e8040001000200005
:10529000d00098000000eb00701798000000eb00b1
:1052a000001f98000000eb00200f98003700370027
:1052b0000000eb00100f9800220037002e0890002d
:1052c0001e099000f60147006300b900020040008b
:1052d0000000400060807900750e070010079800fc
:1052e0002e0890001e099000230220008e814100ac
:1052f0006300b9000200400000004000608f7900a8
:10530000ae0990002e089000000040000e00400002
:10531000e002b000100178009e0090001e007800ae
:105320000088b90080004100038041000e00400069
:10533000e002b000010878001e0890000000e800bc
:10534000100f98001e089000e20f5000dbff36009f
:105350002e0990002e089000000040000e00400032
:10536000e002b000900078000e08900080804000bd
:10537000020041000e004000e002b0000108780089
:105380002e0890000000e800200f98002e089000e2
:10539000e10f5000c6ff36007e10900050079800c5
:1053a0000e189000400798005e00900030079800ab
:1053b0004e00900020079800ae0090007e00900004
:1053c000808f5000020034007e009000200798007b
:1053d000ae0090006e009000808f500002003d00f3
:1053e0006e00900020079800be0090007e009000a4
:1053f000808f5000020034007e009000300798003b
:10540000be0090006e009000808f500002003d00b2
:105410006e009000300798002e009000f9080700f9
:105420003e009000340907000080fa0000000600ea
:105430000000fa0037160700e90807000b160700fe
:105440005f0c0700320e0700a1282000808e22008a
:10545000c4020700ae020700ffff37000400fa0095
:10546000004f780011479800224798000eff070070
:105470002e4190009e4090001e40780036ff0700ad
:105480000dff07000080fa00000006000400fa008b
:10549000204798003147980003ff0700be40900066
:1054a0002e40900008ff0700004f780002ff070021
:1054b0001e80fb000080fa00000006000a00fa00cf
:1054c0004047980031079800024f9800134f98000a
:1054d0000040eb00204798000000eb00000f780030
:1054e0004400370010c0b30020479800a2fd070019
:1054f000804078002e4090000140600020479800d6
:105500004e409000b7fe0700804078002e4090008b
:10551000014060002047980001c8b3000e48900089
:1055200000c07000affe0700804078002e40900061
:105530000140600020479800b1fd070080407800de
:105540002e40900001406000204798004e4090009f
:105550000040e800a3fe0700804078002e40900045
:1055600001406000204798000000eb00000f780029
:10557000170037009e0078003e0090000080400039
:1055800042fe0700804078002e40900001406000fd
:10559000204798001e4890000080fb000000e900b2
:1055a0009e0f500005003a0005fe0700ae40900037
:1055b00000c060002047980004003700cdfd0700c0
:1055c000ae40900000c06000204798001e0fe80029
:1055d0001e4890000080fb009e0f5000e5ff3e003b
:1055e000a9fd07002e4090000004e00004003a00ee
:1055f0002ffd07002e4090000004e000b9ff3200ac
:105600002e4090000000fb000080fa000000060021
:105610000000fa00a4fe0700f2c9b30001c2b30003
:10562000c0c3b300ccfe070002c5b30051c2b30033
:10563000c0c3b300c8fe0700f2ccb30001c2b30080
:1056400040cdb300c4fe070002c2b30011c2b300d4
:1056500040cdb300c0fe07000041eb0031c2b300f3
:1056600040cdb300bcfe070093fe07000080fa00a7
:10567000000006000200fa00000f78008afe070012
:1056800063c0b30082c2b3009e007800c0c3b30001
:105690008aff070088fe07000080fa00000006006d
:1056a0000c00fa0030079800410798005207980054
:1056b0007dfe070063c0b30082c2b3008e00780095
:1056c000c0c3b3007dff07007bfe07001e409000b3
:1056d0000080fb000000400000004000000040008f
:1056e00000004000000040000000400000004000ba
:1056f00000004000800078001e4078000080fb0021
:10570000808040003e009000010878003e409000fc
:105710000080fb000000400000004000000040004e
:105720000000400000004000000040000000400079
:1057300000004000800078002e4090000080fb00b8
:10574000808040004e009000010878005e4090008c
:105750000080fb000000400000004000000040000e
:105760000000400000004000000040000000400039
:1057700000004000800078004e4090000080fb0058
:10578000808040005e009000010878000080fa00f0
:10579000000006000200fa0043fe07008e007800b9
:1057a00023c0b30082c2b300c0c3b30043ff0700ed
:1057b00041fe07001e4090000000fb00000040007a
:1057c00000004000000040000000400000004000d9
:1057d0000000400000004000000040008000780011
:1057e0001e4078000000fb00008040000080fa00ae
:1057f000000006000200fa002bfe07008e00780071
:1058000023c0b300a2c2b300c0c3b3002bff070084
:1058100029fe07001e4090000000fb000000400031
:105820000000400000004000000040000000400078
:1058300000004000000040000000400080007800b0
:105840001e4078000000fb00008040000080fa004d
:10585000000006000200fa0013fe07008e00780028
:1058600023c0b300c2c2b300c0c3b30013ff07001c
:1058700011fe07001e4090000000fb0000004000e9
:105880000000400000004000000040000000400018
:105890000000400000004000000040008000780050
:1058a0001e4078000000fb00008040000080fa00ed
:1058b000000006000200fa00000f7800fafd070061
:1058c00063c0b30082c2b3009e00780040cdb30035
:1058d000fafe0700f8fd07000080fa00000006004d
:1058e0000c00fa0030079800410798005207980012
:1058f000edfd070063c0b30082c2b3008e007800e4
:1059000040cdb300edfe0700ebfd07001e40900008
:105910000080fb000000400000004000000040004c
:105920000000400000004000000040000000400077
:1059300000004000800078001e4078000080fb00de
:105940008080400080a58000808050003e00900054
:10595000010878003e4090000080fb0000004000fd
:105960000000400000004000000040000000400037
:10597000000040000000400000004000800078006f
:105980002e4090000080fb008080400090a58000a9
:10599000808050004e009000010878005e4090002a
:1059a0000080fb00000040000000400000004000bc
:1059b00000004000000040000000400000004000e7
:1059c00000004000800078004e4090000080fb0006
:1059d00080804000a0a58000808050005e00900084
:1059e000010878000080fa00000006000200fa00ba
:1059f000adfd07008e00780023c0b30082c2b30063
:105a000040cdb300adfe0700abfd07001e40900087
:105a10000000fb00000040000000400000004000cb
:105a20000000400000004000000040000000400076
:105a300000004000800078001e4078000000fb005d
:105a40008080400080a58000008050000080fa0027
:105a5000000006000200fa0093fd07008e007800a7
:105a600023c0b300a2c2b30040cdb30093fe070031
:105a700091fd07001e4090000000fb000000400068
:105a80000000400000004000000040000000400016
:105a9000000040000000400000004000800078004e
:105aa0001e4078000000fb008080400090a5800030
:105ab000008050000080fa00000006000200fa009a
:105ac00079fd07008e00780023c0b300c2c2b30086
:105ad00040cdb30079fe070077fd07001e4090001f
:105ae0000000fb00000040000000400000004000fb
:105af00000004000000040000000400000004000a6
:105b000000004000800078001e4078000000fb008c
:105b100080804000a0a58000008050000080fa0036
:105b2000000006000000fa0061c2b30040cdb300df
:105b300056fe07000000fb000080fa00000006008f
:105b40001000fa0070079800e80047000000eb0022
:105b500080087800e80047000000eb009000980003
:105b6000e80047000000eb00a00098000000eb00f8
:105b7000000f78000000eb00000f780042003700b3
:105b80000e80e8004bff0700680047001001780016
:105b90000e80e800104090000080fb0000004000f4
:105ba00000004000000040000000400000004000f5
:105bb000000040000000400000004000800078002d
:105bc0000e80e800104078000080fb00008040005c
:105bd0008000410068004700010878006800470025
:105be000100190000e80e800304090000080fb0023
:105bf00000004000000040000000400000004000a5
:105c00000000400000004000000040000000400094
:105c1000800078000e80e800204090000080fb00ab
:105c2000008040008000410068004700110098009b
:105c300068004700200190000e80e800504090006e
:105c40000080fb0000004000000040000000400019
:105c50000000400000004000000040000000400044
:105c600000004000800078000e80e8004040900076
:105c70000080fb0000804000800041006800470079
:105c8000210098001e0fe8007e0090009e0f10007b
:105c9000bbff350068004700100078007e019000cf
:105ca000110009000200d80080a5880068004700a4
:105cb000100090007e019000110009000200d80041
:105cc00090a5880068004700200090007e019000a9
