:020000040000fa
:080000000401040000000000ef
:020000040000fa
:1002000084010400000000002fb620008079220045
:100210000001880000000000050007000c00070036
:1002200076120200000000000040da000000fe002c
:100230004440a900c02820000000e0000300320074
:1002400000002000a00188004440a8000000060033
:10025000e027230001002000160037006200400064
:10026000e0804800910188009001ba0062004000df
:10027000e0804800910188009002ba0062004000ce
:10028000e08048000002eb006028e10005003a0031
:100290008301e90007003300038009000059eb00e7
:1002a000040037006128e100010032000082eb0009
:1002b00005000700910188001001ba000200e0006b
:1002c000e6ff3a00000005009101880080027800f6
:1002d00062004000e08048003559ba008301e9001f
:1002e000080032002559ba008301e90005003200f8
:1002f0000400e000f4ff320015d9ba008301e900e0
:10030000f1ff3a0000000600881f78000204780020
:100310001b000700080040004f04780000000600a2
:100320000000fa00881f7800000478003fb99700a9
:10033000ea8157008000780040182000190007006b
:10034000800078000000e000020035000040eb0073
:1003500080707c00010078004f0478000080fa0073
:100360000000060080007800010037000000e8006f
:100370001004e000fdff3a000100500000000600fc
:10038000000278008001780001003700b159780040
:1003900002004200808f5100fcff3a000400780008
:1003a000000006006200fa00889fbe008a9fbe001f
:1003b0000004be00020578008300780060f92f0079
:1003c0000f004000af00070088979f0099979f009b
:1003d0000000eb00a09f9f009a4578000b80fb0077
:1003e0000000ea00cf04de000904e90050c2b300b7
:1003f00080cf550001003200090478000800e000b9
:100400000b003400080178008a0078001f909700e4
:100410008f9197000300010090979f000000e0007b
:10042000930032002f98970008004000a09f9f0083
:100430000905450050c2b30080cf550004003200ca
:100440000b04e000e4ff3a002f9897008900370082
:100450000000eb00809f9f00f0979f00e0979f00b7
:10046000d0979f00c0979f00b0979f00c09f9f00ac
:100470000900370000b32000008050000000400059
:1004800041b22000e08078004f9897000100700092
:10049000c09f9f000a05e8001a4478008800fb000e
:1004a00000b320007c000700800078000000e0001e
:1004b000f0ff3a00a0c2b300804f54000e003a0093
:1004c000bf8897000180e900b08f9f0090007800fe
:1004d000b19f9f000100e00005003d000100ea001f
:1004e000b09f9f004f9897000020a000c09f9f00e2
:1004f0000a05e80010003700b19f9f00090037008f
:10050000bf989700f0ff2700808f50000400320052
:100510006a08b9000000410003004000b09f9f003e
:100520000a05e8001a01fb0003fd2f00030041004b
:10053000e90f5000f2ff3600e0c2b3009a4f1000fe
:10054000040032000080eb00909f9f008a04780036
:100550001c0037008a04e800a0c2b300994f1000c5
:1005600007003a00bf8897000180e900b08f9f0024
:1005700010007800909f9f008a84e80011003700e7
:100580000000eb00909f9f00090037009f989700a4
:10059000f0ff2700808f5000040032006a08b90085
:1005a0000000410003004000909f9f008904e80084
:1005b0001901fb0003fd2f0003004100e90f50006b
:1005c000f2ff3600194478008800fb00a0b5200037
:1005d000310007000000e00002003a00004478000b
:1005e000010037008904e800a87f9f0080c6b3009f
:1005f000804f540004003a0066405000994f1400a8
:100600000700320008003700c0c6b300804f540016
:1006100005003a00994f140003003a00654040007d
:10062000a07f9f008904e8000905e800c8fb2f00af
:100630000f04440060f92f000f0040008085e8009f
:10064000880178001901fb00800078000b00780019
:10065000190007000000e00005003a00880078005b
:100660000b0078005e0107000000e0005aff3d002b
:100670000080eb004f05be004f04be000080fa0072
:10068000000006000200fa00f1bf9f000108780098
:100690000080fa0000000600040037001004e000ab
:1006a00001003a00000005000000e80090cf1000b3
:1006b000faff3a0000000600889fbe008a1f7800fb
:1006c0000004780001027800824478000305780075
:1006d000e0c6b300804f5100d700320015003c0047
:1006e0006b405000804f5100240032000a003c0053
:1006f00070405000804f51001401320065404000ae
:10070000804f51007600320050c2b300804f51003c
:1007100027013a002301370040c6b300804f510043
:100720001b00320065404000804f510020013a001c
:100730001700370030c7b300804f5100030132006b
:1007400007003c0064405000804f510064003200bc
:100750000040e800804f510015013a00ec003700de
:1007600050c7b300804f51005d003200634040002d
:10077000804f51000e013a00590037009180e90086
:10078000010a78007800900011f079000e0137001e
:1007900028619000c0c6b300804f51000a003a00a3
:1007a0001400780064015000020a78001200be00b4
:1007b0004f88de00cf80de001202be00000378000a
:1007c000800378001500370010c7b300804f510038
:1007d00002003a009400780004003700940078008a
:1007e000a0c6b300804f510005003a006880500059
:1007f000000a78003002be002003be000700370068
:100800000180e900000a78001000780000027800fa
:10081000cfa2de000503780086037800049cbe00aa
:100820000694be00a860900080c6b30080cf500040
:100830000e00320020c6b30080cf500005003a0001
:100840000400fb00cf80de00010178008201780007
:100850000a00370040c7b30080cf500003003200c9
:100860006640400080cf500006003a000400780047
:10087000cf80de000101780082017800009cbe007c
:100880000294be003800be002801be00e00f5000f8
:10089000e08f5800e00f5900e08f590003003d0041
:1008a00078009000d1c2b3000a0037000810900011
:1008b0000018a3000300320078009000b1c2b3001a
:1008c000040037000008a3005600320078009000b2
:1008d00001c2b30001707d000000e8005000370045
:1008e00028619000c0c6b300804f510007003a0055
:1008f0009400780064805000000a78001002be0066
:100900000003eb00860378001500370010c7b30022
:10091000804f510002003a00940078000400370034
:1009200094007800a0c6b300804f510005003a0043
:1009300068805000000a78003002be002003be002c
:10094000070037000180e900000a780010007800f5
:1009500000027800050020000600200007002000ab
:10096000049cbe000694be00a860900080c6b30040
:1009700080cf50000e00320020c6b30080cf500060
:1009800005003a000480fb00010020000200200066
:10099000030020000a00370040c7b30080cf50009a
:1009a000030032006640400080cf500006003a004d
:1009b0000400780001002000020020000300200055
:1009c000009cbe000294be00081090000038a300f6
:1009d000140032003800be002801be00e00f5000b5
:1009e000e08f5800e00f5900e08f59000d003200f1
:1009f00080c7b30080cf54000300320080c5b3002d
:100a000080cf540007003a007800900001c3b30083
:100a100001707d008000e80089707d000080e800a2
:100a20007004980078009000000045006004980071
:100a30008940780042003700a8609000c0c6b3002b
:100a400080cf5000250032000a003c006440500076
:100a500080cf50002800320000c0e80080cf500056
:100a6000140032006840500080cf500022003a004d
:100a70000a00370040c7b30080cf50001e0032008c
:100a80006640400080cf50001b003200694050009b
:100a900080cf500018003a00060037001480e900ab
:100aa000000a780010007800485c90000848780040
:100ab000470037001480e900000a7800100278002f
:100ac00068089000cf80de00010178008201780084
:100ad000009abe000292be003d0037001480e9007b
:100ae000000a78001001780068089000cf80de00ce
:100af0000089be00360037001480e900000a780043
:100b000010007800680c900008087800300037006a
:100b10001180e9008008780010007800cf80de00a6
:100b20000101780082017800009cbe000294be00a2
:100b300078009000000045006004980081c7b30071
:100b400008007800f0000700210037001480e90059
:100b5000000a78009001780063049800580990001a
:100b60000200e00003003d0003007800fdfd0700e7
:100b70000a0037008000eb000300780095010700b1
:100b8000800078000000e000030032006800900060
:100b9000008050000100370058089000100c9800a9
:100ba0000b0037007800900002707d0006003700cf
:100bb00078009000800045000904e00001003a0040
:100bc00059c2b300894878000000e800700498001a
:100bd0000000eb004f0578004f04be000000060047
:100be0000400fa00889fbe008a9fbe008c1f780018
:100bf000000478000106780070089000f80090006a
:100c000001005000880890000100500098089000f2
:100c100001005000a808900001005000b8089000a2
:100c200001005000c8089000810550000002220019
:100c3000a0bf9f000003230090bf9f0008109000fa
:100c40000028a30018003a000b00e0001600340052
:100c50008b04780009057800e28f5400020036000a
:100c60002a002000020037000900e0000b003400d9
:100c7000c80190000a017800ec80570058009000ed
:100c800003000100500498000000e00096003200cc
:100c9000680890000a004000600c98008a845400a4
:100ca0004240a900ebff3c00780190000200e00008
:100cb0000b003400c80190008c00780058009000b0
:100cc00003000100500498000000e000860032009c
:100cd00068089000f800900001004000600c980047
:100ce000880c90000900e000150034000905780028
:100cf000e28f5400020036002a0020000200370074
:100d00000900e0000b003400c80190000a017800df
:100d1000ee80570058009000030001005004980036
:100d20000000e00070003200680890000a004000f7
:100d3000600c98008a8454004240a900ebff3c00fc
:100d4000180990000200e0000b003400c801900078
:100d5000e800900058009000030001005004980043
:100d60000000e000600032006808900098089000e1
:100d700001004000600c9800a80c90000900e00001
:100d80001500340009057800e28f54000200360097
:100d90002a002000020037000900e0000b003400a8
:100da000c80190000a017800ee80570058009000ba
:100db00003000100500498000000e0004a003200e7
:100dc000680890000a004000600c98008a84540073
:100dd0004240a900ebff3c00380990000200e0000f
:100de0000d003400e800900018089000808040005a
:100df000c8019000580090000300010050049800c2
:100e00000000e0003800320068089000b808900048
:100e100001004000600c9800c80c90000900e00040
:100e20001500340009057800e28f540002003600f6
:100e30002a002000020037000900e0000b00340007
:100e4000c80190000a017800ee8057005800900019
:100e500003000100500498000000e000220032006e
:100e6000680890000a004000600c98008a845400d2
:100e70004240a900ebff3c00081090000028a300ae
:100e80001b0032000b00e000190034008b047800d6
:100e900009057800e28f5400020036002a00200085
:100ea000020037000900e0000b003400c801900088
:100eb0000a017800ec805700580090000300010000
:100ec000500498000000e00007003200680890001d
:100ed0000a004000600c98008a8454004240a90037
:100ee00003003400eaff37000080eb000100370008
:100ef0000000eb004f0678004f05be004f04be0017
:100f00000080fa00000006006f02b000889fbe005b
:100f10008a9fbe008c9fbe008e1f7800000678005e
:100f200070af200080bf9f0080c5b30080cf50000d
:100f30000700320082002000f2b79f0063ae20005d
:100f400083bf9f007740400080cf50000a003200ee
:100f500080c7b30080cf500005003200a4002000fd
:100f6000f4b79f0080c5b30080cf500002003a0064
:100f700000012000f0b79f003c04be002c05be001d
:100f800040c6b30080cf50000300320065404000ef
:100f900080cf50000b003a00e00f5400e08f5c005f
:100fa000e00f5d00e08f5d0006003d006000b800ce
:100fb0006011b80008045000898458000a055900df
:100fc0008b855900e00f5400e08f5c00e00f5d005e
:100fd000e08f5d0004003a005c0890008d01200065
:100fe0000000e0000c003200ffb097000102780022
:100ff000cfa2de0005037800860378000800be005b
:101000000a01be00400407000fba97006440780050
:10101000d0e79f007d0120007fb09700000278009c
:10102000cfa2de0005037800860378000800be002a
:101030000a01be002d040700009ebe000296be00fd
:101040000d00e900e1fc2f008f8040000087400088
:101050001a0037007fb1970002027800cfa2de00ad
:1010600005037800860378003c00be002c01be001a
:10107000290407000205be000004be008d06e90039
:10108000ffb1970003027800cfa2de0005037800cd
:10109000860378000800be000a01be00a70407000e
:1010a0003fb29700000052008fb8970060cf7800e1
:1010b000089ebe000a96be000e07e9003c00be0076
:1010c0002c01be00b0b79f00c1b79f00d2b79f00f0
:1010d000e3b79f00e00f5000e08f5800e00f590089
:1010e000e08f5900020034000d00e000d9ff3c0001
:1010f000ffb09700e88f500010003a000c109000ed
:101100000038a3000d003200f78f560006003e00a5
:10111000e2fc2f000d014100e2c07f0000c3b300dc
:1011200080cf5000050032008d06e90000c3b300f7
:10113000e3fc2f008d81410080f17f007881160053
:10114000120e98006c009000e3fc2f008f8141008c
:101150008d8041008afc07001c0990005c0890000b
:10116000800f510006003d0002005000000e980064
:101170000c1090000040a100001698000f003700ee
:101180000000e0000d003d000c10900074006000b5
:10119000f00f500009003a007c089000fc0090001d
:1011a000010050008c089000010050000200500027
:1011b0004240a90001003400000e98004f0778005b
:1011c0004f06be004f05be004f04be006f02b100c7
:1011d00000000600820178000400370090cf100064
:1011e000050032000000e8008301e9000300e00090
:1011f000faff3a000000eb0000000600889fbe00e6
:101200008a9fbe00010578000100e000040035005f
:1012100008003c000000e00020003200050037001c
:1012200060001000e080180002003b0001f02c007c
:101230001a0037000004be006011b8006b092000de
:101240000982cf00020039000882cf000441b000bb
:10125000694252000e00320008003b00828171009a
:10126000610164008904d1000884d3008b05e80083
:101270000442e800f9ff3a00050037000804440082
:1012800089844c008b05e9000442e900fbff3a0029
:101290005c0107000af0a70001f0a0004f05be00a6
:1012a0004f04be0000000600889fbe008a9fbe005b
:1012b0008c1f7800790107008001330003866c00e1
:1012c0006450e1002e0032006420e100330032005f
:1012d0006150e1002f0032006120e1003100320056
:1012e00085855500eb07b0000900200008042000a8
:1012f000050037000804440089844c000a003100ce
:101300000603430087834b000001530081815b008b
:10131000f8ff33000203be000800a00008044400e8
:1013200089844c00f6ff3900c639dd008301730063
:1013300001003200130020008904d1000884d3008a
:101340000998a300050032000800a7000300a000d0
:101350008904d1000884d3008b05e8008904d100fa
:101360000884d3000001eb000281d20025010700b0
:1013700001f0a1000cf0a70001f0a0005801370017
:101380006420e1005a0132000801be000200be00e4
:10139000f7ff37006120e100550132006000b8001e
:1013a000f3ff37000000200001f82700f0ff3700ae
:1013b0000001be00510107000470a70003f0a10066
:1013c00003f8a30013003a006509b10010003200d1
:1013d000090035006928e1000200350001002800fd
:1013e0000000050000004000818048008502e900ff
:1013f000fcff3a0000000600f88f420005003500af
:101400008100d1000080d3008502e800fcff3a0093
:10141000000006008000eb0000000500889fbe0071
:101420008a9fbe008c1f78001c0107002301330037
:1014300003866c006450e100240032006420e10067
:10144000270032006150e100220032006120e100fb
:10145000210032008b854200eb07b1000134b80057
:10146000003ab8000804420089844a00013ab800f2
:101470000030b8008880400009014a0004003300b1
:101480000000400081804800020149008b05e9000e
:10149000c909dd0083017000010032001300200043
:1014a000c814de004814dd004709de001200b20057
:1014b000c808de0008847000d200070001f0a10017
:1014c0000cf0a70001f0a000050137006120e10049
:1014d000070132000801be000200be00f7ff37001e
:1014e0006150e100fcff3a000101370003f0a20067
:1014f000889fbe008a9fbe008c1f7800e70007000f
:10150000ee0033006450e1004f0032006420e1003f
:101510005200320003826c0007003b000905d00036
:101520000306d000820f54000c065d000200390053
:101530000200320089017800030678008582550098
:1015400004003d000003fd008103fd008502ea0068
:101550008b854200840f720002003b006000100087
:10156000e08018006011b8000005eb007a28e10067
:101570000a00390006007800c75ddd00f707b200f9
:10158000878075002d003700828171000a01780084
:10159000610560008180d1000080d3008502e900f0
:1015a000f9ff3b00060440008784480002003b002e
:1015b00060041400e0841c000988a30007003200c6
:1015c0008a81710082817100610164008904d10007
:1015d0000884d3008b05e800170037000978a300c2
:1015e00013003a000b00e000130034008b05e90003
:1015f0000804440089844c000a4474000978a3005c
:101600000d003a000b00e000070034008b05e900f4
:101610000804440089844c0001003a000b002000bb
:101620000978a300f7ff32000001eb000200370049
:10163000828171000a017800720007000cf0a70097
:1016400001f0a000a60037006420e10002003a008b
:10165000838f6c00a60033000801be000200be00ac
:101660009f003700889fbe008a9fbe008c1f7800b5
:101670000004be00a10007000478a30026003a0081
:101680006120e1002500320009f8a30025003a009e
:101690006420e10021003200f507b1000508a30035
:1016a0000200320000004000818048006044b80021
:1016b000031020000200200000004000818048004c
:1016c0000805440089854c000a0541008b854900c6
:1016d0000a0550008b855800030033000a00be0045
:1016e00002047400838474008301d1000281d3005a
:1016f000830f7100f0ff3a008904d1000884d30001
:101700006001490082017800c1adde00fb07b00036
:101710003c000700720037000960a0000800be000e
:101720006f00370012022000c25a8800f0ff2f001d
:10173000f1ff27006a0037000001eb00840007007a
:10174000040032000200200003f8230001f0a7008b
:1017500066ff0700000006000001be0067000700ea
:101760000470a70003f0a1006509b1001600320063
:101770000d0035006828e10006003500f0ff2f005d
:10178000f1ff27000300e00013003b0001002800e8
:101790000000050000004000818048008502e9004b
:1017a000fcff3a0008003700f88f420002003c00be
:1017b0008000eb00000005008100d1000080d30014
:1017c0008502e800fcff3a000300e00002003b0055
:1017d00060001000e08018000000060032002000c9
:1017e0008200370014002000e7003700f4ff2f00cc
:1017f000e50037000001eb00fe0037000081eb0040
:10180000fc00370081002000618055000b003d0086
:101810000b00200061fe2f000100e1001d003400dc
:1018200082817100610164008904d1000884d300c1
:101830000000e800faff3a00710020006100640037
:1018400003007000020060000900320061044400df
:10185000e0844c000988a500050032008b05e800f3
:101860006808e10002003a008904d1000884d3002e
:10187000f20f20000258e10005003d00c75ddd00c9
:10188000f907b200898075000800780000000600a2
:101890000bf827008b007800000005000004be0054
:1018a000160007000003be000405be000200be00d3
:1018b00012000700844f7500000006000200be0001
:1018c0006450e100050036006420e10002003600ab
:1018d0000968a30001003a000800be000160a000f2
:1018e0004f0678004f05be004f04be000000060002
:1018f000f0ff2f00f1ff2700f9ff3700c70ade00d5
:10190000f107b200f50fb20008003200e1cf42004b
:10191000020032000170a00024000500810f700059
:10192000010032000408050044000500810f70002a
:1019300002003a00140005008502e90000004000a2
:1019400081c04800fcff3b000170a000240005009e
:10195000889fbe008a9fbe000003be00e7ff07000d
:101960008505780082815200020020006220e1009b
:1019700004003a00f307b100040035007718e100d5
:10198000040035000600be00140037006000b800f7
:101990000f003700f50f2000faff2f008502d1005d
:1019a0000a85d3008301e900fcff3b0081846200cb
:1019b00000046500890f7400f2ff32008582ea009e
:1019c0000a85ea0081846200000465008dff07003b
:1019d00007f0a70001f0a0000081eb000200e0008a
:1019e0004f05be004f04be0000000600889fbe00e9
:1019f0008a9fbe008c9fbe000206780001f0a700ff
:101a00000cf0a0000004be00bcff07000800be00f0
:101a10006420e1000700390002003a00f1ff2700ce
:101a2000f0ff2f000160a00012022000c25a8800bf
:101a30005100370009f0a1000800be00020020009c
:101a400003f8230069ff0700f4ff3c000800be0014
:101a5000020020000398230062ff07000800be0078
:101a6000300035000200200003f023005fff070074
:101a700005003c000800be000801be0067fe07002c
:101a80000005be000e0037000c10a2000000200070
:101a900001f823000801be0094fe070002002000a8
:101aa00003f023005dfe07000005be00edfe070009
:101ab0000200200003002c0058fe07000004be00b6
:101ac0000a00be00b2d02800130b2c0088fe0700cd
:101ad0000a01be0051fe0700020f2500330b24004f
:101ae00083fe0700809fbe000a00be00520622004f
:101af00013f02b0049fe0700b2662100f3f6230025
:101b00007bfe07000a01be0044fe07004f01be0035
:101b1000e5fd07000801be0040fe07000801be0009
:101b200073fe07000c00a70007003700b2fd20007d
:101b300093fc23000c10a7006dfe07000cf0a7001b
:101b400001f0a2000c0037000cf0a70002003700e3
:101b500001f0a20004003700b2fd2000930424002d
:101b60000c10a60003003700b2fd200093fc2300f8
:101b70000c10a7005efe07004f06be004f05be001a
:101b80004f04be0000000600889fbe008a9fbe0072
:101b9000841f780041ff07004f00780011003300d8
:101ba000f0ff2f00838f6c0006003b0004056500ea
:101bb0000a00a7000800370009f0a6001000200066
:101bc00008003700820f5400838f5c000300390047
:101bd0001000200001003e000000200009f0a700d6
:101be0000000ea004f05be004f04be000000e00008
:101bf00000000600889fbe008a9fbe008c9fbe002a
:101c0000820578000004be003cff07000800be000b
:101c10006420e1000700390002003a00f1ff2700cc
:101c2000f0ff2f000160a00012022000c25a8800bd
:101c3000550037006120e10003003a000b00a700c7
:101c400001f823005000370001f0a100020021003c
:101c500093642400e3fe07000800be000400350082
:101c6000b2fd2000930c24004b0007000004be00ce
:101c70000005eb000b00a6004f0dde0001f0a100f7
:101c80000004be0032982f0023ea2300e3fd070082
:101c90000001eb0003f023000b00a70003f8230072
:101ca00013fe0700acfe07000000a7000a00a20018
:101cb00052fd07000b00e00003003200020020008c
:101cc00003f0230009fe070001f0a2000006be0099
:101cd0000200200093042400d0fd07000801be008c
:101ce00003fe0700809fbe000c00be0022a22a0057
:101cf000d3a72300c9fd07004f01be00fcfd07006c
:101d00000004be0001f0a10002002000039823009f
:101d1000b4fe07000800be00190035000001be0037
:101d2000befd07000006be00b2c52900e362230025
:101d3000bafd070022222b00f3942b00ecfd0700d4
:101d40000c01be00b5fd0700e273280083c023002c
:101d5000e7fd07000c01be00b0fd070042aa2a0003
:101d6000a3e22b00e2fd07000c01be00abfd070063
:101d70000801be00a9fd07000801be00dcfd070048
:101d80000a00a70001f0a2004f06be004f05be00ea
:101d90004f04be00000006000400200000003700d1
:101da000889fbe008a9fbe008c1f78004f26dd00f2
:101db000bafe0700c1fe33006120e100430032009b
:101dc0006250e10041003e003e0039006420e10025
:101dd0003c003200058255000f003b000402e80081
:101de00038003a00800f5300818f5b0035003400cb
:101df0000800be0003f0a10001f0a60003f0a0005f
:101e00000cf0a700bafd0700b5fe3700060343003b
:101e100087834b000c4646000005530081855b001c
:101e2000020033000a03be000c00a0000402e90017
:101e3000f6ff3b00850578000602430087824b00d1
:101e400004003a006000b80009f0a70001f0a0000b
:101e5000a3fe37000002520081825a000704e0000e
:101e6000040033000603430087834b008b05e90021
:101e7000faff3700090578000604be000203be0021
:101e80006011b8005ffe0700e00f5200e08f5a00bb
:101e90000700350002003c000c08a30004003200db
:101ea0000601be0003f0a0000cf0a70090fd0700a3
:101eb0000a85680001f0a1000af0a70001f0a00067
:101ec00087fe37000800be0085fe370010022000a4
:101ed0000cf0a600c05a880085fe3700881f7800e5
:101ee000000478005001be004000be000000420027
:101ef00081804a0002014b0083814b00009cbe00a0
:101f00000294be000400e1000588e1000690e100b3
:101f10000798e10002003100680044001008e80062
:101f20004f04780000000600f4874700889fbe0039
:101f30008a9fbe008c9fbe008e1f78000205be00e7
:101f40000004be00d4b79f00e5b79f00f6b79f001e
:101f500087bf9f000000eb00c0b79f00b0b79f0095
:101f6000a0b79f0090b79f0080b79f000d0420008e
:101f7000bfb097004fb09700000140000000e000a4
:101f800014003d004f08de0000007100c0b79f0044
:101f9000ad00070001003d0012002000b000070066
:101fa00001003d0012002000b500070001003d00c7
:101fb00012002000ba000700be000700feff3a0032
:101fc000c2000700c80007000f004000c3ff070061
:101fd000270037004f08de0000067100ccb79f00d5
:101fe0009900070001003d00120020009c0007003e
:101ff00001003d0012002000a100070001003d008b
:1020000012002000a6000700aa000700feff3a0009
:10201000ae0007000fb297009fb297002fb3970052
:10202000bfb39700b60007000000520081805a003d
:1020300002015b0083815b0080b79f0091b79f0026
:10204000a2b79f00b3b79f000007eb00ac000700ea
:102050000020e10001a8e10002b0e10003b8e100c6
:10206000010031001e0020000e005600c0b79f0086
:102070004fb297000400e000070035001000200078
:10208000010020006011b80008047000898470000d
:102090000a0571008b8571008d06e900b4ff3a00d6
:1020a0000400e00003003d008f0007000f00400027
:1020b0008aff07004fa897000000e00004003a00e4
:1020c0000fb497009fb497002fb59700bfb5970046
:1020d000970007004f0778004f06be004f05be006f
:1020e0004f04be004f01b10000000600881f7800b9
:1020f00018002000881f78008bff07008f87e900f9
:102100004f04780000000600801feb0086ff0700e8
:102110008f87e90000000600889fbe008a9fbe00ee
:102120008c1f78007b00070005003d002f00070092
:1021300007003d003d0007000006eb0004003700eb
:102140003f00070002003d00300007001c00200097
:1021500077000700e5ff07000203be000002be0093
:102160000c00e00001003200280007000400be005f
:102170000601be004f0678004f05be004f04be00aa
:1021800000000600889fbe008a9fbe008c1f78005a
:102190006000070003003d001400070006003d003a
:1021a000040037002600070003003d006000b8006f
:1021b0006011b8001d0007005d000700d2ff070096
:1021c0000203be000002be000c00e000010032006d
:1021d0000e0007000400be000601be004f06780096
:1021e0004f05be004f04be00000006006000b800ae
:1021f0006011b80008045000898458000a0559008d
:102200008b8559001c002000030037006000b800d7
:102210006011b80005003700e00f5200e08f5a004f
:10222000e00f5b00e08f5b0000000600040250003e
:102230008582580006035900878359000000060074
:102240000006eb00f4ff37000180400090b79f00cc
:102250000001eb008fb097000100e00000000600d5
:102260000200700090b79f000180400080b79f007f
:102270000001eb00ffa897000100e000000006004d
:102280000200700080b79f0001804000f0af9f0007
:102290000001eb00efa897000100e000000006003d
:1022a00002007000f0af9f00018240002000070094
:1022b000f50305008301d1000281d3008180d300a2
:1022c0000080d3008502e9000000060000027200d1
:1022d000e4af9f000804440089844c000a054d00c7
:1022e0008b854d00000006003fb29700cfb29700eb
:1022f0005fb39700efb3970000fe2f0000000600c9
:102300003fb09700cfb097005fb19700efb1970053
:10231000000006000205be000004be00e00f5000f1
:10232000e08f5800e00f5900e08f590000000600d0
:102330000800be000a01be0000000600889fbe0023
:102340008a9fbe008c1f78000205be000004be00fc
:102350000006eb00e00f5000e08f5800e00f59003e
:10236000e08f590007003d006000b8006011b80020
:1023700008045000898458000a0559008b855900cb
:102380001c002000e00f5200e08f5a00e00f5b00bd
:10239000e08f5b0002003d000f0007000c00a20070
:1023a0000800be000a01be00120007000203be00c2
:1023b0000002be000c00e000010032000600070031
:1023c0000400be000601be004f0678004f05be00a7
:1023d0004f04be00000006006000b8006011b800a5
:1023e0000402500085825800060359008783590073
:1023f00000000600889fbe008a9fbe008c9fbe0022
:102400000404b8000506b8008904460060854e0043
:102410000606b8000a054600e0854e000706b8002b
:102420008b054600040eb800890446000a854e005c
:10243000e0854d00050eb8000a0546008b854e006c
:10244000060eb8008b0546000416b8000a054600c3
:102450008b854e000516b8008b054600041eb8009b
:102460008b0546000800be000a01be004f06be00f4
:102470004f05be004f04be00000006000000fa0039
:10248000e6c2bf000080fb004600de006140600045
:102490000081fb00e7c2bf000080fb000000d1000c
:1024a000614060000080fb00000040008000780078
:1024b000e7c2bf00614060000080fb000080400078
:1024c0000000400080007800e6c2bf000080fb00f2
:1024d0004700de000080fb0000804000000040005c
:1024e000000041000080fa00000006000400fa002d
:1024f00023000700c90407008a0307008b090700af
:10250000deff0700000f78001e00e000020034002c
:10251000c10c070004003700110020000000eb0090
:1025200066000700ffff37001e0090000080fa00e1
:10253000000006000200fa00f40607007d0507000f
:10254000fa060700f1c0b300c0c3b300ff060700de
:10255000004f7800f906070000c4b3009e4f10003a
:1025600003003a0010c0b30056ebb700020037007a
:102570000040eb0056ebb7000080fa0000000600b8
:102580000000fa00c4c2a900c4e2a900c522a90043
:10259000c582a900c542a900c5a2a900c5c2a9005b
:1025a000c5e2a900c0c2a900c0e2a900c122a900d9
:1025b000c182a900c142a900c1a2a900c1c2a9004b
:1025c000c1e2a900d022a900cc22a900d042a900d2
:1025d000cc42a900e2e2a900e302a900e802a900b6
:1025e000e822a900dee2a900df02a900e402a900b6
:1025f000e422a900e202a900de02a900d602a90095
:10260000d622a900d642a900d662a900d682a90086
:10261000d6a2a900d6c2a900d6e2a900d202a9007a
:10262000d222a900d242a900d262a900d282a90076
:10263000d2a2a900d2c2a900d2e2a900d1a2a900c7
:10264000cda2a900e842a900e862a900e442a900dd
:10265000e462a900de22a800dec2a800e4c2a8004d
:10266000e4e2a800e502a800e522a800d302a80041
:10267000d322a800d342a800d362a800d382a80026
:10268000d3a2a800d3c2a800d3e2a800a9ff0700e4
:1026900056cbbf000004e000010032005a070700db
:1026a0000080fa00000006000000fa0056cbbf00d0
:1026b0000080fb000080fa00000006000600fa001f
:1026c000000f7800110798001e007800200798007e
:1026d0002e009000e30f50007d0032002e0090008d
:1026e000e30f500007003e002e009000e10f500065
:1026f000380032002e009000e10f500057003e00dd
:102700000d0037002e009000e50f5000b20032009f
:102710002e009000e50f5000900039002e00900030
:10272000e60f5000d10032002e009000e70f50005d
:10273000f5003200160137001e009000e10f500036
:1027400014003600c4c2bf000080fb004600de005b
:10275000614060000004a2006140600061406000d0
:102760000040400000404000004040000040400069
:102770000040400000414000412c20009140780082
:10278000f0cbb30000c0600002407000c4e2b700ac
:10279000fd0137001e009000614060006140600054
:1027a0000040400000404000004040000040400029
:1027b0000040400000414000412c20009140780042
:1027c000f0cbb30000c0600002407000c4e2b7006c
:1027d000ed0137001e009000e10f5000110036009f
:1027e000c4c2bf000080fb004700de000004a2005e
:1027f0006140600000404000004040000040400058
:102800000040400000404000004040008040400048
:10281000c4c2bf000074a10001407000c4e2b70050
:10282000d90137001e009000614060000040400068
:102830000040400000404000004040000040400098
:102840000040400080404000c4c2bf000074a100ae
:1028500001407000c4e2b700cb0137001e009000b9
:10286000e10f50000f003600c5c2bf000080fb0022
:102870000000d100614060000004a20061406000df
:102880006140600000414000512c200091407800e0
:10289000d0cfb30000c0600002407000c5e2b700b6
:1028a000b90137001e009000614060006140600087
:1028b00000414000512c200091407800d0cfb3005f
:1028c00000c0600002407000c5e2b700ae013700f2
:1028d0001e009000e10f500012003600c5c2bf007c
:1028e0000080fb004400de00614060000004a200a4
:1028f00061406000614060000040400000404000d6
:102900000040400000414000512c200091407800e0
:10291000f0ceb30000c0600002407000c5e2b70016
:10292000990137001e009000614060006140600026
:102930000040400000404000004040000041400096
:10294000512c200091407800f0ceb30000c0600010
:1029500002407000c5e2b7008b0137001e009000f6
:10296000e10f500010003600c5c2bf000080fb0020
:102970004200de00614060000004a200614060008f
:10298000614060000040400000414000512c2000a8
:1029900091407800b0cfb30000c0600002407000ea
:1029a000c5e2b700780137001e009000614060006a
:1029b000614060000040400000414000512c200078
:1029c00091407800b0cfb30000c0600002407000ba
:1029d000c5e2b7006c0137001e009000e10f500007
:1029e00013003600c5c2bf000080fb004500de00ba
:1029f000614060000004a20061406000614060002e
:102a000000404000004040000040400000404000c6
:102a100000414000512c200091407800f0cdb300df
:102a200000c0600002407000c5e2b70056013700e8
:102a30001e00900061406000614060000040400066
:102a40000040400000404000004040000041400085
:102a5000512c200091407800f0cdb30000c0600000
:102a600002407000c5e2b700470137001e00900029
:102a7000e10f500014003600c5c2bf000080fb000b
:102a80004600de00614060000004a200614060007a
:102a900061406000004040000040400000404000b5
:102aa000004040000040400000414000512c200008
:102ab00091407800f0cbb30000c06000024070008d
:102ac000c5e2b700300137001e0090006140600091
:102ad0006140600000404000004040000040400075
:102ae000004040000040400000414000512c2000c8
:102af00091407800f0cbb30000c06000024070004d
:102b0000c5e2b700200137001e009000e10f500021
:102b100011003600c5c2bf000080fb004700de0088
:102b20000004a200614060000040400000404000fe
:102b30000040400000404000004040000040400095
:102b400080404000c5c2bf000074a1000140700079
:102b5000c5e2b7000c0137001e0090006140600024
:102b60000040400000404000004040000040400065
:102b7000004040000040400080404000c5c2bf000f
:102b80000074a10001407000c5e2b700fe003700ec
:102b90001e009000e10f500087003600c4c2bf0045
:102ba0000080fb004600de00614060000004a200df
:102bb0006140600061406000004040000040400013
:102bc0000040400000404000004040000041400004
:102bd000412c200091407800f0cbb30000c0600091
:102be00002407000c4e2b700c4c2bf000080fb0016
:102bf0004700de000004a200614060000040400089
:102c000000404000004040000040400000404000c4
:102c10000040400080404000c4c2bf000074a100da
:102c200001407000c4e2b700c5c2bf000080fb00d5
:102c30000000d100614060000004a200614060001b
:102c40006140600000414000512c2000914078001c
:102c5000d0cfb30000c0600002407000c5e2b700f2
:102c6000c5c2bf000080fb004400de006140600080
:102c70000004a2006140600061406000004040002c
:102c8000004040000040400000414000512c200026
:102c900091407800f0ceb30000c0600002407000a8
:102ca000c5e2b700c5c2bf000080fb004200de00e5
:102cb000614060000004a20061406000614060006b
:102cc0000040400000414000512c2000914078001d
:102cd000b0cfb30000c0600002407000c5e2b70092
:102ce000c5c2bf000080fb004500de0061406000ff
:102cf0000004a200614060006140600000404000ac
:102d000000404000004040000040400000414000c2
:102d1000512c200091407800f0cdb30000c060003d
:102d200002407000c5e2b700c5c2bf000080fb00d2
:102d30004600de00614060000004a20061406000c7
:102d40006140600000404000004040000040400002
:102d5000004040000040400000414000512c200055
:102d600091407800f0cbb30000c0600002407000da
:102d7000c5e2b700c5c2bf000080fb004700de000f
:102d80000004a2006140600000404000004040009c
:102d90000040400000404000004040000040400033
:102da00080404000c5c2bf000074a1000140700017
:102db000c5e2b700740037001e009000614060005b
:102dc0000040400000404000004040000040400003
:102dd000004040000040400080404000c5c2bf00ad
:102de0000074a10001407000c5e2b700c5c2bf0079
:102df0000080fb004700de006140600000404000b2
:102e000000404000004040000040400000404000c2
:102e100000414000512c200091407800f0cbb300dd
:102e200000c0600002407000c5e2b700c5c2bf002c
:102e30000080fb004600de006140600061406000f1
:102e40000040400000404000004040000040400082
:102e500000414000512c200091407800f0cdb3009b
:102e600000c0600002407000c5e2b700c5c2bf00ec
:102e70000080fb004500de006140600061406000b2
:102e80000040400000414000512c2000914078005b
:102e9000b0cfb30000c0600002407000c5e2b700d0
:102ea000c5c2bf000080fb004200de006140600040
:102eb0006140600000404000004040000040400091
:102ec00000414000512c200091407800f0ceb3002a
:102ed00000c0600002407000c5e2b700c5c2bf007c
:102ee0000080fb004400de00614060006140600043
:102ef00000414000512c200091407800d0cfb30019
:102f000000c0600002407000c5e2b700c5c2bf004b
:102f10000080fb000000d1006140600000404000e4
:102f200000404000004040000040400000404000a1
:102f30000040400080404000c4c2bf000074a100b7
:102f400001407000c4e2b700c4c2bf000080fb00b3
:102f50004700de006140600000404000004040004b
:102f60000040400000404000004040000041400060
:102f7000412c200091407800f0cbb30000c06000ed
:102f800002407000c4e2b7000080fa0000000600b2
:102f90000200fa00000f7800100020009e0f1000c1
:102fa00010003600d0c2bf000080fb004200de00ef
:102fb000614060000004a200614060006140600068
:102fc0000040400000414000012d20009140780069
:102fd000b0cfb30000c0600002407000d0e2b70084
:102fe0000b0037001e007800614060006140600007
:102ff0000040400000414000012d20009140780039
:10300000b0cfb30000c0600002407000d0e2b70053
:103010000080fa00000006000200fa00000f7800ad
:10302000100020009e0f10000f003600d0c2bf001d
:103030000080fb000000d100614060000004a2009d
:10304000614060006140600000414000012d2000af
:1030500091407800d0cfb30000c060000240700003
:10306000d0e2b7000a0037001e007800614060001f
:103070006140600000414000012d20009140780037
:10308000d0cfb30000c0600002407000d0e2b700b3
:103090000080fa00000006000000fa00c4c2a90087
:1030a000c4e2a900c522a900c582a900c542a900a1
:1030b000c5a2a900c5c2a900c5e2a9000080fa0006
:1030c0000000060000a0fe003400f800881f780011
:1030d00008c0b300a80188004f0478000200fa007d
:1030e00086c0a900b05980000000e0000c00340048
:1030f000d05980000000e800d0598800f0598000c5
:103100000000e900f0598800f05980000000e0005c
:103110000e003d0030002000f05988000b00370001
:10312000d05980000000e900d0598800f059800093
:103130000000e800f0598800f0598000e30f5000cb
:10314000020034000000eb00f0598800f0598000c4
:10315000000f78001e007800e10f500013003200cd
:103160001e007800e10f500004003c001e007800b3
:103170000000e000080032001a0037001e0078004e
:10318000e20f50000e0032001e007800e30f5000e6
:103190001000320013003700d602a900d622a80082
:1031a000d642a900d662a8000e003700d602a900b8
:1031b000d622a800d642a800d662a900090037008e
:1031c000d602a800d622a900d642a800d662a9003d
:1031d00004003700d602a800d622a900d642a900d2
:1031e000d662a8000080fa003400f9000080fe00da
:1031f0000040060000a0fe003400f800881f7800a0
:1032000008c0b300a80188004f0478000200fa004b
:1032100086a0a900c05980000000e0000c003d001d
:10322000e05980000000e900e0598800005a800061
:103230000000e900005a8800005a80000000e00009
:103240000e003d0030002000005a88000b003700bf
:10325000e05980000000e800e0598800005a800032
:103260000000e800005a8800005a8000e30f500078
:10327000020034000000eb00005a8800005a800071
:10328000000f78001e007800e10f5000130032009c
:103290001e007800e10f500004003c001e00780082
:1032a0000000e000080032001a0037001e0078001d
:1032b000e20f50000e0032001e007800e30f5000b5
:1032c0001000320013003700d682a900d6a2a80051
:1032d000d6c2a900d6e2a8000e003700d682a90007
:1032e000d6a2a800d6c2a800d6e2a90009003700dd
:1032f000d682a800d6a2a900d6c2a800d6e2a9000c
:1033000004003700d682a800d6a2a900d6c2a90020
:10331000d6e2a8000080fa003400f9000080fe0028
:10332000004006000000fa0095fc07000080fa004b
:10333000000006000400fa00000f78001e00e00004
:1033400006003a0021e1a900d602a900d622a90070
:10335000d642a900d662a9002000370021e1a900c9
:103360001e007800b05988000000eb0000098800ba
:10337000011220009140780000c3b30000c070002b
:1033800020e1b7000000eb00c00888001e017800b3
:10339000120798001e0090000000e00003003d00ae
:1033a0001e0190000201ea00120798001e01900021
:1033b0006110b90091f707000001be000000200075
:1033c00011762400b8f70700f9f70700e008880035
:1033d00086c0a9008ec0a80021e1a8000080fa00e4
:1033e000000006000400fa00000f78001e00e00054
:1033f00006003a001fe1a900d682a900d6a2a900c2
:10340000d6c2a900d6e2a900200037001fe1a9001a
:103410001e007800c05988000000eb00f00888000a
:10342000e11120009140780000c3b30000c070009b
:103430001ee1b7000000eb00a00888001e01780024
:10344000120798001e0090000000e00003003d00fd
:103450001e0190000201ea00120798001e01900070
:103460006110b90065f707000001be0000002000f0
:10347000117624008cf70700cdf70700d0088800ec
:1034800086a0a9008ea0a8001fe1a8000080fa0075
:10349000000006000000fa00d05980000080fa0009
:1034a000000006000200fa00000f78001027fc0060
:1034b0001e007800d05988000200fc000080fa004d
:1034c000000006000000fa00e05980000080fa00c9
:1034d000000006000200fa00000f78001027fc0030
:1034e0001e007800e05988000200fc000080fa000d
:1034f000000006000000fa000000eb002008880031
:103500004110200091407800f0ccb30000c0600072
:103510000044a00004e1b7000000eb0000088800b0
:1035200050282000100888008460a9008c60a80042
:1035300005e1a8000080fa00000006003600f8004f
:10354000809fbe00829fbe00849fbe00869fbe00fb
:103550003400f80000c0b300a00188000200fa00a7
:103560008460a90090558000000f78001e0078004c
:10357000e10f5000330032001e007800e10f5000d0
:1035800004003c001e0078000000e000080032004b
:103590009a0037001e007800e20f50004e00320003
:1035a0001e007800e30f50007000320093003700d7
:1035b000a05580000000e0000c003a0050282000d8
:1035c0001008880080002000ff000700b055880028
:1035d000c0002000fc000700f0558800e2e2a800cf
:1035e00010002000a055880084003700e0f1200082
:1035f0001008880080002000f30007003056880083
:10360000c0002000f000070070568800b15580000f
:103610003056800000805000b0568800f155800080
:103620007056800000805000f0568800e2e2a90049
:103630000000eb00a0558800100020009055880085
:103640006e003700a05580000000e0000c003a003a
:10365000502820001008880090002000da000700a1
:10366000c0558800d0002000d70007000056880011
:10367000e302a80010002000a05588005f0037007a
:10368000e0f120001008880090002000ce00070024
:1036900040568800d0002000cb00070080568800ec
:1036a000c15580004056800000805000c056880000
:1036b000015680008056800000805000005788002e
:1036c000e302a9000000eb00a055880020002000c4
:1036d0009055880049003700a05580000000e000a8
:1036e0000c003a005028200010088800a00020009c
:1036f000b5000700d0558800e0002000b2000700a8
:1037000010568800e802a80010002000a05588008c
:103710003a003700e0f1200010088800a0002000e7
:10372000a900070050568800e0002000a60007000e
:1037300090568800d155800050568000008050007f
:10374000d0568800115680009056800000805000ae
:1037500010578800e802a9000000eb00a05588007f
:10376000300020009055880024003700a0558000cc
:103770000000e0000c003a005028200010088800eb
:10378000b000200090000700e0558800f000200005
:103790008d00070020568800e822a80010002000b5
:1037a000a055880015003700e0f1200010088800bf
:1037b000b00020008400070060568800f000200060
:1037c00081000700a0568800e15580006056800007
:1037d00000805000e056880021568000a0568000ee
:1037e0000080500020578800e822a9000000eb006c
:1037f000a05588000000eb00905588000080fa007a
:103800003400f9004f03be004f02be004f01be005e
:103810004f00be003600f900004006000000fa002c
:103820004b00070033ff07000080fa00000006008d
:103830000000fa0005e1a900e822a900e8c2bf00e3
:103840000080fb000000d100614060006141600029
:10385000812e200091407800e0cfb30000c06000ce
:1038600002407000e8e2b700e8c2bf0061406000bb
:1038700061416000312e200091407800e0cfb3001c
:1038800000c0600002407000e3e2b700e3c2bf0086
:1038900061406000004040000040400000404000a7
:1038a0000040400000404000004040008040400098
:1038b000e2c2bf000074a10001407000e2e2b70064
:1038c0000080fa00000006000400fa00000f7800f3
:1038d000700020009e0f1000030036000000eb0077
:1038e00010079800060037001e0078008000400096
:1038f00060ad2000008040001000780010079800a4
:103900001e0090000080fa00000006000400fa008b
:10391000000f7800700020009e0f1000030036009a
:103920000000eb0010079800060037001e0078002a
:103930008000400060ab2000008040001000780054
:10394000100798001e0090000080fa00000006009a
:103950000000fa000000eb00201588002015800010
:10396000101588001015800000158800a802a80016
:10397000a822a800a842a900a862a900a882a900bc
:10398000a8a2a900a8c2a900a8e2a900a902a900aa
:10399000a922a900a942a900a962a900a982a90097
:1039a000a9a2a900a9c2a900a9e2a900200120009a
:1039b000201588007000200030158800a1e2a800c2
:1039c0000080fa00000006000600fa0010079800c8
:1039d0001e009000ef0f5000030036000000eb00c7
:1039e00020079800120037001e0090003015880054
:1039f000a022a8000000eb00000f780001003700b3
:103a00001e0fe800700220009e0f1000fcff340023
:103a10008560a900a022a90085c0bf0068406000a1
:103a20000004e000fcff3200001480002007980032
:103a30002e0090000080fa00000006000000fa004e
:103a40000000370006c2bf00614060000004e000d3
:103a5000fcff3a0006c2bf00644060000004e000c2
:103a6000f8ff3a0006c2bf00684060000004e000b2
:103a7000f4ff3a0006c2bf00704060000004e0009e
:103a8000f0ff3a0009c2bf000044b2000004e000a9
:103a9000ecff3a000080fa00000006000400fa0083
:103aa000600920002010880007e2a90007e2a800b2
:103ab00085c0a90085a0a900b10920009140780027
:103ac00080cfb30000c060005040b3009be0b7005f
:103ad0008da0a9000071220001002000008fbe000f
:103ae000040037000080eb008080eb001e0f4000d8
:103af0005e9748001e00be00e00f5000e08f5800a7
:103b0000f8ff3a00100020000080fa0000000600d4
:103b10000000fa0007e2a90085c0a90085a0a9005d
:103b20008dc0a9008da0a900100020000080fa001f
:103b3000000006000400fa006000b800008fbe001c
:103b400007e2a90085c0a90085a0a9008da0a90051
:103b50000000eb00401088000071220001002000ee
:103b6000008fbe00040037000080eb008080eb0077
:103b70001e0f40005e9748001e00be00e00f500080
:103b8000e08f5800f8ff3a00c4ff07000f0007005d
:103b90000071220001002000008fbe0004003700e9
:103ba0000080eb008080eb001e0f40005e97480015
:103bb0001e00be00e00f5000e08f5800f8ff3a00f2
:103bc000100020000080fa00000006000000fa004b
:103bd00085c0a9008dc0a800100020000080fa0058
:103be000000006000000fa0085c0a9008dc0a900f1
:103bf000100020000080fa00000006000600fa0015
:103c000010c0b30042ebb70008c2bf0070406000b4
:103c10000004e000160032000602a8000071220035
:103c200001002000008fbe000a00370042cbbf0019
:103c30000004e00003003a00100020002007980074
:103c40000d0037000080eb008080eb001e0f40006d
:103c50005e9748001e00be00e00f5000e08f580045
:103c6000f2ff3a008000eb002107980002003700c5
:103c70000000eb00200798002e0090000080fa0062
:103c8000000006000600fa0060c0b30042ebb70077
:103c900008c2bf00684060000004e0001600320067
:103ca0000622a8000071220001002000008fbe0043
:103cb0000a00370042cbbf000004e00003003a00d6
:103cc00010002000200798000d0037000080eb0056
:103cd0008080eb001e0f40005e9748001e00be0073
:103ce000e00f5000e08f5800f2ff3a008000eb0038
:103cf00021079800020037000000eb002007980021
:103d00002e0090000080fa00000006000600fa0075
:103d100050c0b30042ebb7000642a8000071220079
:103d200001002000008fbe000a00370042cbbf0018
:103d30000004e00003003a00100020002007980073
:103d40000a0037000080eb008080eb001e0f40006f
:103d50005e9748001e00be00e00f5000e08f580044
:103d6000f2ff3a008000eb00210798002e0090003f
:103d70000080fa00000006000600fa0030c0b30020
:103d800042ebb70006c2bf00614060000004e000e3
:103d900010003a0006c2bf00644060000004e0006a
:103da0000c003a0006c2bf00684060000004e0005a
:103db00008003a0006c2bf00704060000004e00046
:103dc00004003a0006c2bf00624060000004e00048
:103dd000030032000000eb002007980016003700b7
:103de00006a2a9000682a80000712200010020009e
:103df000008fbe000a00370042cbbf000004e00085
:103e000003003a0011002000210798000a00370043
:103e10000080eb008080eb001e0f40005e974800a2
:103e20001e00be00e00f5000e08f5800f2ff3a0085
:103e30008000eb00210798002e0090000080fa001f
:103e4000000006000600fa0030c0b30042ebb700e5
:103e500006c2bf00614060000004e00010003a00ac
:103e600006c2bf00644060000004e0000c003a009d
:103e700006c2bf00684060000004e00008003a008d
:103e800006c2bf00704060000004e00004003a0079
:103e900006c2bf00624060000004e0000300320080
:103ea0000000eb00200798001600370006a2a800cb
:103eb0000682a8000071220001002000008fbe00d1
:103ec0000a00370042cbbf000004e00003003a00c4
:103ed00011002000210798000a0037000080eb0045
:103ee0008080eb001e0f40005e9748001e00be0061
:103ef000e00f5000e08f5800f2ff3a008000eb0026
:103f0000210798002e0090000080fa0000000600b3
:103f10000a00fa003007980000712200010020001a
:103f200010079800210798000040eb00004f780030
:103f300040c0b30042ebb700007122000100200036
:103f400010079800210798001d00370006c2bf0027
:103f5000614060000004e00013003a0006c2bf00a8
:103f6000644060000004e0000f003a0006c2bf0099
:103f7000684060000004e0000b003a0006c2bf0089
:103f8000704060000004e00007003a0009c2bf0072
:103f90000044b2000004e00003003a0010c0b30087
:103fa000004f78000b0037001e009000ae0090001c
:103fb00061005000e0805800100798002107980029
:103fc0001e009000ae009000e00f5000e08f5800ff
:103fd000deff3a001e04e00003003a000000eb00a0
:103fe000400798001d0037000662a800006a2800fc
:103ff00011002000100798002107980010003700da
:1040000042cbbf000004e00007003a0000c2bf003e
:10401000804078003e0090000148780010002000a9
:10402000400798000d0037001e009000ae00900081
:1040300061005000e08058001007980021079800a8
:104040001e009000ae009000e00f5000e08f58007e
:10405000ebff3a000000eb00400798004e00900094
:104060000080fa00000006000800fa0040479800af
:1040700020c0b30042ebb7004e40900002e2b70010
:104080000071220001002000008fbe000a003700ee
:1040900042cbbf000004e00003003a001000200003
:1040a000300798000a0037000080eb008080eb00aa
:1040b0001e0f40005e9748001e00be00e00f50003b
:1040c000e08f5800f2ff3a008000eb0031079800c3
:1040d0003e0090000080fa0000000600801f78007b
:1040e0003400f80000c0b300a00188000000fa000e
:1040f00085c0a9000040eb0042ebb7000080fa0049
:104100003400f9004f007800004006000000fa007b
:1041100062fe07000080fa00000006000000fa00be
:104120007bfe07000080fa00000006000000fa0095
:10413000a6fe07000080fa00000006000000fa005a
:10414000a8fe07000080fa00000006000400fa0044
:1041500020479800314798000040eb00004f78005e
:104160001800370010c0b300004f7800a3fe07000e
:104170001e4f60002e409000bbff07001e4f6000e6
:104180003e409000b8ff07001e4f6000bdfe0700d4
:104190001e4f60002e4090000040e800b2ff070074
:1041a0001e4f60000e00e80059ff07001e4f600020
:1041b00024ff0700d5fe07001e04e00003003a00bc
:1041c0005cfe07001e04e000e6ff32001e40900087
:1041d0000000fb000080fa00000006000600fa0064
:1041e0002047980031479800424798000040eb0074
:1041f000004f78001200370010c0b300004f780065
:104200007efe07001e4f60002e40900096ff0700c4
:104210001e4f60003e40900093ff07001e4f60005d
:104220004e40900090ff07001e4f6000b7fe070051
:104230001e4f60001e04e00003003a003dfe070030
:104240001e04e000ecff32001e00fb000080fa00bc
:10425000000006000400fa00004f780011479800a3
:1042600022479800b1ff07002e4190009e40900029
:104270001e407800d9ff0700b0ff07000080fa0059
:10428000000006000400fa0020479800314798001b
:10429000a6ff0700be4090002e409000abff070035
:1042a000004f7800a5ff07001e80fb000080fa0089
:1042b000000006000a00fa00404798003107980005
:1042c000024f9800134f98000040eb0020479800e1
:1042d0000000eb00000f78004400370010c0b3006e
:1042e0002047980045fe0700804078002e4090004f
:1042f00001406000204798004e4090005aff0700a0
:10430000804078002e4090000140600020479800d7
:1043100001c8b3000e48900000c0700052ff0700b3
:10432000804078002e4090000140600020479800b7
:1043300054fe0700804078002e409000014060004d
:10434000204798004e4090000040e80046ff0700dc
:10435000804078002e409000014060002047980087
:104360000000eb00000f7800170037009e00780077
:104370003e00900000804000e5fe0700804078008d
:104380002e40900001406000204798001e48900099
:104390000080fb000000e9009e0f500005003a007d
:1043a000a8fe0700ae40900000c0600020479800c3
:1043b0000400370070fe0700ae40900000c06000af
:1043c000204798001e0fe8001e4890000080fb0068
:1043d0009e0f5000e5ff3e004cfe07002e4090006f
:1043e0000004e00004003a00d2fd07002e409000d7
:1043f0000004e000b9ff32002e4090000000fb00f6
:104400000080fa00000006000000fa0047ff0700e5
:10441000f2c9b30001c2b300c0c3b3006fff07000d
:1044200002c5b30051c2b300c0c3b3006bff0700a5
:10443000f2ccb30001c2b30040cdb30067ff070068
:1044400002c2b30011c2b30040cdb30063ff070046
:104450000041eb0031c2b30040cdb3005fff070065
:1044600036ff07000080fa00000006000200fa0094
:10447000000f78002dff070063c0b30082c2b300b5
:104480009e007800c0c3b3008aff07002bff07001f
:104490000080fa00000006000c00fa0030079800c7
:1044a000410798005207980020ff070063c0b3003f
:1044b00082c2b3008e007800c0c3b3007dff070046
:1044c0001eff07001e4090000080fb00000040001f
:1044d00000004000000040000000400000004000dc
:1044e0000000400000004000000040008000780014
:1044f0001e4078000080fb00808040003e0090005d
:10450000010878003e4090000080fb000000400061
:10451000000040000000400000004000000040009b
:1045200000004000000040000000400080007800d3
:104530002e4090000080fb00808040004e009000e4
:10454000010878005e4090000080fb000000400001
:10455000000040000000400000004000000040005b
:104560000000400000004000000040008000780093
:104570004e4090000080fb00808040005e00900074
:10458000010878000080fa00000006000200fa002e
:10459000e6fe07008e00780023c0b30082c2b3009d
:1045a000c0c3b30043ff0700e4fe07001e409000b5
:1045b0000000fb0000004000000040000000400040
:1045c00000004000000040000000400000004000eb
:1045d00000004000800078001e4078000000fb00d2
:1045e000008040000080fa00000006000200fa008f
:1045f000cefe07008e00780023c0b300a2c2b30035
:10460000c0c3b3002bff0700ccfe07001e40900084
:104610000000fb00000040000000400000004000df
:10462000000040000000400000004000000040008a
:1046300000004000800078001e4078000000fb0071
:10464000008040000080fa00000006000200fa002e
:10465000b6fe07008e00780023c0b300c2c2b300cc
:10466000c0c3b30013ff0700b4fe07001e40900054
:104670000000fb000000400000004000000040007f
:10468000000040000000400000004000000040002a
:1046900000004000800078001e4078000000fb0011
:1046a000008040000080fa00000006000200fa00ce
:1046b000000f78009dfe070063c0b30082c2b30004
:1046c0009e00780040cdb300fafe07009bfe070075
:1046d0000080fa00000006000c00fa003007980085
:1046e000410798005207980090fe070063c0b3008e
:1046f00082c2b3008e00780040cdb300edfe07000b
:104700008efe07001e4090000080fb00000040006d
:104710000000400000004000000040000000400099
:1047200000004000000040000000400080007800d1
:104730001e4078000080fb0080804000505a8000be
:10474000808050003e009000010878003e409000bc
:104750000080fb000000400000004000000040001e
:104760000000400000004000000040000000400049
:1047700000004000800078002e4090000080fb0088
:1047800080804000605a8000808050004e00900081
:10479000010878005e4090000080fb0000004000af
:1047a0000000400000004000000040000000400009
:1047b0000000400000004000000040008000780041
:1047c0004e4090000080fb0080804000705a8000c6
:1047d000808050005e009000010878000080fa00a0
:1047e000000006000200fa0050fe07008e0078006c
:1047f00023c0b30082c2b30040cdb300adfe0700ba
:104800004efe07001e4090000000fb00000040002c
:104810000000400000004000000040000000400098
:1048200000004000000040000000400080007800d0
:104830001e4078000000fb0080804000505a80003d
:10484000008050000080fa00000006000200fa001c
:1048500036fe07008e00780023c0b300a2c2b3006a
:1048600040cdb30093fe070034fe07001e409000c9
:104870000000fb000000400000004000000040007d
:104880000000400000004000000040000000400028
:1048900000004000800078001e4078000000fb000f
:1048a00080804000605a8000008050000080fa0044
:1048b000000006000200fa001cfe07008e007800cf
:1048c00023c0b300c2c2b30040cdb30079fe0700dd
:1048d0001afe07001e4090000000fb000000400090
:1048e00000004000000040000000400000004000c8
:1048f0000000400000004000000040008000780000
:104900001e4078000000fb0080804000705a80004c
:10491000008050000080fa00000006000000fa004d
:1049200061c2b30040cdb30056fe07000000fb009b
:104930000080fa00000006001000fa0070079800de
:10494000e80047000000eb0080087800e80047001e
:104950000000eb0090009800e80047000000eb002a
:10496000a00098000000eb00000f78000000eb00b2
:10497000000f7800420037000e80e8004bff070070
:1049800068004700100178000e80e8001040900099
:104990000080fb00000040000000400000004000dc
:1049a0000000400000004000000040000000400007
:1049b00000004000800078000e80e8001040780081
:1049c0000080fb000080400080004100680047003c
:1049d0000108780068004700100190000e80e80090
:1049e000304090000080fb000000400000004000cc
:1049f00000004000000040000000400000004000b7
:104a00000000400000004000800078000e80e800b8
:104a1000204090000080fb000080400080004100aa
:104a200068004700110098006800470020019000ce
:104a30000e80e800504090000080fb000000400025
:104a40000000400000004000000040000000400066
:104a5000000040000000400000004000800078009e
:104a60000e80e800404090000080fb000080400085
:104a70008000410068004700210098001e0fe800f8
:104a80007e0090009e0f1000bbff350068004700bd
:104a9000100078007e019000110009000200d8008b
:104aa000505a880068004700100090007e01900076
:104ab000110009000200d800605a88006800470011
:104ac000200090007e019000110009000200d80033
:104ad000705a88000080fa00000006000200fa0008
:104ae000000f78001e007800cf80de00c3f10700c1
:104af00092c22500f3c0230048f207000080fa00ac
:104b0000000006000200fa00000f78001e00780086
:104b1000cf80de00b9f1070072cf2c002371230093
:104b20003ef207000080fa00000006000c22ef00b1
:104b30000e22ef000ee2a9000ec2a9008520a900f6
:104b40008d20a8000de2a80070002000a0108800b1
:104b50008540a9008d40a80081e0a900c004800024
:104b6000f1002f000080600001552000008040000f
:104b7000c00488000fe2a8000f42a800ae2aef0090
:104b8000b02aef0000000600809fbe008520a9002b
:104b90000e22a9000e02ab00080032007055800002
:104ba000f003b200e1a620008100400012c2bf0065
:104bb00080487800ae2aec00f6ff37004f00be00b8
:104bc00000400600705580008155800001005000b3
:104bd0000000060071558000825580000208e10047
:104be00008003200f203b200e1a62000028140007a
:104bf0009240780001487800b02aec0010002000b4
:104c0000000006000000eb00000006008540a9003f
:104c1000809fbe00821f7800540be2001500320016
:104c2000500be20016003200520be200140032007a
:104c3000815a8000420020000f22af00feff3700a3
:104c4000905a80000000e000070032000000e900f8
:104c500052abb7003140780010e2b7000201e90022
:104c6000f5ff3a0002003700502bef00010037003b
:104c7000815a88004f0178004f00be0000400600b6
:104c800000002000a05a88004f0178004f00be00ad
:104c900000400600540be200feff3a008d40a900e0
:104ca0008100e900915a8800b040780081108800a6
:104cb000805a880011002000a15a88008d40a80069
:104cc00000000600a05a8000000006000800fa005c
:104cd00020079800310798006000b800008fbe00e0
:104ce0000400370010002000010020001e0f4000cb
:104cf0005e9748002e009000be009000be0f10008e
:104d0000ae8f1800f7ff35000080fa0000000600a3
:104d10000000fa00e6c2bf000080fb004600de0093
:104d2000614060000081fb00e7c2bf000080fb0023
:104d30000000d100614060000080fb0000004000e6
:104d400080007800e7c2bf00614060000080fb0087
:104d5000008040000000400080007800e6c2bf00f4
:104d60000080fb004700de000080fb000080400068
:104d700000004000000041000080fa000000060032
:104d80006a00fa0030379800413798008e80e800ba
:104d90004e309000801f78003e309000801f7800d9
:104da00080132b00801f7800010078005ced070065
:104db000e68757000e80e8006aed0700000f7800d4
:104dc0000e80e8009e007800b2ff0700bdff0700dc
:104dd0000000e000fdff3a000080fa00000006003d
:104de0006e00fa003037980041379800523798002b
:104df000633798008e80e8006e309000801f780046
:104e00005e309000801f78004e309000801f780048
:104e10003e309000801f780040142b00801f7800e7
:104e2000010078003eed0700ea8757000e80e80099
:104e30004ced0700000f78000e80e8009e0078001f
:104e400094ff07009fff07000000e000fdff3a000d
:104e50000080fa00000006000600fa001007980023
:104e6000210798000000eb00000f780009003700d0
:104e70001e00780000004000800078001e009000b6
:104e80000080400010007800210020000bf6070091
:104e90001e0fe8002e0090009e0f1000f4ff35005a
:104ea0000080fa00000006001000fa00889fbe0093
:104eb000008fbe002207980033079800440798002f
:104ec0005507980066079800770798001e01be00f6
:104ed0004e009000de00900084f107000001be004b
:104ee0004ef107000004be002e019000be019000ac
:104ef0006e009000fe0090007cf107000001be00f3
:104f000046f107000001be000800be0078f107006e
:104f1000d4f107004f04be000080fa000000060034
:104f20000400fa00008fbe0002002000a347240006
:104f30001e00be00dcf00700e2f92e0073d2230051
:104f400036f1070002fd20009304240033f107002e
:104f50000001be0066f1070002fd2000930424005a
:104f60002ef10700d288240073e22300cef0070060
:104f70000080fa00000006000400fa00008fbe0066
:104f800002002000a34724001e00be0023f10700fa
:104f900042df2f0043d5230020f1070002fd20004f
:104fa000930424001df1070032eb2200f3f42300e8
:104fb000bdf00700e0f10700e7f107000080fa000c
:104fc000000006002800fa00400f9800510f9800da
:104fd000620f9800730f9800041798001517980037
:104fe00026179800371798004e099000de099000a8
:104ff0000e1090009e1090003cf10700200f9800ca
:10500000310f98006e099000fe0990002e1090005c
:10501000be10900035f10700000f9800110f9800a6
:105020002e089000be0890000001be00fbf00700b3
:1050300060079800710798000e0890009e08900085
:105040000001be00f5f007004007980051079800e6
:105050004e019000de0190006e009000fe00900076
:1050600023f107007ff1070020079800310798001f
:105070002e019000be0190000e0890009e08900046
:1050800089f00700d5f10700008fbe006011b8005d
:105090002e089000be089000d2f107000000e0004a
:1050a00001003500050037001e01be0000fd200094
:1050b000910c24000df10700008fbe0060408000bd
:1050c000cf80de004df0070095ff07000001be0015
:1050d0001e00be0005f10700008fbe006011b80081
:1050e0001e00be00bff107000000e0000100350017
:1050f0000500370002fd2000930c24001e00be00b6
:10510000fbf00700008fbe001e00be000080fa000a
:10511000000006001400fa00889fbe008a9fbe00af
:10512000200798003107980042079800530798001d
:105130006407980075079800060f9800170f9800ed
:105140006e019000fe0190004e009000de00900085
:10515000b2f007000004be000e0990009e09900006
:105160002e009000be009000acf007000001be00d1
:105170000800be00ddf007000005be006e009000d4
:10518000fe0090000001be00a4f007000004be0075
:105190000e0890009e0890000001be009ff00700de
:1051a0000001be000800be00d1f007002df107008d
:1051b0000001be000a00be003bf00700008fbe00e9
:1051c0006011b8001e00be0086f107000000e0007c
:1051d00001003500030037001e00be0001f0a200f0
:1051e000008fbe001e00be004f05be004f04be0073
:1051f0000080fa00000006000400fa00008fbe00e4
:1052000002002000433324001e00be0083f007008c
:1052100002fd20009304240023f007004ef1070054
:105220000080fa00000006000800fa00200798003d
:1052300098f80700100798000000eb0099f80700a5
:1052400094f80700800078002e009000008f400046
:1052500090f80700300798003e0090000000e00042
:1052600003003d003e0090000000ea003007980077
:105270003e0090009e0f5000f5ff35001e0090008c
:1052800088f807000080fa00000006000000fa001d
:105290000000eb0083f807000000eb008df807002a
:1052a0000000eb00504088000000eb004040880008
:1052b0000080fa00000006000400fa00889fbe008b
:1052c0008a9fbe008c9fbe00000f780011079800d7
:1052d0000000eb00004088000000eb001040880058
:1052e0000000eb00404088001e007800204088004d
:1052f0001e009000304088000000eb0090408800c5
:105300000000eb00504088000000eb0040408800a7
:105310000000eb0060408800100020007040880012
:105320000000eb008040880030408000cf80de002d
:10533000b2ef07000005be0020408000cf80de00f5
:10534000aeef07000006be0010408000cf80de00f8
:10535000aaef07000004be0000408000cf80de00fe
:10536000a6ef07000a03be000c02be000801be0043
:10537000cdfe0700f046880001478800714080009c
:105380000181400060812000000141000000eb002d
:10539000000978008180400060812000008040008a
:1053a00010007800b04088004f06be004f05be00d8
:1053b0004f04be000080fa00000006000400fa005e
:1053c000000f7800110798001e007800d9f7070039
:1053d0001e00900003f807000080fa00000006009d
:1053e0000600fa00889fbe008a9fbe008c9fbe0008
:1053f00061408000404080000080400060408800a4
:1054000060408000cf80de007cef0700c4fe070014
:10541000008fbe0002fd2000930c24001e00be0081
:10542000f2f007000000e00001003c000b00370034
:1054300002fd2000930c24001e00be002bf007008c
:10544000008fbe006840800000fd2000910c240009
:10545000c9fe0700000054006040880002fd2000e3
:10546000930c2c001e00be00def007000000e000e0
:10547000010035000c00370002fd2000930c2400d1
:105480001e00be001af00700008fbe0000fd2000c5
:10549000910c2400b8fe0700800078006040800076
:1054a000008040006040880050408000cf80de00d7
:1054b00052ef07000004be001e00be00cdf0070042
:1054c0000001be000800be00d4ef0700a2f00700f4
:1054d000800078000040800000804000004088008c
:1054e00050408000cf80de0044ef07000004be0083
:1054f0001e00be00c1f007000001be000800be0093
:10550000c6ef070094f0070080007800104080008c
:105510000080400010408800704080002007980004
:1055200030408000cf80de0034ef07000005be0071
:1055300020408000cf80de0030ef07000006be0074
:1055400010408000cf80de002cef07000004be007a
:1055500000408000cf80de0028ef07000a03be0075
:105560000c02be000801be004ffe07000001be0095
:10557000ae009000ae00900001804000800040002e
:10558000e08d2000008040000288be00784080004e
:10559000704080000000400080004000e08d20004e
:1055a000008040001000be00f246800003478000eb
:1055b0003def070002002000832c240097ef070036
:1055c0005df007000001be0000002000812c2400d7
:1055d000c6ef070060f00700000178008800440073
:1055e0006081200000804000020878008040800038
:1055f0000000e8008040880024ff07004f06be003e
:105600004f05be004f04be000080fa0000000600f7
:105610000400fa00889fbe008a9fbe008c9fbe00d7
:1056200030408000cf80de00f4ee07000005be00b1
:1056300020408000cf80de00f0ee07000006be00b4
:1056400010408000cf80de00ecee07000004be00ba
:1056500000408000cf80de00e8ee07000a03be00b5
:105660000c02be000801be0056fe0700008fbe00ff
:1056700002fd2000930424001e00be005bf0070022
:105680000000e00001003c00170037001e01be00d2
:1056900000fd2000910c240094ef0700008fbe0055
:1056a0001e00be0034fe070040408800c1122000ea
:1056b00040ed2f0041ff070040408000dafe070068
:1056c000c1122000c01220003cff07001e01be00d6
:1056d00000fd2000910c240084ef070026fe070047
:1056e000404088000b0037001e00be0022fe07006d
:1056f0004040880041ed2f00c01220002fff07001e
:1057000040408000c8fe0700c1122000c0122000e7
:105710002aff0700c4c2a90031ff07004f06be00e0
:105720004f05be004f04be000080fa0000000600d6
:105730000000fa008080eb0060152b0090fd070050
:105740009140800040172b008dfd07000140800034
:1057500040182b008afd070021408000e0182b0034
:1057600087fd07001140800050192b0084fd0700c1
:1057700031408000f0192b0081fd0700704080004f
:105780000000400080004000e08d200000804000cc
:105790001000be00f0ef070080007800601a2b00b8
:1057a00077fd07007040800080004000608120008d
:1057b0000080400090007800901b2b0070fd0700d7
:1057c00061408000d01c2b006dfd07006040800010
:1057d000cf80de0089ee0700d1fd070086fe0700be
:1057e00080007800701e2b0065fd0700714080006e
:1057f000901f2b0062fd070081408000a0202b003d
:105800005ffd07008080eb00c0212b005cfd0700de
:105810000080fa00000006001600fa00889fbe0013
:105820008a9fbe008c9fbe0081bb20000000eb0061
:10583000a1fe070076ff070094fe07005200370024
:105840006000200020f807000004780070002000ad
:105850001df80700000444000000eb001af80700e0
:10586000000444001000200017f807000000440066
:10587000100f98001e0890000000e00003003d009b
:105880009e089000e3804000110f98001e099000d0
:105890004290de0090408800a000200062fe0700d9
:1058a000fcf6070050408800cdfe07003040800025
:1058b000cf80de0051ee07000005be0020408000d2
:1058c000cf80de004dee07000006be0010408000d5
:1058d000cf80de0049ee07000004be0000408000db
:1058e000cf80de0045ee07000a03be000c02be00ba
:1058f0000801be00b3fd070020079800310798009b
:10590000704080000000400080004000e08d2000da
:10591000008040001000be008fef070000047800f8
:1059200060408000cf80de0034ee07007cfd070081
:1059300031fe070000017800114080000040800027
:105940008801780026fd07002e009000be00900020
:1059500029fe0700100798001e009000ea0f500073
:10596000090034009e009000d0152000808f500068
:1059700005003c009e00900080232b0000fd0700e6
:1059800023ff070041fe070091408000700c2000bb
:10599000808f50000b003c007040800000004000f1
:1059a00080004000e08d2000008040001000be001c
:1059b00002002000832424008cef07000000e00098
:1059c0009fff3d00704080000000400080004000cc
:1059d000e08d2000008040001000be00020020008a
:1059e000832424007fef07000000e0000100340062
:1059f0000b00370021002000800020002ff307005b
:105a00008000eb000000eb006cfe07008080eb00e4
:105a100030242b00dafc070045ff0700ffff3700aa
:105a20000000eb00a04088007040800000004000b3
:105a300080004000e08d2000008040001001be008a
:105a400062079800730798000000eb005007980069
:105a50000000eb00400798001100200040002000eb
:105a600016f30700000037006e009000fe00900063
:105a700039ef07007f000700500798006000200002
:105a800091f7070000047800700020008ef70700ef
:105a9000000444000000eb008bf707000004440002
:105aa0001000200088f7070000004400200f980035
:105ab000ae0990000300e00003003d002e089000b6
:105ac00063004000200f9800ae0890004288de007e
:105ad000904088005e0090000000e000130032005b
:105ae000704080000000400080004000e08d2000f9
:105af000008040001000be006e019000fe0190008a
:105b00007aee070014ef0700000f7800900f2000d6
:105b10009e0f100005003c0060f02f009e0f10004b
:105b20000200340010002000400798007040800000
:105b300080004000608120000080400090007800dc
:105b400020062000808f50001e003c004e00900078
:105b50000000e0001b003a005e0090000000e00042
:105b6000c1ff320070408000000040008000400013
:105b7000e08d2000008040001000be000041eb00de
:105b8000025798006e019000fe01900015ef07008b
:105b90000000e000010035000200370013c0b30030
:105ba000035798000e5090000004a2000004e0008b
:105bb000adff3a0091408000700c2000808f5000b3
:105bc000a9ff3c008000eb0040002000bbf2070072
:105bd0000000eb0010598800704080000000400079
:105be00080004000e08d2000008040001000be00da
:105bf0000200200083242400faee07000000e000e9
:105c0000010034000a00370021002000800020003d
:105c1000aaf207008000eb000000eb00e7fd0700a0
:105c20008080eb0030242b0055fc0700ffff37007d
:105c30004e0090000000e0000a0032008000eb00ff
:105c40000000eb00ddfd07001100200040002000f7
:105c50009af207008080eb0060252b0048fc0700cb
:105c6000ffff3700704080000000e80070408800af
:105c7000f0fe37001600fa00889fbe008a9fbe0023
:105c80008c9fbe0050079800700020000ef70700a0
:105c9000000478000000eb000bf7070080004400d0
:105ca0004f08de00010040000080d100400798004e
:105cb00076fd070010003700c112200040ed2f00d4
:105cc000befd070070002000fff60700000478000a
