:020000040000fa
:080000000801040000000000eb
:020000040000fa
:10020000ca06040000000000ae0704000000000061
:100210000fe3200080792200000188000000000028
:10022000050007000c000700bc05020000000000ec
:100230000040da000000fe004440a9000000200059
:100240000000e0000300320000002000a001880050
:100250004440a80000000600007c230001002000ac
:100260001600370062004000e080480091018800dd
:100270009001ba0062004000e080480091018800cf
:100280009002ba0062004000e08048000002eb00eb
:100290006028e10005003a008301e900070033000f
:1002a000038009000059eb00040037006128e100d9
:1002b000010032000082eb00050007009101880078
:1002c0001001ba000200e000e6ff3a00000005005d
:1002d000910188008002780062004000e0804800c0
:1002e0003559ba008301e900080032002559ba00e7
:1002f0008301e900050032000400e000f4ff320051
:1003000015d9ba008301e900f1ff3a0000000600a8
:10031000889fbe00e30440000900a100808f5400c4
:1003200049003600e38f540001003e0049002000e0
:10033000f06080000000e0000200320080007800e1
:100340000c00370001c2200003003700908f5400da
:10035000230036008080e800110078001100e000e2
:10036000faff3a000f003700928f54001c0036004d
:100370008280e800110178001100e000faff3a00e5
:100380001001780001c2200003003700908f540054
:10039000130036008080e80011007800820f5000c2
:1003a000faff3a00e8608000890f54000100310034
:1003b00009047800080078006b0007000000e000e6
:1003c00004003a00890f54001f0032000804d100d5
:1003d000f5ff37000818780030000700d4ff370019
:1003e000110178009201780064805100890f50005b
:1003f00003003100120090008008780007003700e9
:1004000009004100800878009201900013009800d4
:100410001100780012881400090978009101780011
:100420001100e00004003200130090008380e80017
:100430000000e00001003a008000eb00f16088005d
:100440000280e800010037000000eb004f04be000e
:10045000000006000004780006003700820041001a
:1004600020618000e10078000200e800106188004f
:10047000010001001261800030618000800f510096
:10048000f6ff390040bb20002061880020022000d8
:1004900030618800080078003a0007000000e000a2
:1004a000300032008080e90091027800e38f520032
:1004b0002c0036000508a3002a003a0002618000e3
:1004c0000200e00002003200828f50000400310080
:1004d00002087800016188001600370003017800e7
:1004e000920190000300e00002003200818f510071
:1004f000faff39001202780004004100808f50009a
:1005000018003900810f500003003a00050942002d
:1005100082007800070037000300e000030032008b
:1005200005804000808f51000e0039009300980034
:1005300011019800110190000200e0000900320052
:1005400011804000820f500006003a001e2cef0080
:1005500011009000110178009008410010009000f7
:1005600090009800000006000000e0000300340046
:100570000c000700e10f400001003a000000eb0012
:10058000000006000c02e20004003d000f42ab0038
:10059000020032000f02ab00feff32000040da0022
:1005a000feff3700889fbe008004780070618000e5
:1005b0000000e00003003a00100007000000e00027
:1005c0000a003500706180000900e00002003a0076
:1005d000000478000600370000047800090040009d
:1005e000060007000000e00001003d000084eb0071
:1005f000080078004f04be0000000600800078006c
:100600000000e00004003a0000c320007061880090
:1006100001017800060037000081eb0000e32000b4
:10062000808f500002003e00716188000001eb00e5
:100630000200780000000600839f68000100e000cf
:1006400002003d0060001000e08018000300e000a0
:1006500002003d0060011100e0811900c8000700a0
:100660004f00e00002003b0060001000e080180036
:1006700000000600889fbe008a9fbe00010578002a
:100680000100e0000400350008003c000000e0002c
:10069000200032000500370060001000e0801800e4
:1006a00002003b0001f02c001a0037000004be00dd
:1006b0006011b8006b0920000982cf0002003900e8
:1006c0000882cf000441b000694252000e0032009f
:1006d00008003b0082817100610164008904d1003f
:1006e0000884d3008b05e8000442e800f9ff3a00d3
:1006f000050037000804440089844c008b05e9009c
:100700000442e900fbff3a00ad0007000af0a70031
:1007100001f0a0004f05be004f04be00000006001f
:10072000889fbe008a9fbe008c1f7800ca00070009
:10073000d100330003866c006450e10024003200d5
:100740006420e100270032006150e1002200320005
:100750006120e100210032008b854200eb07b100ef
:100760000134b800003ab8000804420089844a0005
:10077000013ab8000030b8008880400009014a0002
:10078000040033000000400081804800020149005d
:100790008b05e900c909dd0083017000010032000a
:1007a00013002000c814de004814dd004709de00f5
:1007b0001200b200c808de00088470008000070044
:1007c00001f0a1000cf0a70001f0a000b300370079
:1007d0006120e100b50032000801be000200be0049
:1007e000f7ff37006150e100fcff3a00af0037002f
:1007f00003f0a200889fbe008a9fbe008c1f780075
:10080000950007009c0033006450e1004f00320067
:100810006420e1005200320003826c0007003b00bc
:100820000905d0000306d000820f54000c065d00bd
:1008300002003900020032008901780003067800c6
:100840008582550004003d000003fd008103fd008a
:100850008502ea008b854200840f720002003b0093
:1008600060001000e08018006011b8000005eb0087
:100870007a28e1000a00390006007800c75ddd0033
:10088000f707b200878075002d0037008281710064
:100890000a017800610560008180d1000080d300ea
:1008a0008502e900f9ff3b00060440008784480008
:1008b00002003b0060041400e0841c000988a300cf
:1008c000070032008a817100828171006101640039
:1008d0008904d1000884d3008b05e8001700370095
:1008e0000978a30013003a000b00e0001300340065
:1008f0008b05e9000804440089844c000a44740014
:100900000978a3000d003a000b00e0000700340056
:100910008b05e9000804440089844c0001003a007a
:100920000b0020000978a300f7ff32000001eb0064
:1009300002003700828171000a0178002000070060
:100940000cf0a70001f0a000540037006420e10083
:1009500002003a00838f6c00540033000801be008f
:100960000200be004d003700140020005200370086
:10097000f4ff2f0050003700040020004e00370025
:100980006022b800060220000000d0008180d20062
:100990000482d2008582d2000000a0000202520030
:1009a00083825a0003003b000202420083824a0015
:1009b0000000a1000603e900f3ff3a000000060072
:1009c00081002000618055000b003d000b002000dd
:1009d00061fe2f000100e1001d00340082817100e2
:1009e000610164008904d1000884d3000000e8009c
:1009f000faff3a00710020006100640003007000fb
:100a0000020060000900320061044400e0844c00f0
:100a10000988a500050032008b05e8006808e100a0
:100a200002003a008904d1000884d300f20f2000ac
:100a30000258e10005003d00c75ddd00f907b20086
:100a40008980750008007800000006000bf8270078
:100a50008b007800000005000004be003100070094
:100a60000003be000405be000200be002d0007000a
:100a7000844f7500000006000200be006450e100d3
:100a8000050036006420e100020036000968a3007a
:100a900001003a000800be000160a0004f06780087
:100aa0004f05be004f04be0000000600f0ff2f00ff
:100ab000f1ff2700f9ff3700889fbe008a9fbe0024
:100ac000841f7800e4ff07004f0078001100330016
:100ad000f0ff2f00838f6c0006003b0004056500cb
:100ae0000a00a7000800370009f0a6001000200047
:100af00008003700820f5400838f5c000300390028
:100b00001000200001003e000000200009f0a700b6
:100b10000000ea004f05be004f04be000000e000e8
:100b200000000600c70ade00f107b200f50fb200b0
:100b300008003200e1cf4200020032000170a00044
:100b400024000500810f7000010032000408050038
:100b500044000500810f700002003a0014000500f7
:100b60008502e9000000400081c04800fcff3b0016
:100b70000170a000240005000000fa003600070004
:100b8000ad1507006701070004000700e10f5000e2
:100b900001003a00bf180700ffff37000000fa000d
:100ba000e6c2bf000080fb004600de00614060003e
:100bb0000081fb00e7c2bf000080fb000000d10005
:100bc000614060000080fb00000040008000780071
:100bd000e7c2bf00614060000080fb000080400071
:100be0000000400080007800e6c2bf000080fb00eb
:100bf0004700de000080fb00008040000000400055
:100c0000000041000080fa00000006000200fa0027
:100c1000831307001214070089130700f1c0b30003
:100c2000c0c3b3008e130700004f7800881307007d
:100c300000c4b3009e4f100003003a0010c0b30080
:100c400028ecb700020037000040eb0028ecb700aa
:100c50000080fa00000006000000fa00c4c2a900eb
:100c6000c4e2a900c522a900c582a900c542a90005
:100c7000c5a2a900c5c2a900c5e2a900c0c2a900b9
:100c8000c0e2a900c122a900c182a900c142a900f5
:100c9000c1a2a900c1c2a900c1e2a900d022a90035
:100ca000cc22a900d042a900cc42a900e2e2a900ce
:100cb000e302a900e802a900e822a900dee2a900f7
:100cc000df02a900e402a900e422a900e202a900cf
:100cd000de02a900d602a900d622a900d642a900a8
:100ce000d662a900d682a900d6a2a900d6c2a900c0
:100cf000d6e2a900d202a900d222a900d242a900bc
:100d0000d262a900d282a900d2a2a900d2c2a900af
:100d1000d2e2a900d1a2a900cda2a900e842a9006f
:100d2000e862a900e442a900e462a900de22a8006a
:100d3000dec2a800e4c2a800e4e2a800e502a80020
:100d4000e522a800d302a800d322a800d342a8001d
:100d5000d362a800d382a800d3a2a800d3c2a8005f
:100d6000d3e2a800a9ff070028ccbf000004e000e0
:100d700001003200051607000080fa00000006009e
:100d80000000fa0028ccbf000080fb000080fa00c1
:100d9000000006000400fa00206080000000e0006f
:100da0001f003200c15f800080da2f00808f50006a
:100db0001b003500c15f800080252000808f50001f
:100dc00017003c00d602a900d622a900d642a900ed
:100dd000d662a9000000eb0020608800c05f8000a0
:100de00000017800120798001e0190000200e00048
:100df00003003d001e0190000201ea001207980066
:100e0000007122001e019000110009000200d800ac
:100e1000ef005000a06c2000e70107004d003700f4
:100e2000c05f80000000e0000c0034000060800023
:100e30000000e80000608800e05f80000000e9003a
:100e4000e05f8800e05f80000000e0000e003d00f1
:100e500030002000e05f88000b0037000060800059
:100e60000000e90000608800e05f80000000e8000a
:100e7000e05f8800e05f8000e30f50000200340074
:100e80000000eb00e05f8800e05f8000000f78006a
:100e90001e017800e10f5100130032001e0078009f
:100ea000e10f500004003c001e0178000200e00049
:100eb000080032001a0037001e007800e20f5000d0
:100ec0000e0032001e017800e30f510010003200c6
:100ed00013003700d602a900d622a800d642a900e6
:100ee000d662a8000e003700d602a900d622a800bc
:100ef000d642a800d662a90009003700d602a80091
:100f0000d622a900d642a800d662a9000400370064
:100f1000d602a800d622a900d642a900d662a8000f
:100f2000c15f800080da2f00808f500009003500fb
:100f3000c15f800080252000808f500005003c00ac
:100f40001000200020608800f1002000a06c20002c
:100f5000990107000080fa00000006000400fa0072
:100f6000306080000000e0001f003200d15f800090
:100f700080da2f00808f50001b003500d15f800089
:100f800080252000808f500017003c00d682a900e9
:100f9000d6a2a900d6c2a900d6e2a9000000eb00a3
:100fa00030608800d05f8000000178001207980050
:100fb0001e0190000200e00003003d001e019000b1
:100fc0000201ea0012079800007122001e01900041
:100fd000110009000200d800ef005000e07a200064
:100fe000750107004d003700d05f80000000e00071
:100ff0000c003d00106080000000e90010608800d7
:10100000f05f80000000e900f05f8800f05f800082
:101010000000e0000e003d0030002000f05f88007e
:101020000b003700106080000000e80010608800ae
:10103000f05f80000000e800f05f8800f05f800053
:10104000e30f5000020034000000eb00f05f880066
:10105000f05f8000000f78001e017800e10f510062
:10106000130032001e007800e10f500004003c0025
:101070001e0178000200e000080032001a0037006c
:101080001e007800e20f50000e0032001e017800b2
:10109000e30f51001000320013003700d682a90080
:1010a000d6a2a800d6c2a900d6e2a8000e0037003a
:1010b000d682a900d6a2a800d6c2a800d6e2a9006e
:1010c00009003700d682a800d6a2a900d6c2a8007f
:1010d000d6e2a90004003700d682a800d6a2a90053
:1010e000d6c2a900d6e2a800d15f800080da2f0026
:1010f000808f500009003500d15f800080252000de
:10110000808f500005003c001000200030608800f7
:10111000f1002000e07a2000270107000080fa009b
:10112000000006000000fa008000eb00a06c200028
:10113000c90007008000eb00e07a2000c60007002d
:101140000080fa00000006000200fa00000f78009c
:10115000d602a900d622a900d642a900d662a900cb
:101160001e00e00006003a000000eb00c05f8800af
:101170008000eb00a06c20000f0107002d0037005d
:1011800080c12f009e0f10000a003d0080c12f007b
:10119000c05f8800c25f8000008f2d001100090031
:1011a0000200d80080007800a06c20000201070037
:1011b00020003700803e20009e0f10000a003400ff
:1011c000803e2000c05f8800c25f80000071220066
:1011d000110009000200d80080007800a06c2000f7
:1011e000f5000700130037001e007800c05f88007c
:1011f0001e00e00008003d00008f2d001e01780059
:10120000110009000200d80080007800a06c2000c6
:10121000e900070007003700007122001e01780076
:10122000110009000200d80080007800a06c2000a6
:10123000e10007000080fa00000006000200fa004a
:10124000000f7800d682a900d6a2a900d6c2a900b4
:10125000d6e2a9001e00e00006003a000000eb0004
:10126000d05f88008000eb00e07a2000d200070009
:101270002d00370080c12f009e0f10000a003d0096
:1012800080c12f00d05f8800d25f8000008f2d00ca
:10129000110009000200d80080007800e07a2000e8
:1012a000c500070020003700803e20009e0f100080
:1012b0000a003400803e2000d05f8800d25f8000aa
:1012c00000712200110009000200d800800078009f
:1012d000e07a2000b8000700130037001e007800f5
:1012e000d05f88001e00e00008003d00008f2d0048
:1012f0001e017800110009000200d800800078006b
:10130000e07a2000ac0007000700370000712200df
:101310001e017800110009000200d800800078004a
:10132000e07a2000a40007000080fa000000060018
:101330000800fa00000f7800110798001e007800de
:10134000300798003e0190000200e00003003d00dd
:101350003e0090000000ea00300798001e01900057
:10136000220798002e0090000000e00003003d00de
:101370002e0190000201ea00220798003e00900032
:101380002e01900082004000803e2000808f50009f
:1013900006003c001e0090001e0010006aff0700bf
:1013a0001e0090001e004000a4ff07000080fa000d
:1013b000000006000000fa00006080000080fa00d3
:1013c000000006000200fa00000f78001e007800fe
:1013d000006088000080fa00000006000000fa00ab
:1013e000106080000080fa00000006000200fa0091
:1013f000000f78001e007800106088000080fa005e
:10140000000006000000fa000000eb0080088800e1
:101410000111200091407800f0ccb30000c06000c2
:1014200010e1b7000000eb0030088800205c2000cd
:101430006008880084c0a9008cc0a80011e1a80041
:101440000080fa00000006000000fa0011e1a90087
:101450000080fa00000006000800fa00100798005b
:101460002107980050618000000f78000b003700c2
:101470001e007800b00090001e009000808f500089
:1014800003003a0011002000310798001f003700c8
:101490001e007800c0009000010f78001e00e000e0
:1014a000f3ff3a00a000200099fb0700000f78002e
:1014b0001e00e00002003a0010002000e5fb0700db
:1014c000ae0090001e007800010878009e007800b1
:1014d0000000eb00900098009e00780010c0b30060
:1014e000c04098001e0078009e00900031009800d7
:1014f000516180001e007800410098001e007800b5
:101500005061880011002000310798003e009000d3
:101510000080fa00000006000800fa00200798008a
:101520000000eb001007980050618000000f780069
:101530001a0037001e007800b00090002e009000c6
:10154000808f500010003a001e0090000000e00064
:10155000050032001e007800c00090001e009000c0
:1015600041009800030037001e0078004000900002
:10157000506188001e007800c8fb070011002000a1
:1015800031079800090037001e0078001007980006
:101590001e007800c0009000010f78001e00e000df
:1015a000e4ff3a0020002000300798003e00900041
:1015b0000080fa00000006000800fa0010079800fa
:1015c0002107980050618000000f78000e0037005e
:1015d0001e007800b00090001e009000808f500028
:1015e00006003a00ae0090001e0078000108780066
:1015f0001100200031079800070037001e00780016
:10160000c0009000010f78001e00e000f0ff3a00db
:1016100020002000300798003e0090000080fa0073
:10162000000006000600fa001007980050618000d4
:10163000000f78000e0037001e007800b000900008
:101640001e009000808f500006003a009e00780037
:101650000000eb0090009800110020002107980086
:10166000070037001e007800c0009000010f7800ce
:101670001e00e000f0ff3a00200020002007980044
:101680002e0090000080fa00000006000600fa001c
:101690001007980050618000000f78000e0037009e
:1016a0001e007800b00090001e009000808f500057
:1016b00006003a009e0078000040eb00c040980011
:1016c0001100200021079800070037001e00780055
:1016d000c0009000010f78001e00e000f0ff3a000b
:1016e00020002000200798002e0090000080fa00c3
:1016f000000006000600fa00100798005061800004
:10170000000f78000e0037001e007800b000900037
:101710001e009000808f500006003a009e00780066
:1017200010c0b300c04098001100200021079800ad
:10173000070037001e007800c0009000010f7800fd
:101740001e00e000f0ff3a00200020002007980073
:101750002e0090000080fa00000006003600f8001d
:10176000809fbe00829fbe00849fbe00869fbe00f9
:101770003400f80000c0b300a00188000200fa00a5
:1017800050618000000f780084c0a9001e0037005f
:101790001e00780040409000e14f500017003a00d2
:1017a0001e007800100078000000e00013003200f6
:1017b0001e007800100090008000e8001e007800f5
:1017c000110098001e007800100090008000780042
:1017d0001e007800100078000000e900808f5000a3
:1017e000060036001e007800300090000000010066
:1017f0009e0078000000eb00900098001e0078002a
:10180000c0009000010f78001e00e000e0ff3a00e9
:101810000080fa003400f9004f03be004f02be0002
:101820004f01be004f00be003600f9000040060028
:101830002400fa00000f9800110f9800220f980062
:10184000330f9800440f9800550f9800660f9800ca
:101850000e0890004004b000000f98001e08900091
:1018600064004000100f98005e0890000000e00047
:10187000030032004e0890000000e00003003a0030
:1018800010002000700f98001f0137008e08900094
:101890002e08900080804000402c2000808f500057
:1018a0000300360021002000710f98001601370058
:1018b0009e0890003e08900080804000401e20005e
:1018c000808f50000300360030002000700f980019
:1018d0000d0137002e0890004e09900011000900fc
:1018e0000280d8008000fd000000e000030032000c
:1018f00041002000710f9800030137003e0890005e
:101900005e099000110009000280d8008000fd00ef
:101910000000e0000300320050002000700f98002b
:10192000f90037005e089000630060000000e000ee
:1019300039003a004e089000630060000000e000ab
:1019400011003a0000082000000f7800400020003d
:10195000100798005e0890004200de0030079800f3
:101960004e0890004200de00200798001e089000fc
:1019700064005000100f98000e08900064005000a2
:10198000000f98005a0037004e0890006100600078
:101990000000e00011003a0000042000000f780071
:1019a00020002000100798005e0890000000d10081
:1019b000300798004e0890000000d10020079800e2
:1019c0001e0890000080e900100f98000e0890009b
:1019d0000080e900000f9800450037000002200059
:1019e000000f78001000200010079800de0890001b
:1019f000310798004e089000200798001e089000bc
:101a00000000e900100f98000e0890000000e900a7
:101a1000000f9800360037005e08900061006000fb
:101a20000000e00024003a004e08900061006000d1
:101a30000000e00011003a0000042000000f7800d0
:101a400020002000100798005e0890000000d100e0
:101a5000300798004e0890000000d1002007980041
:101a60001e0890000080e900100f98000e089000fa
:101a70000080e900000f98001d00370000022000e0
:101a8000000f78001000200010079800de0890007a
:101a9000310798004e089000200798001e0890001b
:101aa0000000e900100f98000e0890000000e90007
:101ab000000f98000e00370010002000100798005b
:101ac00000022000000f7800ce0890002107980047
:101ad0005e089000300798001e0890000000e900a2
:101ae000100f98000e0890000000e900000f980009
:101af0002e0090000000e900600798003e00900072
:101b00000000e900700798002e0890004e09900030
:101b1000110009000280d800500798003e0890008c
:101b20005e099000110009000280d800400798006b
:101b3000502c20001e019000110009000200d80066
:101b4000800078001e0190000e089000811f780030
:101b5000110009000280d80001017800cf00780050
:101b6000300907000000e00003003200610020009f
:101b7000710f980064003700501e20001e01900075
:101b8000110009000200d800800078001e019000ba
:101b90001e089000811f7800110009000280d80003
:101ba00001017800cf007800490907000000e0003b
:101bb0000300320070002000700f980052003700c0
:101bc000411e20001e089000470907000000e000a9
:101bd0000300320081002000710f98004a00370096
:101be0006e0890000000e00018003a001e00780027
:101bf00000179800000420008e109000808f500085
:101c00000c003200000820008e109000808f5000e1
:101c10000b003200000220008e109000808f5000d8
:101c2000010032002000370040c0b3004708070021
:101c30001d00370020c0b300440807001a00370019
:101c40000040eb0041080700170037001e00780035
:101c500010179800000420009e109000808f500004
:101c60000c003200000820009e109000808f500071
:101c70000b003200000220009e109000808f500068
:101c8000010032000800370050c0b3002f080700e1
:101c90000500370040c0b3002c08070002003700e1
:101ca00020c0b300290807001e007800804078009b
:101cb0006e089000af0807000000e000030032004b
:101cc00090002000700f98000f0037006e08900001
:101cd00010000700000178007e029000ee019000e5
:101ce000de0090004e009000e90907000000e000cf
:101cf00003003200a1002000710f9800020037009d
:101d00000000eb00700f98007e0890000080fa0041
:101d1000000006000600fa00000f78001e007800a0
:101d2000200798002e009000e10f50000a003200ba
:101d30002e009000e20f50000a0032002e009000aa
:101d40000000e00001003200090037001000200010
:101d500010079800080037002000200010079800a6
:101d6000050037002000200010079800020037000f
:101d700010002000100798001e0090000080fa005c
:101d8000000006001200fa00000f7800110798000a
:101d900022079800330798004407980055079800d9
:101da0006607980060618000000f9800000326001d
:101db0008e089000808f500013003200000328002e
:101dc0008e089000808f500019003200000323001d
:101dd0008e089000808f5000010032001e003700f6
:101de0006e039000de0290004e029000be01900053
:101df0002e0190009e0090001e007800f709070059
:101e000070079800160037006e039000de02900005
:101e10004e029000be0190002e0190009e009000a6
:101e20001e007800270b0700700798000c00370091
:101e30006e039000de0290004e029000be01900002
:101e40002e0190009e0090001e00780078fe070092
:101e50007007980002003700b0002000700798005b
:101e60007e0090000080fa00000006000600fa00e4
:101e7000000f78001107980060618000200798002b
:101e800000032600ae009000808f50000d0032004d
:101e900000032800ae009000808f50000d0032003b
:101ea00000032300ae009000808f5000010032003c
:101eb0000b0037009e0090001e0078003e020700d5
:101ec000070037009e0090001e007800cf06070034
:101ed000030037009e0090001e007800c008070035
:101ee0000080fa00000006000000fa006161800036
:101ef00000032300808f50000100320001003700f2
:101f0000160107000080fa00000006000400fa0035
:101f100051fb0700c20e0700d1a2a9004006200015
:101f20001007980004003700000000001e00900019
:101f30000000e900100798001e0090000000e0007b
:101f4000f9ff3a00d1a2a80040062000100798002f
:101f500004003700000000001e0090000000e900af
:101f6000100798001e0090000000e000f9ff3a0002
:101f700081e0a900f1048000f0002f008080600063
:101f80000066200000804000f00488008040eb00e4
:101f9000c0cdb300b20e07001047980011c0b300c7
:101fa000c0cdb300ae0e0700004f78001e40900079
:101fb0000080fb00000040000000400000004000e6
:101fc0000000400000004000000040000000400011
:101fd00000004000800078001e80fb000080700040
:101fe000606188006161800000032300808f5000e1
:101ff00004003a008000eb000000eb009bff0700ac
:10200000100037006161800000032600808f5000bf
:1020100004003a00110020001000200093ff070088
:10202000080037006161800000032800808f5000a5
:1020300004003a008000eb000000eb008bff07007b
:1020400038070700a8ff0700606180000080fa00e1
:10205000000006000800fa002007980031079800e9
:1020600032c0bf000080fb00000f78002e009000ff
:1020700032e0b7003e0090001000ba001007980050
:102080001e00780032e0b7001e0090000080fa00c9
:10209000000006000600fa0060618000200798003a
:1020a00000032600ae009000808f50002100320017
:1020b00000032800ae009000808f50002000320006
:1020c00000032300ae009000808f5000010032001a
:1020d0001e003700e1ff2f00f0072000ddff0700a2
:1020e00063006000100798001e009000e20f50008f
:1020f0000a0032009e009000e38f50000a00320078
:102100001e009000e10f500001003200090037006e
:1021100011002000010f78000e0037002000200081
:10212000000f78000b0037008000eb00010f7800f3
:102130000800370010002000000f7800050037006d
:1021400011002000010f7800020037000080eb0032
:10215000000f78001e0078000080fa0000000600e2
:102160000600fa00000f78001107980060618000f7
:102170002007980000032600ae009000808f5000da
:102180000d00320000032800ae009000808f500048
:102190000d00320000032300ae009000808f50003d
:1021a000010032000b0037009e0090001e007800f6
:1021b0008b030700070037009e0090001e00780088
:1021c0002f060700030037009e0090001e007800d5
:1021d000200807000080fa00000006000600fa0050
:1021e000004f7800114798002247980060618000f6
:1021f0002007980000032600ae009000808f50005a
:102200001000320000032800ae009000808f5000c4
:102210001100320000032300ae009000808f5000b8
:1022200001003200100037002e4290009e419000c5
:102230001e4190009e40780080c2b300c401070098
:10224000090037002e4190009e4090001e4078000b
:102250002f060700040037002e4190009e4090009a
:102260001e4078001f0807000080fa0000000600ea
:102270000600fa00008fbe00606180002007980011
:1022800000032600ae009000808f50000c0032004a
:1022900000032800ae009000808f50000b00320039
:1022a00000032300ae009000808f50000100320038
:1022b000080037001e00be00bc0207000500370002
:1022c0001e00be0024060700020037001e00be00ec
:1022d000160807000080fa00000006000000fa005f
:1022e000606180000080fa000000060000a0fe008f
:1022f00086a0a9001421ef0000000000114080001a
:10230000a280200013002000321ce10005003200f2
:102310000800350000000000000000000000000080
:10232000f9ff3700a01680004800de0080587800d2
:10233000f5ff3700114088000628ec00304080008f
:102340000808e30003003a00100020002040880045
:102350001fe1a9000080fe00004006000200fa0014
:10236000b70d07000000eb00000f78000d003700ec
:102370009e00e80080a92000008040001040780006
:10238000004178009e00780080a920000080400075
:102390001040780080407800c0cdb300d40d070015
:1023a0001e8fe8009e007800700d2000808f500086
:1023b000efff3600a60d07000080fa0000000600bf
:1023c0000200fa00881f78009d0d07000000eb0056
:1023d000000f78000d0037001e04e8009e00780012
:1023e00080a92000008040001040780080407800e4
:1023f000c0cdb3009a0d07008040780080a920006e
:1024000000004400014878001e8fe8009e0078001c
:10241000700d2000808f5000efff36008c0d0700fc
:102420004f0478000080fa00000006000600fa0061
:10243000000f78001e007800200798002e00900002
:10244000e10f50000a0032002e009000e20f500011
:102450000a0032002e0090000000e000010032006f
:1024600009003700c0c0b300dbeab700090037003d
:1024700080c0b300dbeab7000600370020c0b3001d
:10248000dbeab700030037000080eb00100798007c
:10249000020037000000eb00100798001e009000bb
:1024a0000080fa00000006000400fa00000f780027
:1024b000400420009e0f1000060032001001200092
:1024c0009e0f100003003200300320009e0f10000a
:1024d00005003a001e007800cbeab7000000eb00d0
:1024e00010079800020037000080eb0010079800ea
:1024f0001e0090000080fa00000006000400fa00b0
:10250000000f78001e00e0001500320000022000dd
:102510009e0f100012003200000320009e0f1000da
:102520000f003200000420009e0f10000c0032004b
:10253000000520009e0f1000090032000006200058
:102540009e0f100006003200000620009e0f1000b3
:1025500003003200000120009e0f100005003a0029
:102560001e007800c5eab7000000eb0010079800d5
:10257000020037000080eb00100798001e0090005a
:102580000080fa00000006000a00fa002007980008
:1025900031079800ae0090003e009000808f500000
:1025a000030039000080eb00400798001e00370050
:1025b000be00900030382000808f500003003600ad
:1025c0000080eb0040079800170037002e009000b5
:1025d0000000e900200798002e0090002047980096
:1025e0002e0090004800de00304798003e0090002a
:1025f000004f78003e0090004800de001047980031
:102600003e409000a1eab7002e409000a3eab70038
:102610001e409000a9eab7001e407800abeab70060
:102620000000eb00400798004e0090000080fa0088
:10263000000006000a00fa00200798003107980001
:10264000ae0090003e009000808f500003003900e3
:102650000080eb00400798001b003700be00900090
:10266000301f2000808f5000030036000080eb00f8
:1026700040079800140037002e0090002047980073
:102680002e0090004800de00304798003e00900089
:10269000004f78003e0090004800de001047980090
:1026a0003e409000a5eab7002e409000a7eab70090
:1026b0001e409000adeab7001e407800afeab700b8
:1026c0000000eb00400798004e0090000080fa00e8
:1026d000000006000e00fa0030079800410798003d
:1026e00052079800be0090004e009000808f50006e
:1026f000030039000080eb00600798002b003700d2
:10270000ce009000301f2000808f50000300360064
:102710000080eb006007980024003700de00900086
:1027200030382000808f5000030036000080eb001e
:10273000600798001d0037003e0090004047980059
:102740003e0090004800de00504798004e00900088
:10275000204798004e0090004800de003047980067
:102760005e009000104798005e0090004800de0078
:10277000004f78005e40900029ebb7004e4090007b
:102780002bebb7003e4090002debb7002e409000a1
:102790002febb7001e40780031ebb7001e409000d1
:1027a00033ebb7000000eb00600798006e0090006c
:1027b0000080fa00000006000600fa0010079800ea
:1027c000210798001e0090000000e0000600320083
:1027d0002e0090000000e00003003200a0ccb30007
:1027e000004f78000e0037001e0090000000e0004f
:1027f00003003200a0c4b300004f78000800370087
:102800002e0090000000e00003003200a0c8b300da
:10281000004f780002003700a0c0b300004f7800de
:102820001e407800c7eab7000080fa0000000600ea
:102830000600fa0020479800314798000000eb009e
:10284000000f7800100037009e00780080a920005b
:1028500000804000904078002e40900080cf5000d3
:1028600008003a001e00e80081a920000100400095
:10287000be409000014878000000eb00200798005f
:10288000070037001e8fe8009e007800700d2000c2
:10289000808f5000ecff36008080eb00210798000d
:1028a0002e0090000080fa00000006000800fa00e8
:1028b00020479800210798000000eb00000f7800e7
:1028c000110037009e00780080a9200000804000a1
:1028d000904078002e40900080cf500009003a00d0
:1028e0009e00e80080a92000008040009040780011
:1028f0002e009000014878000000eb00300798009f
:10290000070037001e8fe8009e007800700d200041
:10291000808f5000ebff36000080eb0030079800fe
:102920003e0090000080fa00000006000200fa005d
:10293000004f7800114798001e409000b1eab700a0
:102940001e407800b3eab7000080fa0000000600dd
:102950000800fa00004f78001147980022479800bd
:102960003347980044479800f0c4b3009e4f1000ce
:10297000030036000080eb00300798000c003700a1
:102980001e407800b5eab7001e409000b7eab700d5
:102990002e409000b9eab7004e409000bbeab70065
:1029a0003e409000bdeab7000000eb003007980001
:1029b0003e0090000080fa00000006000400fa00cb
:1029c000008fbe001e00be004a09dd004600de008a
:1029d00000007100c608de00c1eab7001e00be009c
:1029e0004209dd004e00de0000007100ce08de006e
:1029f000bfeab7000040eb00c3eab7000080fa006e
:102a0000000006000200fa00004f78001e40780027
:102a1000cdeab7000080fa00000006000200fa00cc
:102a2000000f78001e00e00005003200ddcabf0084
:102a300001c8b30001407000ddeab70003003700b1
:102a4000ddcabf000074a100ddeab7000080fa0013
:102a5000000006000400fa00004f780011479800bb
:102a6000224798001e407800e1eab7001e4090001f
:102a7000e3eab7002e409000e5eab7000080fa00d4
:102a8000000006000200fa00004f7800114798008d
:102a90001e4078007f4060000045b000e7eab700c4
:102aa0001e409000e9eab7000080fa00000006002e
:102ab0000600fa0010079800414798004e40900029
:102ac0000000fb00630060000000400000004000c8
:102ad00000004000000040000000400080407800fe
:102ae00000c8b30000c040006febb7000000eb006f
:102af000000f78000d0037001e0078000000400035
:102b000032052000000141001e007800800078009e
:102b10001e009000008040009040780080a92000b6
:102b200000004100014878001e0fe8001e007800f8
:102b3000e10f5000f0ff36000080fa0000000600b0
:102b40000000fa00be0b07006fcbbf000041780009
:102b50006ecbbf0080407800c0cdb300e40b07000f
:102b6000bb0b070001b0200091407800eacabf000b
:102b7000020007000080fa00000006000600fa00cc
:102b800040479800514798000000eb00000f780084
:102b9000ab0b07000000eb00100798001f00370088
:102ba0009e00900080a920000080400090407800a6
:102bb0004e40900080cf5000150039009e009000dc
:102bc00080a9200000804000904078005e40900086
:102bd00080cf50000e003e001e0090008000e800f4
:102be00080a920000080400010407800004178005b
:102bf0009e00900080a920000080400010407800d6
:102c000080407800c0cdb300b90b07001e0fe8006c
:102c10001e0090000080e800100798009e009000c1
:102c2000700d2000808f5000ddff3600880b0700fc
:102c30001e0078000080fa00000006000400fa0080
:102c4000100798000000eb00000f78000d0037001f
:102c50001e00780000004000b20620000001410084
:102c60001e007800800078001e0090000080400068
:102c70009040780080a920000000410001487800c1
:102c80001e0fe8001e007800e10f5000f0ff360034
:102c90000080fa00000006000200fa00004f7800f1
:102ca000114798001e40780015ebb7001e409000b9
:102cb00017ebb7000080fa00000006000200fa00df
:102cc000004f7800114798001e40780019ebb700bc
:102cd0001e4090001bebb7000080fa0000000600c9
:102ce0000200fa00004f7800114798001e4078005b
:102cf0001debb7001e4090001febb7000080fa00ec
:102d0000000006000200fa00004f78001e80fb0061
:102d100000004000000040000000400000004000b3
:102d20006f40400035ebb7000080fa00000006005d
:102d30000200fa00004f7800114798001e80fb0047
:102d40000000400000004000000040000000400083
:102d5000804078001e4090006f40600000c040003e
:102d600037ebb7000080fa00000006000200fa000e
:102d7000004f7800114798001e4090000080fb0033
:102d80000000400000004000000040000000400043
:102d9000804078001e4078006f40600000c0400016
:102da00039ebb7000080fa00000006000400fa00ca
:102db000008fbe001e00be004088de00cf80de0017
:102dc0003bebb7001e00be004809dd004800de00f6
:102dd00000007100c888de003debb7001e007800df
:102de0003febb7000080fa00000006000200fa0086
:102df000004f78001e40780041ebb7000080fa00d9
:102e0000000006000400fa00000f78001107980087
:102e10001e0078004800de0047ebb7001e00780077
:102e200049ebb7001e0090004800de004bebb700f6
:102e30001e0090004debb7000080fa000000060075
:102e40000600fa00004f78001147980022479800ca
:102e50003347980044479800554798002e4090000b
:102e60004febb7003e40900051ebb7001e4078009a
:102e700053ebb7001e40900055ebb7004e4090005a
:102e800057ebb7005e40900059ebb7000080fa00a6
:102e9000000006000a00fa00000f780011079800f1
:102ea0002207980033079800200d20001e0f4000d5
:102eb0001e009000200db000100798002e0090001a
:102ec00067004000200798003e0090006700400027
:102ed000300798009e00900020352000808f500021
:102ee000030036000080eb004007980039003700ef
:102ef000be009000701e2000808f5000030036003e
:102f00000080eb0040079800320037001e00900060
:102f10009e0f100004003100ae0090003e009000b3
:102f2000808f5000030039000080eb0040079800bc
:102f300028003700501a20009e0f10000c003600a9
:102f40009e00900090272000808f500008003e00d7
:102f5000ae009000700a2000808f50000400360000
:102f6000be00900060142000808f500003003600e7
:102f70000080eb0040079800160037001e00780024
:102f80004800de005bebb7001e0078005debb70089
:102f90001e0090004800de005febb7001e009000ae
:102fa00061ebb7002e0090004800de0063ebb70035
:102fb0002e00900065ebb7003e0090004800de0058
:102fc00067ebb7003e00900069ebb7000000eb0034
:102fd000400798004e0090000080fa0000000600b4
:102fe0000600fa0010079800210798001e009000c4
:102ff0000000e000060032002e0090000000e0001b
:1030000003003200c0c3b300004f78000e00370049
:103010001e0090000000e00003003200c0c2b300b8
:10302000004f7800080037002e0090000000e000fc
:1030300003003200c0c1b300004f78000200370027
:10304000c0c0b300004f78001e4078006bebb700a3
:103050000080fa00000006000200fa00000f78006d
:103060001e00e00005003200cfcabf00f1c7b30068
:1030700001406000cfeab70004003700cfcabf00ac
:1030800001c8b30001407000cfeab7000080fa0029
:10309000000006000400fa00000f780011079800f5
:1030a0001e00e00005003200cfcabf00f1cbb30024
:1030b00001406000cfeab70004003700cfcabf006c
:1030c00001c4b30001407000cfeab7001e009000b9
:1030d0000000e00005003200cfcabf00f1cdb30010
:1030e00001406000cfeab70004003700cfcabf003c
:1030f00001c2b30001407000cfeab7000080fa00bf
:10310000000006000a00fa00c5cabf000080fb00ec
:103110004007980000032000ce009000808f5000f0
:103120003100320000032000ce009000808f50005c
:103130000b003c004e009000f00f500022003200c7
:1031400000022000ce009000808f5000220032004c
:103150004e0090000000e0001700320036003700fb
:1031600000052000ce009000808f50002600320025
:1031700000052000ce009000808f500005003c002c
:1031800000042000ce009000808f50001a00320012
:103190002900370000062000ce009000808f5000ec
:1031a0001d00320000072000ce009000808f5000ec
:1031b0001d00320020003700000028000107200019
:1031c000008fbe00200037000000200061092000b1
:1031d000008fbe001c003700000024008103200087
:1031e000008fbe001800370000002200c10120003f
:1031f000008fbe001400370000002100e100200015
:10320000008fbe00100037000080200071002000f9
:10321000008fbe000c003700004028003100200065
:10322000008fbe000800370000202c001100200095
:10323000008fbe00040037006000b800200798002f
:10324000310798000a003700dbcabf00ec4f50007e
:1032500004003a001e00be000000400081804800cb
:10326000008fbe001e00be002007980031079800a6
:103270002e009000be0090000080fa0000000600c2
:103280001000fa00200798003107980042079800c4
:1032900053079800640798005e0090000000e0006b
:1032a000030035005e009000e30f5000030034007f
:1032b0000080eb00700798004d0037006e00900012
:1032c0000000e000030035006e009000e30f5000a6
:1032d000030034000080eb007007980044003700c2
:1032e00088ff07000001be00606a20000013b800dc
:1032f0006010b9000702780000024200606a2000f6
:103300000098b90000024200840378002e0090006b
:103310006101b9000600be00c7f40700100798005d
:1033200078ff07000001be00606a20000013b800ab
:103330006010b9000702780000024200606a2000b5
:103340000098b90000024200840378003e0090001b
:103350006101b9000600be00b7f40700000f780055
:103360001e0090004800de00d3eab7001e00900067
:10337000d5eab7001e0078004800de00d7eab700a3
:103380001e007800d9eab7004e0090000000e0006f
:1033900004003200cfcabf000044a000cfeab7004b
:1033a00004003700cfcabf00f1ceb3000140600077
:1033b000cfeab7006e009000e34060005e0090002e
:1033c00063006000000040000000400000c14000b9
:1033d000cfcabf008040780000cfb30000c06000bb
:1033e00000404100cfeab7000000eb0070079800f2
:1033f0007e0090000080fa00000006000200fa0043
:10340000004f78008e0907001e41780031c0b300dc
:10341000c0cdb300b60907008d0907000080fa008f
:10342000000006000400fa00004f780011479800e1
:10343000224798001e407800f0ff0700800907002f
:103440002e4190009e409000c0cdb300a809070017
:103450007f0907000080fa00000006000400fa005f
:1034600020479800314798002e409000e3ff070066
:1034700073090700be409000c0cdb3007809070073
:10348000004f7800720907001e80fb000080fa00e0
:10349000000006000200fa00004f78001e4178008c
:1034a00011c9b3000040eb00deff07000080fa0006
:1034b000000006000200fa00004f78001e4178006c
:1034c00081c6b30010c0b300d6ff07000080fa0029
:1034d000000006000600fa00004f78001e80fb0086
:1034e0002007980000042000ae009000808f50005c
:1034f0001a00320000082000ae009000808f5000bb
:103500002700320000022000ae009000808f5000a3
:10351000010032003300370010c0b300e5ff0700a0
:103520001e41780001c8b30010c0b300bdff070002
:103530001e41780011c8b30010c0b300b9ff0700e6
:1035400012c0b30021c8b30010c0b300b5ff07001c
:103550000000eb00100798002400370030c0b300d3
:10356000d4ff07001e41780001c8b30010c0b300ab
:10357000acff07001e41780011c8b30010c0b300b3
:10358000a8ff070012c0b30021c8b30010c0b300e9
:10359000a4ff07008000eb0011079800130037001c
:1035a00070c0b300c3ff07001e41780001c8b3001c
:1035b00010c0b3009bff07001e41780011c8b30084
:1035c00010c0b30097ff070012c0b30021c8b300ba
:1035d00010c0b30093ff07000000eb001007980035
:1035e000020037008080eb00110798001e00900059
:1035f0000080fa00000006000600fa00004f780084
:103600001e80fb002007980000042000ae00900000
:10361000808f50001a00320000082000ae00900099
:10362000808f50002700320000022000ae00900082
:10363000808f500001003200330037000040eb0063
:103640009cff07001e41780001c8b30010c0b30002
:1036500074ff07001e41780011c8b30010c0b3000a
:1036600070ff070012c0b30021c8b30010c0b30040
:103670006cff07000000eb001007980024003700e3
:1036800010c0b3008bff07001e41780001c8b300d3
:1036900010c0b30063ff07001e41780011c8b300db
:1036a00010c0b3005fff070012c0b30021c8b30011
:1036b00010c0b3005bff07008000eb00110798000b
:1036c0001300370030c0b3007aff07001e417800b6
:1036d00001c8b30010c0b30052ff07001e417800bc
:1036e00011c8b30010c0b3004eff070012c0b300f2
:1036f00021c8b30010c0b3004aff07000000eb0070
:1037000010079800020037008080eb001107980036
:103710001e0090000080fa00000006000600fa007b
:10372000004f7800114798001e80fb00200798008a
:103730002e009000e10f50000f0032002e0090008c
:10374000e20f5000140032002e0090000000e00054
:103750000100320018003700d2c0b30081c3b300ab
:1037600010c0b3002fff07001e40900059ff070054
:10377000100798001200370082c0b30081c3b30065
:1037800010c0b30027ff07001e4090009aff0700fb
:10379000100798000a00370022c0b30081c3b300ad
:1037a00010c0b3001fff07001e40900092ff0700eb
:1037b00010079800020037000080eb001007980007
:1037c0001e0090000080fa00000006000a00fa00c7
:1037d0002007980031079800ae0090003e0090004e
:1037e000808f5000030039000080eb0040079800f4
:1037f0001e003700be009000f0312000808f500086
:10380000030036000080eb004007980017003700e7
:103810002e0090000000e900200798002e00900084
:10382000204798002e0090004800de0030479800a6
:103830003e009000004f78003e0090004800de00ff
:10384000104798002e41900011c5b30010c0b3007e
:10385000f4fe07003e41900001c5b30010c0b30064
:10386000f0fe07000000eb00400798004e009000bb
:103870000080fa00000006000800fa002007980007
:10388000310798000000eb000080fa0000000600fd
:103890000a00fa002007980031079800ae00900057
:1038a0003e009000808f5000030039000080eb0044
:1038b0004007980023003700be009000301f200012
:1038c000808f5000030036000080eb004007980016
:1038d0001c0037002e009000204798002e0090001a
:1038e0004800de00304798003e009000004f78000e
:1038f0003e0090004800de00104798003e419000d6
:1039000001c6b30010c0b300c6fe07002e419000f0
:1039100011c6b30010c0b300c2fe07001e419000e4
:1039200021c6b30010c0b300befe07001e417800e0
:1039300031c6b30010c0b300bafe07000000eb00b0
:10394000400798004e0090000080fa00000006003a
:103950000200fa00000f780012c0b300a1c5b30046
:1039600020c0b300affe070012c4b30021c3b300f0
:1039700010c0b300abfe07001e00e00011003a00cb
:1039800000c1eb0081c8b30010c0b300a5fe070062
:1039900000c1eb0091c8b30010c0b300a1fe070046
:1039a00082c0b300a1c8b30010c0b3009dfe0700e1
:1039b00000c1eb00b1c8b30010c0b30099fe07000e
:1039c0001000370002c2b30081c8b30010c0b300ba
:1039d00094fe070002c8b30091c8b30010c0b30042
:1039e00090fe070082c0b300a1c8b30010c0b300ae
:1039f0008cfe070000c1eb00b1c8b30010c0b300db
:103a000088fe07000080fa00000006000600fa00a9
:103a1000100798002107980001c9b3000040eb008f
:103a20008efe0700004f78001e0090000000e000ae
:103a30000300320000c8b3001e4f700002003700c0
:103a4000f0c7b3001e4f60002e0090000000e000a1
:103a50000300320000c4b3001e4f700002003700a4
:103a6000f0cbb3001e4f60001e41780001c9b300c7
:103a70000040eb006bfe07000080fa00000006002b
:103a80000600fa00100798002107980080c9b300cb
:103a9000004f78001e0090000000e00001003a0096
:103aa0001e24a0002e0090000000e0000a003a0052
:103ab0001e04a0000041eb0051c5b30020c0b300bc
:103ac00058fe07000041eb0061c5b30020c0b30001
:103ad00054fe07000800370082c0b30051c5b30090
:103ae00020c0b3004ffe0700c2c0b30061c5b300e1
:103af00020c0b3004bfe07001e41780041c0b30058
:103b000020c0b30047fe07000080fa000000060056
:103b10000400fa00004f78001147980022479800ef
:103b20001e41780041cab30020c0b3003dfe07002b
:103b30001e41900051cab30020c0b30039fe0700f7
:103b40002e41900061cab30020c0b30035fe0700cb
:103b50000080fa00000006000400fa00008fbe009a
:103b60001e00be004808de00010020000041780071
:103b7000c1c2b30020c0b3002afe07001e00be0071
:103b80004008de000100200000417800d1c2b300ef
:103b900020c0b30023fe07001e00be004809dd0060
:103ba0004800de0000007100c808de000041780017
:103bb000e1c2b30020c0b3001afe07001e00780067
:103bc00000417800f1c2b30020c0b30015fe070029
:103bd0000080fa00000006000200fa00004f7800a2
:103be000970707001e41780031c0b300c0cdb30075
:103bf000bf070700960707000080fa0000000600d4
:103c00000400fa00004f78001147980022479800fe
:103c10001e407800f0ff0700890707002e41900042
:103c20009e409000c0cdb300b10707008807070091
:103c30000080fa00000006000400fa002047980007
:103c4000314798002e409000e3ff07007c070700f3
:103c5000be409000c0cdb30081070700004f780040
:103c60007b0707001e80fb000080fa0000000600b2
:103c70000400fa00204798002e409000d6ff07006d
:103c80006f07070031c0b300c0cdb3007407070051
:103c9000004f78006e0707001e80fb000080fa00ce
:103ca000000006000200fa000040eb00caff070017
:103cb00063070700b1c5b300c0cdb30068070700b4
:103cc000004f78001e4078001047980060070700fa
:103cd000f1c7b3001e4090000140600010479800fb
:103ce0009e409000f0cbb30000c0600010479800e9
:103cf0009e40900070cfb30000c060001047980055
:103d00004f0707001e419000b1c5b300c0cdb300fe
:103d1000770707004e0707001e80fb000080fa00af
:103d2000000006000200fa000040eb00004f78009f
:103d3000dcff0700004f780080c2b3009b01070042
:103d40001e80fb000080fa00000006000200fa005e
:103d5000004f78001e417800a1c6b3000040eb0080
:103d6000a7ff07000080fa00000006000200fa002a
:103d7000004f78001e41780071cbb30010c0b30033
:103d80009fff07000080fa00000006000600fa000e
:103d9000004f78001e80fb002007980000042000e0
:103da000ae009000808f5000160032000008200006
:103db000ae009000808f50001f00320000022000f3
:103dc000ae009000808f50000100320027003700c5
:103dd00010c0b300e5ff07001e41780031c9b300f1
:103de00010c0b30086ff07001e41780041c9b30030
:103df00010c0b30082ff07000000eb00100798001e
:103e00001c00370030c0b300d8ff07001e41780007
:103e100031c9b30010c0b30079ff07001e4178001c
:103e200041c9b30010c0b30075ff07008000eb006c
:103e3000110798000f00370070c0b300cbff0700d8
:103e40001e41780031c9b30010c0b3006cff0700f9
:103e50001e41780041c9b30010c0b30068ff0700dd
:103e60000000eb0010079800020037008080eb0094
:103e7000110798001e0090000080fa000000060064
:103e80000600fa00004f78001e80fb002007980013
:103e900000042000ae009000808f50001600320019
:103ea00000082000ae009000808f50001f003200fc
:103eb00000022000ae009000808f50000100320010
:103ec000270037000040eb00a8ff07001e417800e4
:103ed00031c9b30010c0b30049ff07001e4178008c
:103ee00041c9b30010c0b30045ff07000000eb005c
:103ef000100798001c00370010c0b3009bff07009c
:103f00001e41780031c9b30010c0b3003cff070068
:103f10001e41780041c9b30010c0b30038ff07004c
:103f20008000eb00110798000f00370030c0b3008d
:103f30008eff07001e41780031c9b30010c0b300e6
:103f40002fff07001e41780041c9b30010c0b30025
:103f50002bff07000000eb0010079800020037005d
:103f60008080eb00110798001e0090000080fa008e
:103f7000000006000600fa00004f78001147980084
:103f80001e80fb00200798002e009000e10f5000db
:103f90000f0032002e009000e20f5000140032009b
:103fa0002e0090000000e0000100320018003700f1
:103fb00032c4b300e1c4b30010c0b30010ff070067
:103fc0001e40900071ff0700100798001200370094
:103fd00002c3b300e1c4b30010c0b30008ff070080
:103fe0001e409000a6ff0700100798000a00370047
:103ff00022c0b300e1c4b30010c0b30000ff07004b
:104000001e4090009eff0700100798000200370036
:104010000080eb00100798001e0090000080fa005e
:10402000000006000a00fa002007980031079800f7
:10403000ae0090003e009000808f500003003900d9
:104040000080eb00400798001e003700be00900083
:1040500070302000808f5000030036000080eb009d
:1040600040079800170037002e0090000000e9007c
:10407000200798002e009000204798002e00900006
:104080004800de00304798003e009000004f780066
:104090003e0090004800de00104798002e4190003e
:1040a00091c0b3000040eb00d5fe07003e419000f8
:1040b00081c0b3000040eb00d1fe07000000eb0020
:1040c000400798004e0090000080fa0000000600b3
:1040d0000800fa0020079800310798000000eb0064
:1040e0000080fa00000006000a00fa00200798008d
:1040f00031079800ae0090003e009000808f500085
:10410000030039000080eb004007980023003700cf
:10411000be00900030202000808f50000300360049
:104120000080eb00400798001c0037002e00900034
:10413000204798002e0090004800de00304798008d
:104140003e009000004f78003e0090004800de00e6
:10415000104798003e41900001c1b3000040eb00c1
:10416000a7fe07002e41900011c1b3000040eb00f4
:10417000a3fe07001e41900021c1b3000040eb00e8
:104180009ffe07001e41780031c1b3000040eb00e4
:104190009bfe07000000eb00400798004e009000d7
:1041a0000080fa00000006000200fa00000f78000c
:1041b0001e00e00008003a0002c8b30041c0b3008e
:1041c00010c0b3008efe070022c0b30061c0b30070
:1041d00010c0b3008afe07000080fa00000006004d
:1041e0000600fa001007980021079800c1c6b30026
:1041f0000040eb0090fe0700004f78001e0090008a
:104200000000e0000300320000c8b3001e4f700041
:1042100002003700f0c7b3001e4f60002e00900070
:104220000000e0000300320000c4b3001e4f700025
:1042300002003700f0cbb3001e4f60001e41780033
:10424000c1c6b3000040eb006dfe07000080fa001d
:10425000000006000600fa001007980021079800e9
:1042600080c9b300004f78001e0090000000e000fd
:1042700001003a001e24a0002e0090000000e00083
:104280000a003a001e04a0000041eb0081c4b30004
:1042900020c0b3005afe07000041eb0091c4b300f8
:1042a00020c0b30056fe07000800370082c0b300ec
:1042b00081c4b30020c0b30051fe0700c2c0b300e8
:1042c00091c4b30020c0b3004dfe07001e4178002a
:1042d00041c0b30020c0b30049fe07000080fa00cf
:1042e000000006000400fa00004f78001147980013
:1042f000224798001e41780031c2b3000040eb0015
:104300003ffe07001e41900041c2b3000040eb0099
:104310003bfe07002e41900051c2b3000040eb006d
:1043200037fe07000080fa00000006000400fa00d3
:10433000008fbe001e00be004808de000100200005
:104340000041780021c1b30020c0b3002cfe07005b
:104350001e00be004008de00010020000041780081
:1043600031c1b30020c0b30025fe07001e00be000f
:104370004809dd004800de0000007100c808de00ca
:104380000041780041c1b30020c0b3001cfe07000b
:104390001e0078000041780051c1b30020c0b30076
:1043a00017fe07000080fa00000006000200fa0075
:1043b000004f78001e417800e1c9b30010c0b3007f
:1043c0000ffe07000080fa00000006003400f8002d
:1043d000881f780008c0b300a80188004f04780047
:1043e0000000fa0086c0a9001fe1a80021e1a90091
:1043f0000080fa003400f900004006000000fa00d6
:1044000020002000000988000000eb00c0088800a0
:1044100010002000e008880086c0a9008ec0a80017
:1044200021e1a8000080fa00000006000000fa0068
:1044300020002000f008880000408000a0088800cc
:10444000004080000000e800d008880086a0a90095
:104450001fe1a9008ea0a8000080fa00000006005d
:104460000200fa00000f78000000eb0030408800e6
:104470001e007800104088000000eb0020408800fb
:10448000eaff0700ddff07000080fa0000000600d9
:104490001200fa0030079800410798005207980070
:1044a00063079800740798000000eb00100798005d
:1044b000ce0090005e0090000088b9008000780077
:1044c0006e0090000000e8000088b9000000e800dd
:1044d00080007800a0142000808f50000300360078
:1044e0000080eb00000f9800350037000000eb0063
:1044f00020079800230037000000eb00000f780031
:10450000090037009e009000a080200080804000bd
:1045100010c0b300804878001e0090000000e80042
:10452000100798001e0fe8005e0090009e0f10001c
:10453000f4ff35000000eb00000f780009003700a1
:104540009e009000a0802000808040000040eb0092
:10455000804878001e0090000000e80010079800d6
:104560001e0fe800ee0090005e0090000088b90089
:104570009e0f5000f2ff3c002e0090000000e8006b
:1045800020079800ae0090004e009000808f5000f1
:10459000d9ff35009e009000a08020008080400060
:1045a00020c0b300804878007e0090000040880062
:1045b0003e009000404088000000eb00000f980093
:1045c0000e0890000080fa00000006000000fa00cb
:1045d000204080000080fa00000006002200fa005f
:1045e00070079800010f9800120f9800230f980091
:1045f000340f9800450f9800560f98007e009000e9
:10460000200db000700798000e0890006700400071
:10461000000f98004e0890000000e00003003200f8
:104620003e0890000000e00003003a000080eb002c
:10463000600f980004013700fe0090001e089000f3
:104640008080400020352000808f5000030036001d
:104650008080eb00610f9800fb0037008e0890000f
:104660002e08900080804000701e2000808f500037
:10467000030036000080eb00600f9800f200370066
:104680001e0890003e099000110009000280d80029
:104690008000fd000000e000030032008080eb009d
:1046a000610f9800e80037002e0890004e09900036
:1046b000110009000280d8008000fd000000e00029
:1046c000030032000080eb00600f9800de0037002e
:1046d0004e089000630060000000e00033003a00e4
:1046e0003e089000630060000000e0000f003a0008
:1046f00030032000000f78004e0890004200de00da
:10470000200798003e0890004200de001007980045
:104710000e08900064005000000f98007e0090008a
:104720006400500070079800500037003e08900069
:10473000610060000000e0000f003a00100120005e
:10474000000f78004e0890000000d100200798006c
:104750003e0890000000d100100798000e0890005d
:104760000080e900000f98007e0090000080e900c2
:10477000700798003d00370040042000000f7800cb
:10478000ce089000210798003e089000100798007e
:104790000e0890000000e900000f98007e009000d5
:1047a0000000e90070079800300037004e089000c4
:1047b000610060000000e00020003a003e08900028
:1047c000610060000000e0000f003a0010012000ce
:1047d000000f78004e0890000000d10020079800dc
:1047e0003e0890000000d100100798000e089000cd
:1047f0000080e900000f98007e0090000080e90032
:10480000700798001900370040042000000f78005e
:10481000ce089000210798003e08900010079800ed
:104820000e0890000000e900000f98007e00900044
:104830000000e900700798000c00370040042000d9
:10484000000f7800be089000110798004e089000f5
:10485000200798000e0890000000e900000f980063
:104860007e0090000000e900700798001e00900094
:104870000000e900500798002e0090000000e900b9
:10488000600798001e0890003e0990001100090082
:104890000280d800400798002e0890004e09900032
:1048a000110009000280d800300798005e089000cf
:1048b000def607000000e000030032008080eb001d
:1048c000610f9800600037001e007800f6f60700c0
:1048d0000000e000030032000080eb00600f980051
:1048e000590037005e0890000000e00017003a0011
:1048f0009e007800710f980030032000fe089000a1
:10490000808f50000e00320040042000fe0890000e
:10491000808f5000040032007e089000f10f50009c
:10492000040032001f00370000032000f3f60700e8
:104930001c00370000022000f0f6070019003700c5
:104940000000eb00edf60700160037009e0078002f
:1049500001179800300320008e109000808f5000c7
:104960000e003200400420008e109000808f500016
:10497000040032000e109000f10f500004003200cd
:104980000800370000042000dcf6070005003700af
:1049900000032000d9f607000200370000022000c3
:1049a000d6f60700313520007e009000f6f60700ad
:1049b0000000e000030032008080eb00610f9800ef
:1049c00021003700811e20000e08900019f7070013
:1049d0000000e000030032000080eb00600f980050
:1049e000190037007e0090000001e800711e2000d1
:1049f0000e08900037f707000000e00003003200c7
:104a00008080eb00610f98000f0037005e08900077
:104a100010000700000178006e029000de01900097
:104a2000ce0090003e00900099fe07000000e000dc
:104a3000030032000080eb00600f98000200370096
:104a40008000eb00610f98006e0890000080fa0073
:104a5000000006000600fa00000f78001e00780033
:104a6000200798002e009000e10f50000a0032004d
:104a70002e009000e20f50000a0032002e0090003d
:104a80000000e000010032000900370010002000a3
:104a90001007980008003700200020001007980039
:104aa00005003700200020001007980002003700a2
:104ab00010002000100798001e0090000080fa00ef
:104ac000000006002400fa00000f9800110f980063
:104ad000220f9800330f9800440f9800550f98004c
:104ae000660f98000e08900070004000000f9800bc
:104af0001e08900068004000100f98005e089000ab
:104b00000000e000030032004e0890000000e000ca
:104b100003003a000080eb00700f98001f0137007f
:104b20008e0890002e08900080804000002d20000c
:104b3000808f5000030036008080eb00710f9800da
:104b4000160137009e0890003e08900080804000cb
:104b5000801e2000808f5000030036000080eb0094
:104b6000700f98000d0137002e0890004e0990003c
:104b7000110009000280d8008000fd000000e00064
:104b8000030032008080eb00710f980003013700b2
:104b90003e0890005e099000110009000280d800d4
:104ba0008000fd000000e000030032000080eb0008
:104bb000700f9800f90037005e08900063006000f5
:104bc0000000e00039003a004e08900063006000e9
:104bd0000000e00011003a0000082000000f7800fb
:104be00040002000100798005e0890004200de00a0
:104bf000300798004e0890004200de002007980021
:104c00001e08900064005000100f98000e089000dd
:104c100064005000000f98005a0037004e089000c2
:104c2000610060000000e00011003a000004200074
:104c3000000f780020002000100798005e08900008
:104c40000000d100300798004e0890000000d1000d
:104c5000200798001e0890000080e900100f9800bf
:104c60000e0890000080e900000f98004500370012
:104c700000022000000f78001000200010079800ac
:104c8000de089000310798004e0890002007980039
:104c90001e0890000000e900100f98000e08900018
:104ca0000000e900000f9800360037005e08900011
:104cb000610060000000e00024003a004e0890000f
:104cc000610060000000e00011003a0000042000d4
:104cd000000f780020002000100798005e08900068
:104ce0000000d100300798004e0890000000d1006d
:104cf000200798001e0890000080e900100f98001f
:104d00000e0890000080e900000f98001d00370099
:104d100000022000000f780010002000100798000b
:104d2000de089000310798004e0890002007980098
:104d30001e0890000000e900100f98000e08900077
:104d40000000e900000f98000e003700100020005e
:104d50001007980000022000000f7800ce08900095
:104d6000210798005e089000300798001e08900008
:104d70000000e900100f98000e0890000000e90004
:104d8000000f98002e0090000000e90060079800d6
:104d90003e0090000000e900700798002e08900087
:104da0004e099000110009000280d80050079800b9
:104db0003e0890005e099000110009000280d800b2
:104dc00040079800102d20001e01900011000900de
:104dd0000200d800800078001e0190000e089000ac
:104de000811f7800110009000280d80001017800bd
:104df000cf00780075fa07000000e00003003200e1
:104e00008080eb00710f980064003700901e200036
:104e10001e019000110009000200d80080007800f7
:104e20001e0190001e089000811f780011000900eb
:104e30000280d80001017800cf0078008efa0700c8
:104e40000000e000030032000080eb00700f9800cb
:104e500052003700811e20001e0890008cfa0700c7
:104e60000000e000030032008080eb00710f98002a
:104e70004a0037006e0890000000e00018003a0079
:104e80001e00780000179800000420008e1090008b
:104e9000808f50000c003200000820008e1090001f
:104ea000808f50000b003200000220008e10900016
:104eb000808f5000010032002000370000c9b3008d
:104ec00074f907001d00370000c5b30071f9070031
:104ed0001a00370000c1b3006ef907001700370051
:104ee0001e00780010179800000420009e1090000b
:104ef000808f50000c003200000820009e109000af
:104f0000808f50000b003200000220009e109000a5
:104f1000808f5000010032000800370000cbb30042
:104f20005cf907000500370000c9b30059f9070014
:104f30000200370000c5b30056f907001e007800d4
:104f4000804078006e089000f4f907000000e0004f
:104f5000030032000080eb00700f98000f00370054
:104f60006e08900010000700000178007e0290009b
:104f7000ee019000de0090004e00900044fd07001e
:104f80000000e000030032008080eb00710f980009
:104f9000020037000000eb00700f98007e089000c0
:104fa0000080fa00000006000600fa00000f7800fa
:104fb0001e007800200798002e009000e10f50009e
:104fc0000a0032002e009000e20f50000a0032006a
:104fd0002e0090000000e0000100320009003700c0
:104fe0001000200010079800080037002000200063
:104ff00010079800050037002000200010079800d7
:105000000200370010002000100798001e009000da
:105010000080fa00000006000600fa00000f780089
:10502000110798001e007800200798002e009000bd
:10503000e30f50007d0032002e009000e30f50007f
:1050400007003e002e009000e10f500038003200b3
:105050002e009000e10f500057003e000d00370079
:105060002e009000e50f5000b20032002e0090009c
:10507000e50f5000900039002e009000e60f500020
:10508000d10032002e009000e70f5000f5003200f2
:10509000160137001e009000e10f5000140036008a
:1050a000c4c2bf000080fb004600de00614060001b
:1050b0000004a200614060006140600000404000c8
:1050c00000404000004040000040400000404000e0
:1050d00000414000412c200091407800f0cbb3000b
:1050e00000c0600002407000c4e2b700fd0137005c
:1050f0001e00900061406000614060000040400080
:10510000004040000040400000404000004040009f
:1051100000414000412c200091407800f0cbb300ca
:1051200000c0600002407000c4e2b700ed0137002b
:105130001e009000e10f500011003600c4c2bf00f5
:105140000080fb004700de000004a2006140600018
:10515000004040000040400000404000004040004f
:10516000004040000040400080404000c4c2bf00fa
:105170000074a10001407000c4e2b700d9013700fb
:105180001e00900061406000004040000040400070
:10519000004040000040400000404000004040000f
:1051a00080404000c4c2bf000074a10001407000f4
:1051b000c4e2b700cb0137001e009000e10f5000a1
:1051c0000f003600c5c2bf000080fb000000d10008
:1051d000614060000004a200614060006140600026
:1051e00000414000512c200091407800d0cfb30006
:1051f00000c0600002407000c5e2b700b90137008e
:105200001e0090006140600061406000004140006d
:10521000512c200091407800d0cfb30000c0600036
:1052200002407000c5e2b700ae0137001e009000da
:10523000e10f500012003600c5c2bf000080fb0025
:105240004400de00614060000004a2006140600094
:1052500061406000004040000040400000404000cd
:1052600000414000512c200091407800f0ceb30066
:1052700000c0600002407000c5e2b700990137002d
:105280001e009000614060006140600000404000ee
:10529000004040000040400000414000512c2000f0
:1052a00091407800f0ceb30000c060000240700072
:1052b000c5e2b7008b0137001e009000e10f5000df
:1052c00010003600c5c2bf000080fb004200de00b7
:1052d000614060000004a200614060006140600025
:1052e0000040400000414000512c200091407800d7
:1052f000b0cfb30000c0600002407000c5e2b7004c
:10530000780137001e00900061406000614060003d
:105310000040400000414000512c200091407800a6
:10532000b0cfb30000c0600002407000c5e2b7001b
:105330006c0137001e009000e10f50001300360092
:10534000c5c2bf000080fb004500de006140600078
:105350000004a20061406000614060000040400025
:10536000004040000040400000404000004140003c
:10537000512c200091407800f0cdb30000c06000b7
:1053800002407000c5e2b700560137001e009000d1
:10539000614060006140600000404000004040000b
:1053a000004040000040400000414000512c2000df
:1053b00091407800f0cdb30000c060000240700062
:1053c000c5e2b700470137001e009000e10f500012
:1053d00014003600c5c2bf000080fb004600de009e
:1053e000614060000004a200614060006140600014
:1053f00000404000004040000040400000404000ad
:105400000040400000414000512c200091407800b5
:10541000f0cbb30000c0600002407000c5e2b700ee
:10542000300137001e009000614060006140600064
:10543000004040000040400000404000004040006c
:105440000040400000414000512c20009140780075
:10545000f0cbb30000c0600002407000c5e2b700ae
:10546000200137001e009000e10f500011003600af
:10547000c5c2bf000080fb004700de000004a200a0
:10548000614060000040400000404000004040009b
:10549000004040000040400000404000804040008c
:1054a000c5c2bf000074a10001407000c5e2b70092
:1054b0000c0137001e009000614060000040400079
:1054c00000404000004040000040400000404000dc
:1054d0000040400080404000c5c2bf000074a100f1
:1054e00001407000c5e2b700fe0037001e009000ca
:1054f000e10f500087003600c4c2bf000080fb00ef
:105500004600de00614060000004a20061406000cf
:10551000614060000040400000404000004040000a
:10552000004040000040400000414000412c20006d
:1055300091407800f0cbb30000c0600002407000e2
:10554000c4e2b700c4c2bf000080fb004700de0019
:105550000004a200614060000040400000404000a4
:10556000004040000040400000404000004040003b
:1055700080404000c4c2bf000074a1000140700020
:10558000c4e2b700c5c2bf000080fb000000d1002c
:10559000614060000004a200614060006140600062
:1055a00000414000512c200091407800d0cfb30042
:1055b00000c0600002407000c5e2b700c5c2bf0075
:1055c0000080fb004400de00614060000004a20097
:1055d00061406000614060000040400000404000c9
:1055e0000040400000414000512c200091407800d4
:1055f000f0ceb30000c0600002407000c5e2b7000a
:10560000c5c2bf000080fb004200de0061406000b8
:105610000004a20061406000614060000040400062
:1056200000414000512c200091407800b0cfb300e1
:1056300000c0600002407000c5e2b700c5c2bf00f4
:105640000080fb004500de00614060000004a20015
:105650006140600061406000004040000040400048
:10566000004040000040400000414000512c20001c
:1056700091407800f0cdb30000c06000024070009f
:10568000c5e2b700c5c2bf000080fb004600de00d7
:10569000614060000004a200614060006140600061
:1056a00000404000004040000040400000404000fa
:1056b0000040400000414000512c20009140780003
:1056c000f0cbb30000c0600002407000c5e2b7003c
:1056d000c5c2bf000080fb004700de000004a2003e
:1056e0006140600000404000004040000040400039
:1056f000004040000040400000404000804040002a
:10570000c5c2bf000074a10001407000c5e2b7002f
:10571000740037001e0090006140600000404000af
:105720000040400000404000004040000040400079
:105730000040400080404000c5c2bf000074a1008e
:1057400001407000c5e2b700c5c2bf000080fb0089
:105750004700de0061406000004040000040400023
:105760000040400000404000004040000041400038
:10577000512c200091407800f0cbb30000c06000b5
:1057800002407000c5e2b700c5c2bf000080fb0048
:105790004600de0061406000614060000040400063
:1057a00000404000004040000040400000414000f8
:1057b000512c200091407800f0cdb30000c0600073
:1057c00002407000c5e2b700c5c2bf000080fb0008
:1057d0004500de0061406000614060000040400024
:1057e00000414000512c200091407800b0cfb30020
:1057f00000c0600002407000c5e2b700c5c2bf0033
:105800000080fb004200de006140600061406000fb
:105810000040400000404000004040000041400087
:10582000512c200091407800f0ceb30000c0600001
:1058300002407000c5e2b700c5c2bf000080fb0097
:105840004400de00614060006140600000414000b3
:10585000512c200091407800d0cfb30000c06000f0
:1058600002407000c5e2b700c5c2bf000080fb0067
:105870000000d10061406000004040000040400056
:105880000040400000404000004040000040400018
:1058900080404000c4c2bf000074a10001407000fd
:1058a000c4e2b700c4c2bf000080fb004700de00b6
:1058b0006140600000404000004040000040400067
:1058c000004040000040400000414000412c2000ca
:1058d00091407800f0cbb30000c06000024070003f
:1058e000c4e2b7000080fa00000006000200fa00df
:1058f000000f7800100020009e0f100010003600ee
:10590000d0c2bf000080fb004200de0061406000aa
:105910000004a2006140600061406000004040005f
:1059200000414000012d200091407800b0cfb3002d
:1059300000c0600002407000d0e2b7000b003700ea
:105940001e0078006140600061406000004040003f
:1059500000414000012d200091407800b0cfb300fd
:1059600000c0600002407000d0e2b7000080fa0082
:10597000000006000200fa00000f7800100020006e
:105980009e0f10000f003600d0c2bf000080fb0049
:105990000000d100614060000004a200614060008e
:1059a0006140600000414000012d200091407800de
:1059b000d0cfb30000c0600002407000d0e2b7005a
:1059c0000a0037001e0078006140600061406000fe
:1059d00000414000012d200091407800d0cfb3005d
:1059e00000c0600002407000d0e2b7000080fa0002
:1059f000000006000000fa00c4c2a900c4e2a90029
:105a0000c522a900c582a900c542a900c5a2a90056
:105a1000c5c2a900c5e2a9000080fa000000060086
:105a20000000fa00680007000080fa00000006008d
:105a30000000fa00810007000080fa000000060064
:105a40000000fa00ac0007000080fa000000060029
:105a50000000fa00ae0007000080fa000000060017
:105a60000400fa0020479800314798000040eb00fe
:105a7000004f78001800370010c0b300004f7800c6
:105a8000a90007001e4f60002e409000c1010700d2
:105a90001e4f60003e409000be0107001e4f600098
:105aa000c30007001e4f60002e4090000040e80039
:105ab000b80107001e4f60000e00e8005f010700fc
:105ac0001e4f60002a010700db0007001e04e000f3
:105ad00003003a00620007001e04e000e6ff320007
:105ae0001e4090000000fb000080fa00000006004d
:105af0000600fa0020479800314798004247980076
:105b00000040eb00004f78001200370010c0b300d7
:105b1000004f7800840007001e4f60002e40900068
:105b20009c0107001e4f60003e4090009901070055
:105b30001e4f60004e409000960107001e4f60000f
:105b4000bd0007001e4f60001e04e00003003a0085
:105b5000430007001e04e000ecff32001e00fb00c3
:105b60000080fa00000006000000fa000000370084
:105b700006c2bf00614060000004e000fcff3a0084
:105b800006c2bf00644060000004e000f8ff3a0075
:105b900006c2bf00684060000004e000f4ff3a0065
:105ba00006c2bf00704060000004e000f0ff3a0051
:105bb00009c2bf000044b2000004e000ecff3a005c
:105bc0000080fa00000006000400fa0060092000ce
:105bd0002010880007e2a90007e2a80085c0a900fc
:105be00085a0a900b10920009140780080cfb300c2
:105bf00000c060005040b3009be0b7008da0a9003a
:105c00000071220001002000008fbe000400370058
:105c10000080eb008080eb001e0f40005e97480084
:105c20001e00be00e00f5000e08f5800f8ff3a0061
:105c3000100020000080fa00000006000000fa00ba
:105c400007e2a90085c0a90085a0a9008dc0a90010
:105c50008da0a900100020000080fa0000000600be
:105c60000400fa006000b800008fbe0007e2a9003f
:105c700085c0a90085a0a9008da0a9000000eb00a7
:105c8000401088000071220001002000008fbe003b
:105c9000040037000080eb008080eb001e0f400006
:105ca0005e9748001e00be00e00f5000e08f5800d5
:105cb000f8ff3a00c4ff07000f0007000071220040
:105cc00001002000008fbe00040037000080eb00c0
