:020000040000fa
:080000000401040000000000ef
:020000040000fa
:1002000084010400000000002f9520008079220066
:100210000001880000000000050007000c00070036
:10022000e0110200000000000040da000000fe00c3
:100230004440a900000420000000e0000300320058
:1002400000002000a00188004440a8000000060033
:1002500040612200010020001600370062004000cb
:10026000e0804800910188009001ba0062004000df
:10027000e0804800910188009002ba0062004000ce
:10028000e08048000002eb006028e10005003a0031
:100290008301e90007003300038009000059eb00e7
:1002a000040037006128e100010032000082eb0009
:1002b00005000700910188001001ba000200e0006b
:1002c000e6ff3a00000005009101880080027800f6
:1002d00062004000e08048003559ba008301e9001f
:1002e000080032002559ba008301e90005003200f8
:1002f0000400e000f4ff320015d9ba008301e900e0
:10030000f1ff3a0000000600881f78000204780020
:100310001b000700080040004f04780000000600a2
:100320000000fa00881f7800000478003fb99700a9
:10033000ea8157008000780040182000190007006b
:10034000800078000000e000020035000040eb0073
:1003500080707c00010078004f0478000080fa0073
:100360000000060080007800010037000000e8006f
:100370001004e000fdff3a000100500000000600fc
:10038000000278008001780001003700b159780040
:1003900002004200808f5100fcff3a000400780008
:1003a000000006006200fa00889fbe008a9fbe001f
:1003b0000004be00020578008300780060f92f0079
:1003c0000f004000af00070088979f0099979f009b
:1003d0000000eb00a09f9f009a4578000b80fb0077
:1003e0000000ea00cf04de000904e90050c2b300b7
:1003f00080cf550001003200090478000800e000b9
:100400000b003400080178008a0078001f909700e4
:100410008f9197000300010090979f000000e0007b
:10042000930032002f98970008004000a09f9f0083
:100430000905450050c2b30080cf550004003200ca
:100440000b04e000e4ff3a002f9897008900370082
:100450000000eb00809f9f00f0979f00e0979f00b7
:10046000d0979f00c0979f00b0979f00c09f9f00ac
:10047000090037000092200000805000000040007a
:1004800041912000e08078004f98970001007000b3
:10049000c09f9f000a05e8001a4478008800fb000e
:1004a000009220007c000700800078000000e0003f
:1004b000f0ff3a00a0c2b300804f54000e003a0093
:1004c000bf8897000180e900b08f9f0090007800fe
:1004d000b19f9f000100e00005003d000100ea001f
:1004e000b09f9f004f9897000020a000c09f9f00e2
:1004f0000a05e80010003700b19f9f00090037008f
:10050000bf989700f0ff2700808f50000400320052
:100510006a08b9000000410003004000b09f9f003e
:100520000a05e8001a01fb0003fd2f00030041004b
:10053000e90f5000f2ff3600e0c2b3009a4f1000fe
:10054000040032000080eb00909f9f008a04780036
:100550001c0037008a04e800a0c2b300994f1000c5
:1005600007003a00bf8897000180e900b08f9f0024
:1005700010007800909f9f008a84e80011003700e7
:100580000000eb00909f9f00090037009f989700a4
:10059000f0ff2700808f5000040032006a08b90085
:1005a0000000410003004000909f9f008904e80084
:1005b0001901fb0003fd2f0003004100e90f50006b
:1005c000f2ff3600194478008800fb00a094200058
:1005d000310007000000e00002003a00004478000b
:1005e000010037008904e800a87f9f0080c6b3009f
:1005f000804f540004003a0066405000994f1400a8
:100600000700320008003700c0c6b300804f540016
:1006100005003a00994f140003003a00654040007d
:10062000a07f9f008904e8000905e800c8fb2f00af
:100630000f04440060f92f000f0040008085e8009f
:10064000880178001901fb00800078000b00780019
:10065000190007000000e00005003a00880078005b
:100660000b0078005e0107000000e0005aff3d002b
:100670000080eb004f05be004f04be000080fa0072
:10068000000006000200fa00f1bf9f000108780098
:100690000080fa0000000600040037001004e000ab
:1006a00001003a00000005000000e80090cf1000b3
:1006b000faff3a0000000600889fbe008a1f7800fb
:1006c0000004780001027800824478000305780075
:1006d000e0c6b300804f5100d700320015003c0047
:1006e0006b405000804f5100240032000a003c0053
:1006f00070405000804f51001401320065404000ae
:10070000804f51007600320050c2b300804f51003c
:1007100027013a002301370040c6b300804f510043
:100720001b00320065404000804f510020013a001c
:100730001700370030c7b300804f5100030132006b
:1007400007003c0064405000804f510064003200bc
:100750000040e800804f510015013a00ec003700de
:1007600050c7b300804f51005d003200634040002d
:10077000804f51000e013a00590037009180e90086
:10078000010a78007800900011f079000e0137001e
:1007900028619000c0c6b300804f51000a003a00a3
:1007a0001400780064015000020a78001200be00b4
:1007b0004f88de00cf80de001202be00000378000a
:1007c000800378001500370010c7b300804f510038
:1007d00002003a009400780004003700940078008a
:1007e000a0c6b300804f510005003a006880500059
:1007f000000a78003002be002003be000700370068
:100800000180e900000a78001000780000027800fa
:10081000cfa2de000503780086037800049cbe00aa
:100820000694be00a860900080c6b30080cf500040
:100830000e00320020c6b30080cf500005003a0001
:100840000400fb00cf80de00010178008201780007
:100850000a00370040c7b30080cf500003003200c9
:100860006640400080cf500006003a000400780047
:10087000cf80de000101780082017800009cbe007c
:100880000294be003800be002801be00e00f5000f8
:10089000e08f5800e00f5900e08f590003003d0041
:1008a00078009000d1c2b3000a0037000810900011
:1008b0000018a3000300320078009000b1c2b3001a
:1008c000040037000008a3005600320078009000b2
:1008d00001c2b30001707d000000e8005000370045
:1008e00028619000c0c6b300804f510007003a0055
:1008f0009400780064805000000a78001002be0066
:100900000003eb00860378001500370010c7b30022
:10091000804f510002003a00940078000400370034
:1009200094007800a0c6b300804f510005003a0043
:1009300068805000000a78003002be002003be002c
:10094000070037000180e900000a780010007800f5
:1009500000027800050020000600200007002000ab
:10096000049cbe000694be00a860900080c6b30040
:1009700080cf50000e00320020c6b30080cf500060
:1009800005003a000480fb00010020000200200066
:10099000030020000a00370040c7b30080cf50009a
:1009a000030032006640400080cf500006003a004d
:1009b0000400780001002000020020000300200055
:1009c000009cbe000294be00081090000038a300f6
:1009d000140032003800be002801be00e00f5000b5
:1009e000e08f5800e00f5900e08f59000d003200f1
:1009f00080c7b30080cf54000300320080c5b3002d
:100a000080cf540007003a007800900001c3b30083
:100a100001707d008000e80089707d000080e800a2
:100a20007004980078009000000045006004980071
:100a30008940780042003700a8609000c0c6b3002b
:100a400080cf5000250032000a003c006440500076
:100a500080cf50002800320000c0e80080cf500056
:100a6000140032006840500080cf500022003a004d
:100a70000a00370040c7b30080cf50001e0032008c
:100a80006640400080cf50001b003200694050009b
:100a900080cf500018003a00060037001480e900ab
:100aa000000a780010007800485c90000848780040
:100ab000470037001480e900000a7800100278002f
:100ac00068089000cf80de00010178008201780084
:100ad000009abe000292be003d0037001480e9007b
:100ae000000a78001001780068089000cf80de00ce
:100af0000089be00360037001480e900000a780043
:100b000010007800680c900008087800300037006a
:100b10001180e9008008780010007800cf80de00a6
:100b20000101780082017800009cbe000294be00a2
:100b300078009000000045006004980081c7b30071
:100b400008007800f0000700210037001480e90059
:100b5000000a78009001780063049800580990001a
:100b60000200e00003003d0003007800fdfd0700e7
:100b70000a0037008000eb000300780095010700b1
:100b8000800078000000e000030032006800900060
:100b9000008050000100370058089000100c9800a9
:100ba0000b0037007800900002707d0006003700cf
:100bb00078009000800045000904e00001003a0040
:100bc00059c2b300894878000000e800700498001a
:100bd0000000eb004f0578004f04be000000060047
:100be0000400fa00889fbe008a9fbe008c1f780018
:100bf000000478000106780070089000f80090006a
:100c000001005000880890000100500098089000f2
:100c100001005000a808900001005000b8089000a2
:100c200001005000c8089000810550000002220019
:100c3000a0bf9f000003230090bf9f0008109000fa
:100c40000028a30018003a000b00e0001600340052
:100c50008b04780009057800e28f5400020036000a
:100c60002a002000020037000900e0000b003400d9
:100c7000c80190000a017800ec80570058009000ed
:100c800003000100500498000000e00096003200cc
:100c9000680890000a004000600c98008a845400a4
:100ca0004240a900ebff3c00780190000200e00008
:100cb0000b003400c80190008c00780058009000b0
:100cc00003000100500498000000e000860032009c
:100cd00068089000f800900001004000600c980047
:100ce000880c90000900e000150034000905780028
:100cf000e28f5400020036002a0020000200370074
:100d00000900e0000b003400c80190000a017800df
:100d1000ee80570058009000030001005004980036
:100d20000000e00070003200680890000a004000f7
:100d3000600c98008a8454004240a900ebff3c00fc
:100d4000180990000200e0000b003400c801900078
:100d5000e800900058009000030001005004980043
:100d60000000e000600032006808900098089000e1
:100d700001004000600c9800a80c90000900e00001
:100d80001500340009057800e28f54000200360097
:100d90002a002000020037000900e0000b003400a8
:100da000c80190000a017800ee80570058009000ba
:100db00003000100500498000000e0004a003200e7
:100dc000680890000a004000600c98008a84540073
:100dd0004240a900ebff3c00380990000200e0000f
:100de0000d003400e800900018089000808040005a
:100df000c8019000580090000300010050049800c2
:100e00000000e0003800320068089000b808900048
:100e100001004000600c9800c80c90000900e00040
:100e20001500340009057800e28f540002003600f6
:100e30002a002000020037000900e0000b00340007
:100e4000c80190000a017800ee8057005800900019
:100e500003000100500498000000e000220032006e
:100e6000680890000a004000600c98008a845400d2
:100e70004240a900ebff3c00081090000028a300ae
:100e80001b0032000b00e000190034008b047800d6
:100e900009057800e28f5400020036002a00200085
:100ea000020037000900e0000b003400c801900088
:100eb0000a017800ec805700580090000300010000
:100ec000500498000000e00007003200680890001d
:100ed0000a004000600c98008a8454004240a90037
:100ee00003003400eaff37000080eb000100370008
:100ef0000000eb004f0678004f05be004f04be0017
:100f00000080fa00000006006f02b000889fbe005b
:100f10008a9fbe008c9fbe008e1f7800000678005e
:100f2000d08e200080bf9f0080c5b30080cf5000ce
:100f30000700320082002000f2b79f00c38d20001e
:100f400083bf9f007740400080cf50000a003200ee
:100f500080c7b30080cf500005003200a4002000fd
:100f6000f4b79f0080c5b30080cf500002003a0064
:100f700000012000f0b79f003c04be002c05be001d
:100f800040c6b30080cf50000300320065404000ef
:100f900080cf50000b003a00e00f5400e08f5c005f
:100fa000e00f5d00e08f5d0006003d006000b800ce
:100fb0006011b80008045000898458000a055900df
:100fc0008b855900e00f5400e08f5c00e00f5d005e
:100fd000e08f5d0004003a005c0890008d01200065
:100fe0000000e0000c003200ffb097000102780022
:100ff000cfa2de0005037800860378000800be005b
:101000000a01be00110407000fba9700644078007f
:10101000d0e79f007d0120007fb09700000278009c
:10102000cfa2de0005037800860378000800be002a
:101030000a01be00fe030700009ebe000296be002d
:101040000d00e900e1fc2f008f8040000087400088
:101050001a0037007fb1970002027800cfa2de00ad
:1010600005037800860378003c00be002c01be001a
:10107000fa0307000205be000004be008d06e90069
:10108000ffb1970003027800cfa2de0005037800cd
:10109000860378000800be000a01be00780407003d
:1010a0003fb29700000052008fb8970060cf7800e1
:1010b000089ebe000a96be000e07e9003c00be0076
:1010c0002c01be00b0b79f00c1b79f00d2b79f00f0
:1010d000e3b79f00e00f5000e08f5800e00f590089
:1010e000e08f5900020034000d00e000d9ff3c0001
:1010f000ffb09700e88f500010003a000c109000ed
:101100000038a3000d003200f78f560006003e00a5
:10111000e2fc2f000d014100e2c07f0000c3b300dc
:1011200080cf5000050032008d06e90000c3b300f7
:10113000e3fc2f008d81410080f17f007881160053
:10114000120e98006c009000e3fc2f008f8141008c
:101150008d8041008afc07001c0990005c0890000b
:10116000800f510006003d0002005000000e980064
:101170000c1090000040a100001698000f003700ee
:101180000000e0000d003d000c10900074006000b5
:10119000f00f500009003a007c089000fc0090001d
:1011a000010050008c089000010050000200500027
:1011b0004240a90001003400000e98004f0778005b
:1011c0004f06be004f05be004f04be006f02b100c7
:1011d00000000600820178000400370090cf100064
:1011e000050032000000e8008301e9000300e00090
:1011f000faff3a000000eb0000000600889fbe00e6
:101200008a9fbe00010578000100e000040035005f
:1012100008003c000000e00020003200050037001c
:1012200060001000e080180002003b0001f02c007c
:101230001a0037000004be006011b8006b092000de
:101240000982cf00020039000882cf000441b000bb
:10125000694252000e00320008003b00828171009a
:10126000610164008904d1000884d3008b05e80083
:101270000442e800f9ff3a00050037000804440082
:1012800089844c008b05e9000442e900fbff3a0029
:10129000540107000af0a70001f0a0004f05be00ae
:1012a0004f04be0000000600889fbe008a9fbe005b
:1012b0008c1f7800710107007801330003866c00f1
:1012c0006450e100240032006420e1002700320075
:1012d0006150e100220032006120e1002100320073
:1012e0008b854200eb07b1000134b800003ab8002a
:1012f0000804420089844a00013ab8000030b8006e
:101300008880400009014a000400330000004000ca
:1013100081804800020149008b05e900c909dd0010
:10132000830170000100320013002000c814de00a9
:101330004814dd004709de001200b200c808de00d4
:10134000088470002701070001f0a1000cf0a7003d
:1013500001f0a0005a0137006120e1005c01320079
:101360000801be000200be00f7ff37006150e10037
:10137000fcff3a0056013700889fbe008a9fbe00de
:101380008c1f78003d0107004401330003866c0088
:101390006450e1002e0032006420e100330032008e
:1013a0006150e1002f0032006120e1003100320085
:1013b00085855500eb07b0000900200008042000d7
:1013c000050037000804440089844c000a003100fd
:1013d0000603430087834b000001530081815b00bb
:1013e000f8ff33000203be000800a0000804440018
:1013f00089844c00f6ff3900c639dd008301730093
:1014000001003200130020008904d1000884d300b9
:101410000998a300050032000800a7000300a000ff
:101420008904d1000884d3008b05e8008904d10029
:101430000884d3000001eb000281d200e90007001c
:1014400001f0a1000cf0a70001f0a0001c01370082
:101450006420e1001e0132000801be000200be004f
:10146000f7ff37006120e100190132006000b80089
:10147000f3ff37000000200001f82700f0ff3700dd
:101480000001eb00150137000081eb00130137006c
:1014900003f0a200889fbe008a9fbe008c1f7800c8
:1014a000f6000700fd0033006450e1004f003200f9
:1014b0006420e1005200320003826c0007003b0010
:1014c0000905d0000306d000820f54000c065d0011
:1014d000020039000200320089017800030678001a
:1014e0008582550004003d000003fd008103fd00de
:1014f0008502ea008b854200840f720002003b00e7
:1015000060001000e08018006011b8000005eb00da
:101510007a28e1000a00390006007800c75ddd0086
:10152000f707b200878075002d00370082817100b7
:101530000a017800610560008180d1000080d3003d
:101540008502e900f9ff3b0006044000878448005b
:1015500002003b0060041400e0841c000988a30022
:10156000070032008a81710082817100610164008c
:101570008904d1000884d3008b05e80017003700e8
:101580000978a30013003a000b00e00013003400b8
:101590008b05e9000804440089844c000a44740067
:1015a0000978a3000d003a000b00e00007003400aa
:1015b0008b05e9000804440089844c0001003a00ce
:1015c0000b0020000978a300f7ff32000001eb00b8
:1015d00002003700828171000a0178008100070053
:1015e0000cf0a70001f0a000b50037006420e10076
:1015f00002003a00838f6c00b50033000801be0082
:101600000200be00ae0037000001be001c01070052
:101610000470a70003f0a1006509b10016003200b4
:101620000d0035006828e10006003500f0ff2f00ae
:10163000f1ff27000300e00013003b000100280039
:101640000000050000004000818048008502e9009c
:10165000fcff3a0008003700f88f420002003c000f
:101660008000eb00000005008100d1000080d30065
:101670008502e800fcff3a000300e00002003b00a6
:1016800060001000e080180000000600f4ff2f004a
:1016900010013700140020000e013700889fbe00a3
:1016a0008a9fbe008c1f78000004be00f400070073
:1016b0000478a30026003a006120e10025003200f2
:1016c00009f8a30025003a006420e100210032005f
:1016d000f507b1000508a300020032000000400039
:1016e000818048006044b800031020000200200000
:1016f00000004000818048000805440089854c00b6
:101700000a0541008b8549000a0550008b85580069
:10171000030033000a00be000204740083847400d6
:101720008301d1000281d300830f7100f0ff3a00e2
:101730008904d1000884d300600149008201780047
:10174000c1adde00fb07b000260007005c003700db
:101750000960a0000800be005900370012022000f6
:10176000424a8800f0ff2f00f1ff270054003700a5
:1017700032002000f20037000001be00c000070068
:101780000470a70003f0a10003f8a30013003a00bf
:101790006509b10010003200090035006928e10038
:1017a0000200350001002800000005000000400094
:1017b000818048008502e900fcff3a000000060035
:1017c000f88f4200050035008100d1000080d30071
:1017d0008502e800fcff3a00000006008000eb00f4
:1017e0000000050081002000618055000b003d00d5
:1017f0000b00200061fe2f000100e1001d003400fd
:1018000082817100610164008904d1000884d300e1
:101810000000e800faff3a00710020006100640057
:1018200003007000020060000900320061044400ff
:10183000e0844c000988a500050032008b05e80013
:101840006808e10002003a008904d1000884d3004e
:10185000f20f20000258e10005003d00c75ddd00e9
:10186000f907b200898075000800780000000600c2
:101870000bf827008b007800000005000004be0074
:101880007f0007000003be000405be000200be008a
:101890007b000700844f7500000006000200be00b8
:1018a0006450e100050036006420e10002003600cb
:1018b0000968a30001003a000800be000160a00012
:1018c0004f0678004f05be004f04be000000060022
:1018d000f0ff2f00f1ff2700f9ff3700889fbe00bf
:1018e0008a9fbe008c9fbe00820578000004be0067
:1018f000630007000800be006420e1000700390013
:1019000002003a00f1ff2700f0ff2f000160a00065
:1019100012022000424a8800550037006120e10091
:1019200003003a000b00a70001f823005000370025
:1019300001f0a100020021009364240055ff07007c
:101940000800be0004003500b2fd2000930c240006
:10195000e20007000004be000005eb000b00a6003b
:101960004f0dde0001f0a1000004be0032982f00f0
:1019700023ea23004cfe07000001eb0003f02300e4
:101980000b00a70003f82300c2fe07001eff07009c
:101990000000a7000a00a20018fe07000b00e000ec
:1019a000030032000200200003f02300b8fe07000d
:1019b00001f0a2000006be000200200093042400f3
:1019c00039fe07000801be00b2fe0700809fbe007e
:1019d0000c00be0022a22a00d3a7230032fe07007b
:1019e0004f01be00abfe07000004be0001f0a100e5
:1019f000020020000398230026ff07000800be0015
:101a0000190035000001be0027fe07000006be00d9
:101a1000b2c52900e362230023fe070022222b0027
:101a2000f3942b009bfe07000c01be001efe070076
:101a3000e273280083c0230096fe07000c01be005d
:101a400019fe070042aa2a00a3e22b0091fe07001c
:101a50000c01be0014fe07000801be0012fe0700c4
:101a60000801be008bfe07000a00a70001f0a200db
:101a70004f06be004f05be004f04be00000006002a
:101a8000c70ade00f107b200f50fb200080032000d
:101a9000e1cf4200020032000170a00024000500e6
:101aa000810f7000010032000408050044000500a9
:101ab000810f700002003a00140005008502e90061
:101ac0000000400081c04800fcff3b000170a00006
:101ad00024000500889fbe008a9fbe00841f7800f6
:101ae00066ff07004f00780011003300f0ff2f0061
:101af000838f6c0006003b00040565000a00a70008
:101b00000800370009f0a600100020000800370088
:101b1000820f5400838f5c00030039001000200006
:101b200001003e000000200009f0a7000000ea00cc
:101b30004f05be004f04be000000e000000006009c
:101b4000889fbe008a9fbe008c9fbe000206780060
:101b500001f0a7000cf0a0000004be00c8ff0700c1
:101b60000800be006420e1000700390002003a00ce
:101b7000f1ff2700f0ff2f000160a00012022000fb
:101b8000424a88005100370009f0a1000800be0059
:101b90000200200003f82300bcfe0700f4ff3c0015
:101ba0000800be000200200003982300b9fe0700d1
:101bb0000800be00300035000200200003f02300c2
:101bc000b2fe070005003c000800be000801be0090
:101bd000b5fd07000005be000e0037000c10a20086
:101be0000000200001f823000801be0028fe0700c5
:101bf0000200200003f02300abfd07000005be003b
:101c0000a6fe07000200200003002c00a6fd07002e
:101c10000004be000a00be00b2d02800130b2c0046
:101c20001cfe07000a01be009ffd0700020f2500f1
:101c3000330b240017fe0700809fbe000a00be0081
:101c40005206220013f02b0097fd0700b266210018
:101c5000f3f623000ffe07000a01be0092fd070005
:101c60004f01be00c4fd07000801be008efd070045
:101c70000801be0007fe07000c00a70007003700a0
:101c8000b2fd200093fc23000c10a70001fe07000a
:101c90000cf0a70001f0a2000c0037000cf0a70028
:101ca0000200370001f0a20004003700b2fd20005e
:101cb000930424000c10a60003003700b2fd20009e
:101cc00093fc23000c10a700f2fd07004f06be0096
:101cd0004f05be004f04be000000060004002000b7
:101ce00000003700889fbe008a9fbe008c1f7800ce
:101cf0004f26dd00e1fe0700e8fe33006120e10031
:101d0000430032006250e10041003e003e003900d5
:101d10006420e1003c003200058255000f003b00ca
:101d20000402e80038003a00800f5300818f5b0006
:101d3000350034000800be0003f0a10001f0a60049
:101d400003f0a0000cf0a700d2fd0700dcfe370076
:101d50000603430087834b000c46460000055300f2
:101d600081855b00020033000a03be000c00a00066
:101d70000402e900f6ff3b008505780006024300f7
:101d800087824b0004003a006000b80009f0a70009
:101d900001f0a000cafe37000002520081825a0002
:101da0000704e000040033000603430087834b0070
:101db0008b05e900faff3700090578000604be002c
:101dc0000203be006011b80086fe0700e00f52005b
:101dd000e08f5a000700350002003c000c08a30009
:101de000040032000601be0003f0a0000cf0a700c2
:101df000a8fd07000a85680001f0a1000af0a7000d
:101e000001f0a000aefe37000800be00acfe3700b7
:101e1000100220000cf0a600404a8800acfe3700fb
:101e2000881f7800000478005001be004000be000a
:101e30000000420081804a0002014b0083814b0078
:101e4000009cbe000294be000400e1000588e10091
:101e50000690e1000798e1000200310068004400ac
:101e60001008e8004f04780000000600f4874700df
:101e7000889fbe008a9fbe008c9fbe008e1f780088
:101e80000205be000004be00d4b79f00e5b79f0066
:101e9000f6b79f0087bf9f000000eb00c0b79f0010
:101ea000b0b79f00a0b79f0090b79f0080b79f007a
:101eb0000d042000bfb097004fb097000001400014
:101ec0000000e00014003d004f08de00000071003b
:101ed000c0b79f00ad00070001003d0012002000c8
:101ee000b000070001003d0012002000b50007000f
:101ef00001003d0012002000ba000700be000700ec
:101f0000feff3a00c2000700c80007000f004000b3
:101f1000c3ff0700270037004f08de0000067100ee
:101f2000ccb79f009900070001003d00120020007f
:101f30009c00070001003d0012002000a1000700e6
:101f400001003d0012002000a6000700aa000700c3
:101f5000feff3a00ae0007000fb297009fb2970055
:101f60002fb39700bfb39700b600070000005200e0
:101f700081805a0002015b0083815b0080b79f0073
:101f800091b79f00a2b79f00b3b79f000007eb0077
:101f9000ac0007000020e10001a8e10002b0e10070
:101fa00003b8e100010031001e0020000e005600c1
:101fb000c0b79f004fb297000400e0000700350053
:101fc00010002000010020006011b800080470001b
:101fd000898470000a0571008b8571008d06e90007
:101fe000b4ff3a000400e00003003d008f0007004a
:101ff0000f0040008aff07004fa897000000e00094
:1020000004003a000fb497009fb497002fb59700d3
:10201000bfb59700970007004f0778004f06be0036
:102020004f05be004f04be004f01b1000000060086
:10203000881f780018002000881f78008bff070099
:102040008f87e9004f04780000000600801feb0036
:1020500086ff07008f87e90000000600889fbe000a
:102060008a9fbe008c1f78007b00070005003d00a2
:102070002f00070007003d003d0007000006eb00b1
:10208000040037003f00070002003d003000070059
:102090001c00200077000700e5ff07000203be00d8
:1020a0000002be000c00e000010032002800070022
:1020b0000400be000601be004f0678004f05be00ba
:1020c0004f04be0000000600889fbe008a9fbe002d
:1020d0008c1f78006000070003003d00140007001b
:1020e00006003d00040037002600070003003d0005
:1020f0006000b8006011b8001d0007005d00070017
:10210000d2ff07000203be000002be000c00e00088
:10211000010032000e0007000400be000601be00f0
:102120004f0678004f05be004f04be0000000600b9
:102130006000b8006011b80008045000898458009d
:102140000a0559008b8559001c0020000300370048
:102150006000b8006011b80005003700e00f5200c1
:10216000e08f5a00e00f5b00e08f5b00000006008c
:1021700004025000858258000603590087835900e5
:10218000000006000006eb00f4ff3700018040006d
:1021900090b79f000001eb008fb097000100e000b6
:1021a000000006000200700090b79f000180400010
:1021b00080b79f000001eb00ffa897000100e0003e
:1021c000000006000200700080b79f000180400000
:1021d000f0af9f000001eb00efa897000100e000c6
:1021e0000000060002007000f0af9f000182400076
:1021f00020000700f50305008301d1000281d30010
:102200008180d3000080d3008502e9000000060031
:1022100000027200e4af9f000804440089844c006f
:102220000a054d008b854d00000006003fb2970067
:10223000cfb297005fb39700efb3970000fe2f0077
:10224000000006003fb09700cfb097005fb1970045
:10225000efb19700000006000205be000004be00ba
:10226000e00f5000e08f5800e00f5900e08f590058
:10227000000006000800be000a01be0000000600c3
:10228000889fbe008a9fbe008c1f78000205be009a
:102290000004be000006eb00e00f5000e08f580085
:1022a000e00f5900e08f590007003d006000b800c2
:1022b0006011b80008045000898458000a055900cc
:1022c0008b8559001c002000e00f5200e08f5a005f
:1022d000e00f5b00e08f5b0002003d000f00070095
:1022e0000c00a2000800be000a01be001200070098
:1022f0000203be000002be000c00e000010032003c
:10230000060007000400be000601be004f0678006c
:102310004f05be004f04be00000006006000b8007c
:102320006011b8000402500085825800060359006d
:102330008783590000000600889fbe008a9fbe0068
:102340008c9fbe000404b8000506b800890446004e
:1023500060854e000606b8000a054600e0854e007e
:102360000706b8008b054600040eb8008904460035
:102370000a854e00e0854d00050eb8000a054600ae
:102380008b854e00060eb8008b0546000416b8007b
:102390000a0546008b854e000516b8008b054600e1
:1023a000041eb8008b0546000800be000a01be00ee
:1023b0004f06be004f05be004f04be0000000600e1
:1023c0000000fa00530407006d0307009e09070090
:1023d000411f20000000eb00d5010700810c200008
:1023e0000000eb00ae0107008000eb0000192000a8
:1023f000510107008000eb0000e72f004e010700ad
:10240000da0107004001200016010700400120000a
:102410002f010700013220000000eb0046010700f9
:10242000d20107000000eb003e0407000000eb00b3
:1024300068040700ffff37000400fa001007980047
:102440000000eb00000f78000000eb00000f7800a8
:1024500002003700000000001e0fe8001e00900080
:102460009e0f1000fbff35000080fa000000060000
:102470000400fa00000f7800110798001e00900079
:10248000801f78001e007800801f7800405f2a00bf
:10249000801f780000802000a1f70700e687570022
:1024a00000802000aff70700800078000080200047
:1024b0009e090700a90907000000e000fdff3a009f
:1024c0000080fa00000006000400fa0010079800df
:1024d00007003700b3010700000f78001e00e0007e
:1024e00002003200c5c2a80001003700c5c2a90021
:1024f00064040700800078001e009000808f500068
:1025000005003d006b040700800078001e0090006d
:10251000808f5000efff35000080fa0000000600b9
:102520000000fa000000eb005a0407000000eb0076
:10253000640407000080fa00000006000200fa00b0
:10254000000f7800304880001e00400030488800ae
:10255000304880000000e00004003d00304880006a
:102560008016b000304888000800370031488000ed
:1025700080162000808f5000040034003048800016
:1025800081e92f0001004000304888000080fa00f7
:10259000000006001400fa00889fbe0039040700fe
:1025a0000004780043040700800044004f08de0068
:1025b000010040000080d100cf80de000ffb07004b
:1025c000600798007107980030488000cf80de00d7
:1025d0000afb0700b2fd20009304240032fb070031
:1025e000020020004333240063fb070040079800eb
:1025f000510798004e009000de009000a0fb0700fd
:102600006e019000fe01900027fb07002007980054
:10261000310798004e009000de0090009afb070002
:102620006e019000fe0190001ffb0700008fbe00ae
:1026300040488000514880002e019000be0190006b
:1026400094fb07004048880051488800604880009b
:10265000714880001e01be008efb070060488800a4
:10266000714888004048800051488000e6fb070020
:102670008000780000602a007dff0700604880002d
:1026800071488000e0fb07008000780040602a006d
:1026900077ff0700f047800001488000dafb070061
:1026a0008000780080602a0071ff070010488000d9
:1026b00021488000d4fb070080007800e0602a00f9
:1026c0006bff07004848800059488000f0478000b1
:1026d0000148800002002000832424006cfb0700d6
:1026e0000001be000040eb00305798000800be001b
:1026f000e6fb07000000e00001003c00020037009c
:1027000010c0b300305798003e5090000004a20063
:102710000004e00041003a00484880005948800029
:10272000f04780000148800002002000832424003c
:1027300058fb07000001be000040eb002057980046
:102740000800be00d3fb07000000e00001003500d8
:102750000200370010c0b300205798002e509000a0
:102760000004a2000004e0002c003a006848800049
:102770007948800010488000214880000200200035
:102780008324240042fb07000001be000040eb0050
:10279000105798000800be00bcfb07000000e000d6
:1027a00001003c000200370010c0b3001057980031
:1027b0001e5090000004a2000004e00017003a0040
:1027c00068488000794880001048800021488000d7
:1027d00002002000832424002efb07000001be001d
:1027e0000040eb00005798000800be00a9fb07005e
:1027f0000000e000010035000200370010c0b30007
:10280000005798000e5090000004a2000004e00061
:1028100002003a00c4c2a80001003700c4c2a900e7
:102820004f04be000080fa00000006000400fa0019
:10283000008fbe003aff0700d042a800401f2000d2
:1028400038030700c0e02f00620307001e00be002f
:102850006dfb07001cff0700d042a9000080fa00b2
:10286000000006000200fa00000f78001e00780049
:10287000cf80de0061fa0700c2962000d306240054
:1028800089fa0700e9ff07001e0078002bff070008
:102890000080fa00000006000400fa00008fbe006d
:1028a0001fff0700d042a800c0e02f001d03070053
:1028b000401f2000470307001e00be0052fb070018
:1028c00001ff0700d042a9000080fa0000000600c6
:1028d0000200fa00000f78001e007800cf80de00b2
:1028e00046fa0700c2962000d30624006efa0700bd
:1028f000e9ff0700801620001e0050000fff0700b0
:102900000080fa00000006000200fa00000f7800c4
:1029100003ff0700803e200002030700803e2000e6
:102920002c0307001e007800e7fe070019ff0700d0
:102930000080fa00000006001400fa00000f980062
:10294000110f98000e089000cf80de002bfa0700d0
:102950000001be0054fa0700600798007107980054
:102960001e089000cf80de0024fa07000001be00a0
:102970004dfa070040079800510798004e0190005b
:10298000de0190006e009000fe009000c1fa07008a
:1029900042fb070020079800310798001e089000ae
:1029a000cf80de0015fa07002e019000be019000d6
:1029b00071fa07006efb0700008fbe0002002000c6
:1029c000433324001e00be0037fa0700b2fd20008a
:1029d0009304240068fa0700008fbe000e089000e0
:1029e0000000e00005003d001e01be0000002000c8
:1029f000413b2400a6fa0700008fbe00304880004b
:102a0000cf80de00fdf907000001be001e00be0001
:102a10009ffa0700008fbe006011b8001e00be00c4
:102a20001cfb07000000e000010035000500370036
:102a300002002000433b24001e00be0095fa070060
:102a4000008fbe0002002000433324001e00be00a1
:102a50000efb07000000e00001003c00070037000b
:102a60001e01be0000002000413b240088fa070040
:102a7000e5fa070096ff0700030037001e00be00be
:102a8000e1fa070077ff07002e009000be009000db
:102a9000ddfa07009cff07000080fa000000060036
:102aa0000800fa0020079800310798002e009000d7
:102ab000cf80de00d1f907004248800053488000f3
:102ac00073fa0700d0fa0700100798003e00900044
:102ad000cf80de00c9f9070062488000734880009b
:102ae0006bfa0700c8fa0700000f78009e00780014
:102af0001e00900090ff07000080fa000000060012
:102b00000000fa00f047800001488000befa07008c
:102b10000080fa00000006000000fa001048800063
:102b200021488000b8fa07000080fa000000060083
:102b30000400fa00000f7800110798001e007800ca
:102b4000cf80de00adf90700f0478800014888001b
:102b50001e009000cf80de00a8f907001048880012
:102b6000214888000080fa00000006000000fa00fa
:102b7000881f78001048800021488000a2fa0700d2
:102b800000047800f0478000014880009efa0700aa
:102b900088007800c2ff07004f0478000080fa0028
:102ba000000006001000fa00889fbe004048800028
:102bb000514880000001be00bbf907000004be00c0
:102bc00060488000714880000001be00b6f907002f
:102bd0000001be000800be002efa0700affa070091
:102be00040079800510798004048800051488000f5
:102bf000f24780000348800025fa07000001be006c
:102c0000a9f907000004be006048800071488000f8
:102c100012488000234880001dfa07000001be0012
:102c2000a1f907000001be000800be0019fa070064
:102c30009afa07002007980031079800f0478000b3
:102c4000014880000001be0097f907000004be00a3
:102c500010488000214880000001be0092f9070062
:102c60000001be000800be000afa07008bfa070048
:102c7000008fbe002e019000be0190004e0090001b
:102c8000de00900003fa07000004be0002002000ee
:102c9000832424001e00be00fdf907000001be00d1
:102ca0000040eb00704f98000800be0077fa070064
:102cb0000000e00001003c000200370010c0b3003b
:102cc000704f98007e4890000004a2000004e000cd
:102cd0001b003a002e019000be0190004e009000b3
:102ce000de009000ebf907000004be0002002000a7
:102cf000832424001e00be00e6f907000001be0088
:102d00000040eb00604f98000800be0061fa070029
:102d10000000e000010035000200370010c0b300e1
:102d2000604f98006e4890000004a2000004e0008c
:102d300003003a00100020006007980002003700ee
:102d40000000eb00600798006e0090004f04be008a
:102d50000080fa00000006000600fa00000f78006c
:102d6000803e20009e0f100003003400803e2000b3
:102d7000100798000700370080c12f009e0f100039
:102d800003003d0080c12f001007980001003700ac
:102d9000020037001e009000200798002e009000cf
:102da0000080fa00000006000600fa00000f78001c
:102db000110798001e009000e7ff07001007980019
:102dc0001e007800200798002e009000e10f5000b0
:102dd000100032002e009000e20f5000160032006a
:102de0002e0090000000e0000100320018003700c3
:102df000814880001e009000808f50001400320037
:102e00001e009000c70107001e0090008048880047
:102e10000f003700914880001e009000808f500006
:102e20000b0032001e009000ea0107001e00900017
:102e300090488800060037009e0090000000eb00dc
:102e4000d9ff07009e00900010002000d6ff070069
:102e50000080fa00000006000000fa000000eb000d
:102e6000200888004110200091407800f0ccb30089
:102e700000c060000044a00004e1b7000000eb00c7
:102e80000008880050282000100888008460a900ed
:102e90008c60a80005e1a8000080fa000000060090
:102ea0003600f800809fbe00829fbe00849fbe0057
:102eb000869fbe003400f80000c0b300a001880067
:102ec0000200fa008460a90040458000000f7800ed
:102ed0001e007800e10f5000330032001e00780021
:102ee000e10f500004003c001e0078000000e000ec
:102ef000080032009a0037001e007800e20f5000f0
:102f00004e0032001e007800e30f500070003200c7
:102f100093003700504580000000e0000c003a00ac
:102f2000502820001008880080002000a906070013
:102f300060458800c0002000a6060700a045880064
:102f4000e2e2a8001000200050458800840037000d
:102f5000e0f1200010088800800020009d06070096
:102f6000e0458800c00020009a060700204688003f
:102f700061458000e0458000008050006046880088
:102f8000a14580002046800000805000a0468800b7
:102f9000e2e2a9000000eb0050458800100020008c
:102fa000404588006e003700504580000000e0007a
:102fb0000c003a00502820001008880090002000e3
:102fc0008406070070458800d000200081060700b5
:102fd000b0458800e302a80010002000504588009a
:102fe0005f003700e0f1200010088800900020000a
:102ff00078060700f0458800d0002000750607001d
:103000003046880071458000f04580000080500007
:1030100070468800b1458000304680000080500036
:10302000b0468800e302a9000000eb00504588008c
:1030300020002000404588004900370050458000ae
:103040000000e0000c003a00502820001008880022
:10305000a00020005f06070080458800e0002000f7
:103060005c060700c0458800e802a80010002000a8
:10307000504588003a003700e0f120001008880031
:10308000a00020005306070000468800e000200052
:1030900050060700404688008145800000468000b9
:1030a0000080500080468800c14580004046800076
:1030b00000805000c0468800e802a9000000eb0034
:1030c000504588003000200040458800240037002b
:1030d000504580000000e0000c003a00502820001d
:1030e00010088800b00020003a06070090458800cc
:1030f000f000200037060700d0458800e822a8002d
:10310000100020005045880015003700e0f1200035
:1031100010088800b00020002e0607001046880026
:10312000f00020002b0607005046880091458000e3
:10313000104680000080500090468800d1458000f5
:103140005046800000805000d0468800e822a90048
:103150000000eb00504588000000eb00404588006f
:103160000080fa003400f9004f03be004f02be0099
:103170004f01be004f00be003600f90000400600bf
:103180000000fa00f505070033ff07000080fa0091
:10319000000006000000fa0005e1a900e822a900ed
:1031a000e8c2bf000080fb000000d1006140600069
:1031b00061416000812e200091407800e0cfb30093
:1031c00000c0600002407000e8e2b700e8c2bf0043
:1031d0006140600061416000312e20009140780024
:1031e000e0cfb30000c0600002407000e3e2b7002f
:1031f000e3c2bf006140600000404000004040006a
:1032000000404000004040000040400000404000be
:1032100080404000e2c2bf000074a1000140700085
:10322000e2e2b7000080fa00000006000400fa00a5
:10323000000f7800700020009e0f10000300360081
:103240000000eb0010079800060037001e00780011
:1032500080004000c08c20000080400010007800fa
:10326000100798001e0090000080fa000000060081
:103270000400fa00000f7800700020009e0f10007c
:10328000030036000000eb0010079800060037002e
:103290001e00780080004000c08a200000804000ae
:1032a00010007800100798001e0090000080fa00bf
:1032b0000000060000a0fe003400f800881f78001f
:1032c00008c0b300a80188004f0478000200fa008b
:1032d00086c0a900304980000000e0000c003400e6
:1032e000504980000000e800504988007049800083
:1032f0000000e90070498800704980000000e0008b
:103300000e003d0030002000704988000b0037009f
:10331000504980000000e900504988007049800051
:103320000000e8007049880070498000e30f5000f9
:10333000020034000000eb007049880070498000f2
:10334000000f78001e007800e10f500013003200db
:103350001e007800e10f500004003c001e007800c1
:103360000000e000080032001a0037001e0078005c
:10337000e20f50000e0032001e007800e30f5000f4
:103380001000320013003700d602a900d622a80090
:10339000d642a900d662a8000e003700d602a900c6
:1033a000d622a800d642a800d662a900090037009c
:1033b000d602a800d622a900d642a800d662a9004b
:1033c00004003700d602a800d622a900d642a900e0
:1033d000d662a8000080fa003400f9000080fe00e8
:1033e0000040060000a0fe003400f800881f7800ae
:1033f00008c0b300a80188004f0478000200fa005a
:1034000086a0a900404980000000e0000c003d00bb
:10341000604980000000e900604988008049800020
:103420000000e90080498800804980000000e00039
:103430000e003d0030002000804988000b0037005e
:10344000604980000000e8006049880080498000f1
:103450000000e8008049880080498000e30f5000a8
:10346000020034000000eb008049880080498000a1
:10347000000f78001e007800e10f500013003200aa
:103480001e007800e10f500004003c001e00780090
:103490000000e000080032001a0037001e0078002b
:1034a000e20f50000e0032001e007800e30f5000c3
:1034b0001000320013003700d682a900d6a2a8005f
:1034c000d6c2a900d6e2a8000e003700d682a90015
:1034d000d6a2a800d6c2a800d6e2a90009003700eb
:1034e000d682a800d6a2a900d6c2a800d6e2a9001a
:1034f00004003700d682a800d6a2a900d6c2a9002f
:10350000d6e2a8000080fa003400f9000080fe0036
:10351000004006000000fa00bb0207000080fa002d
:10352000000006000400fa00000f78001e00e00012
:1035300006003a0021e1a900d602a900d622a9007e
:10354000d642a900d662a9002000370021e1a900d7
:103550001e007800304988000000eb000009880058
:10356000011220009140780000c3b30000c0700039
:1035700020e1b7000000eb00c00888001e017800c1
:10358000120798001e0090000000e00003003d00bc
:103590001e0190000201ea00120798001e0190002f
:1035a0006110b90015f707000001be0000002000ff
:1035b0001176240070f707006ff80700e008880014
:1035c00086c0a9008ec0a80021e1a8000080fa00f2
:1035d000000006000400fa00000f78001e00e00062
:1035e00006003a001fe1a900d682a900d6a2a900d0
:1035f000d6c2a900d6e2a900200037001fe1a90029
:103600001e007800404988000000eb00f0088800a8
:10361000e11120009140780000c3b30000c07000a9
:103620001ee1b7000000eb00a00888001e01780032
:10363000120798001e0090000000e00003003d000b
:103640001e0190000201ea00120798001e0190007e
:103650006110b900e9f607000001be00000020007b
:103660001176240044f7070043f80700d0088800cb
:1036700086a0a9008ea0a8001fe1a8000080fa0083
:10368000000006000000fa00504980000080fa00a7
:10369000000006000200fa00000f78001027fc006e
:1036a0001e007800504988000200fc000080fa00eb
:1036b000000006000000fa00604980000080fa0067
:1036c000000006000200fa00000f78001027fc003e
:1036d0001e007800604988000200fc000080fa00ab
:1036e000000006000400fa00004f7800114798001f
:1036f000224798009b0207002e4190009e409000b8
:103700001e407800c30207009a0207000080fa00fa
:10371000000006000400fa00204798003147980096
:1037200090020700be4090002e40900095020700d6
:10373000004f78008f0207001e80fb000080fa0017
:10374000000006000a00fa00404798003107980080
:10375000024f9800134f98000040eb00204798005c
:103760000000eb00000f78004400370010c0b300e9
:103770002047980035030700804078002e409000d5
:1037800001406000204798004e4090004a04070026
:10379000804078002e409000014060002047980053
:1037a00001c8b3000e48900000c07000420407003a
:1037b000804078002e409000014060002047980033
:1037c00044030700804078002e40900001406000d4
:1037d000204798004e4090000040e8003604070063
:1037e000804078002e409000014060002047980003
:1037f0000000eb00000f7800170037009e007800f3
:103800003e00900000804000d50307008040780013
:103810002e40900001406000204798001e48900014
:103820000080fb000000e9009e0f500005003a00f8
:1038300098030700ae40900000c060002047980049
:103840000400370060030700ae40900000c0600035
:10385000204798001e0fe8001e4890000080fb00e3
:103860009e0f5000e5ff3e003c0307002e409000f5
:103870000004e00004003a00c20207002e4090005d
:103880000004e000b9ff32002e4090000000fb0071
:103890000080fa00000006000000fa003102070074
:1038a000f2c9b30001c2b300c0c3b300590207009c
:1038b00002c5b30051c2b300c0c3b3005502070034
:1038c000f2ccb30001c2b30040cdb30051020700f7
:1038d00002c2b30011c2b30040cdb3004d020700d5
:1038e0000041eb0031c2b30040cdb30049020700f4
:1038f000200207000080fa00000006000200fa0023
:10390000000f78001702070063c0b30082c2b30043
:103910009e007800c0c3b3008aff070015020700ad
:103920000080fa00000006000c00fa003007980042
:1039300041079800520798000a02070063c0b300cd
:1039400082c2b3008e007800c0c3b3007dff0700c1
:10395000080207001e4090000080fb0000004000ad
:103960000000400000004000000040000000400057
:10397000000040000000400000004000800078008f
:103980001e4078000080fb00808040003e009000d8
:10399000010878003e4090000080fb0000004000dd
:1039a0000000400000004000000040000000400017
:1039b000000040000000400000004000800078004f
:1039c0002e4090000080fb00808040004e00900060
:1039d000010878005e4090000080fb00000040007d
:1039e00000004000000040000000400000004000d7
:1039f000000040000000400000004000800078000f
:103a00004e4090000080fb00808040005e009000ef
:103a1000010878000080fa00000006000200fa00a9
:103a2000d00107008e00780023c0b30082c2b3002b
:103a3000c0c3b30043ff0700ce0107001e40900043
:103a40000000fb00000040000000400000004000bb
:103a50000000400000004000000040000000400066
:103a600000004000800078001e4078000000fb004d
:103a7000008040000080fa00000006000200fa000a
:103a8000b80107008e00780023c0b300a2c2b300c3
:103a9000c0c3b3002bff0700b60107001e40900013
:103aa0000000fb000000400000004000000040005b
:103ab0000000400000004000000040000000400006
:103ac00000004000800078001e4078000000fb00ed
:103ad000008040000080fa00000006000200fa00aa
:103ae000a00107008e00780023c0b300c2c2b3005b
:103af000c0c3b30013ff07009e0107001e409000e3
:103b00000000fb00000040000000400000004000fa
:103b100000004000000040000000400000004000a5
:103b200000004000800078001e4078000000fb008c
:103b3000008040000080fa00000006000200fa0049
:103b4000000f78008701070063c0b30082c2b30092
:103b50009e00780040cdb300fafe07008501070003
:103b60000080fa00000006000c00fa003007980000
:103b700041079800520798007a01070063c0b3001c
:103b800082c2b3008e00780040cdb300edfe070086
:103b9000780107001e4090000080fb0000004000fc
:103ba0000000400000004000000040000000400015
:103bb000000040000000400000004000800078004d
:103bc0001e4078000080fb0080804000d0498000cb
:103bd000808050003e009000010878003e40900038
:103be0000080fb000000400000004000000040009a
:103bf00000004000000040000000400000004000c5
:103c000000004000800078002e4090000080fb0003
:103c100080804000e0498000808050004e0090008d
:103c2000010878005e4090000080fb00000040002a
:103c30000000400000004000000040000000400084
:103c400000004000000040000000400080007800bc
:103c50004e4090000080fb0080804000f0498000d2
:103c6000808050005e009000010878000080fa001b
:103c7000000006000200fa003a0107008e007800fa
:103c800023c0b30082c2b30040cdb300adfe070035
:103c9000380107001e4090000000fb0000004000bb
:103ca0000000400000004000000040000000400014
:103cb000000040000000400000004000800078004c
:103cc0001e4078000000fb0080804000d04980004a
:103cd000008050000080fa00000006000200fa0098
:103ce000200107008e00780023c0b300a2c2b300f9
:103cf00040cdb30093fe07001e0107001e40900058
:103d00000000fb00000040000000400000004000f8
:103d100000004000000040000000400000004000a3
:103d200000004000800078001e4078000000fb008a
:103d300080804000e0498000008050000080fa0050
:103d4000000006000200fa00060107008e0078005d
:103d500023c0b300c2c2b30040cdb30079fe070058
:103d6000040107001e4090000000fb00000040001e
:103d70000000400000004000000040000000400043
:103d8000000040000000400000004000800078007b
:103d90001e4078000000fb0080804000f049800059
:103da000008050000080fa00000006000000fa00c9
:103db00061c2b30040cdb30056fe07000000fb0017
:103dc0000080fa00000006001000fa00700798005a
:103dd000e80047000000eb0080087800e80047009a
:103de0000000eb0090009800e80047000000eb00a6
:103df000a00098000000eb00000f78000000eb002e
:103e0000000f7800420037000e80e8004bff0700eb
:103e100068004700100178000e80e8001040900014
:103e20000080fb0000004000000040000000400057
:103e30000000400000004000000040000000400082
:103e400000004000800078000e80e80010407800fc
:103e50000080fb00008040008000410068004700b7
:103e60000108780068004700100190000e80e8000b
:103e7000304090000080fb00000040000000400047
:103e80000000400000004000000040000000400032
:103e90000000400000004000800078000e80e80034
:103ea000204090000080fb00008040008000410026
:103eb000680047001100980068004700200190004a
:103ec0000e80e800504090000080fb0000004000a1
:103ed00000004000000040000000400000004000e2
:103ee000000040000000400000004000800078001a
:103ef0000e80e800404090000080fb000080400001
:103f00008000410068004700210098001e0fe80073
:103f10007e0090009e0f1000bbff35006800470038
:103f2000100078007e019000110009000200d80006
:103f3000d049880068004700100090007e01900082
:103f4000110009000200d800e0498800680047001d
:103f5000200090007e019000110009000200d800ae
:103f6000f04988000080fa00000006000200fa0014
:103f7000000f78001e007800cf80de009ff407005d
:103f800092c22500f3c02300c7f407000080fa00a6
:103f9000000006000200fa00000f78001e00780002
:103fa000cf80de0095f4070072cf2c002371230030
:103fb000bdf407000080fa00000006000200fa00cd
:103fc00060000700ef00070066000700f1c0b300c3
:103fd000c0c3b3006b000700004f78006500070006
:103fe00000c4b3009e4f100003003a0010c0b3009d
:103ff00046e9b700020037000040eb0046e9b70091
:104000000080fa00000006000000fa00c4c2a90007
:10401000c4e2a900c522a900c582a900c542a90021
:10402000c5a2a900c5c2a900c5e2a900c0c2a900d5
:10403000c0e2a900c122a900c182a900c142a90011
:10404000c1a2a900c1c2a900c1e2a900d022a90051
:10405000cc22a900d042a900cc42a900e2e2a900ea
:10406000e302a900e802a900e822a900dee2a90013
:10407000df02a900e402a900e422a900e202a900eb
:10408000de02a900d602a900d622a900d642a900c4
:10409000d662a900d682a900d6a2a900d6c2a900dc
:1040a000d6e2a900d202a900d222a900d242a900d8
:1040b000d262a900d282a900d2a2a900d2c2a900cc
:1040c000d2e2a900d1a2a900cda2a900e842a9008c
:1040d000e862a900e442a900e462a900de22a80087
:1040e000dec2a800e4c2a800e4e2a800e502a8003d
:1040f000e522a800d302a800d322a800d342a8003a
:10410000d362a800d382a800d3a2a800d3c2a8007b
:10411000d3e2a800a9ff070046c9bf000004e000e1
:1041200001003200dcfd07000080fa0000000600fc
:104130000000fa0046c9bf000080fb000080fa00c2
:10414000000006000000fa00680007000080fa0086
:10415000000006000000fa00810007000080fa005d
:10416000000006000000fa00ac0007000080fa0022
:10417000000006000000fa00ae0007000080fa0010
:10418000000006000400fa0020479800314798001c
:104190000040eb00004f78001800370010c0b3005b
:1041a000004f7800a90007001e4f60002e409000cd
:1041b000c10107001e4f60003e409000be01070095
:1041c0001e4f6000c30007001e4f60002e4090008d
:1041d0000040e800b80107001e4f60000e00e80034
:1041e0005f0107001e4f60002a010700db00070087
:1041f0001e04e00003003a00620007001e04e00015
:10420000e6ff32001e4090000000fb000080fa0034
:10421000000006000600fa00204798003147980089
:10422000424798000040eb00004f78001200370032
:1042300010c0b300004f7800840007001e4f6000dc
:104240002e4090009c0107001e4f60003e409000f1
:10425000990107001e4f60004e4090009601070034
:104260001e4f6000bd0007001e4f60001e04e000ee
:1042700003003a00430007001e04e000ecff320098
:104280001e00fb000080fa00000006000000fa009b
:104290000000370006c2bf00614060000004e0007b
:1042a000fcff3a0006c2bf00644060000004e0006a
:1042b000f8ff3a0006c2bf00684060000004e0005a
:1042c000f4ff3a0006c2bf00704060000004e00046
:1042d000f0ff3a0009c2bf000044b2000004e00051
:1042e000ecff3a000080fa00000006000400fa002b
:1042f000600920002010880007e2a90007e2a8005a
:1043000085c0a90085a0a900b109200091407800ce
:1043100080cfb30000c060005040b3009be0b70006
:104320008da0a9000071220001002000008fbe00b6
:10433000040037000080eb008080eb001e0f40007f
:104340005e9748001e00be00e00f5000e08f58004e
:10435000f8ff3a00100020000080fa00000006007c
:104360000000fa0007e2a90085c0a90085a0a90005
:104370008dc0a9008da0a900100020000080fa00c7
:10438000000006000400fa006000b800008fbe00c4
:1043900007e2a90085c0a90085a0a9008da0a900f9
:1043a0000000eb0040108800007122000100200096
:1043b000008fbe00040037000080eb008080eb001f
:1043c0001e0f40005e9748001e00be00e00f500028
:1043d000e08f5800f8ff3a00c4ff07000f00070005
:1043e0000071220001002000008fbe000400370091
:1043f0000080eb008080eb001e0f40005e974800bd
:104400001e00be00e00f5000e08f5800f8ff3a0099
:10441000100020000080fa00000006000000fa00f2
:1044200085c0a9008dc0a800100020000080fa00ff
:10443000000006000000fa0085c0a9008dc0a90098
:10444000100020000080fa00000006000600fa00bc
:1044500010c0b30032e9b70008c2bf00704060006e
:104460000004e000160032000602a80000712200dd
:1044700001002000008fbe000a00370032c9bf00d3
:104480000004e00003003a0010002000200798001c
:104490000d0037000080eb008080eb001e0f400015
:1044a0005e9748001e00be00e00f5000e08f5800ed
:1044b000f2ff3a008000eb0021079800020037006d
:1044c0000000eb00200798002e0090000080fa000a
:1044d000000006000600fa0060c0b30032e9b70031
:1044e00008c2bf00684060000004e000160032000f
:1044f0000622a8000071220001002000008fbe00eb
:104500000a00370032c9bf000004e00003003a008f
:1045100010002000200798000d0037000080eb00fd
:104520008080eb001e0f40005e9748001e00be001a
:10453000e00f5000e08f5800f2ff3a008000eb00df
:1045400021079800020037000000eb0020079800c8
:104550002e0090000080fa00000006000600fa001d
:1045600050c0b30032e9b7000642a8000071220033
:1045700001002000008fbe000a00370032c9bf00d2
:104580000004e00003003a0010002000200798001b
:104590000a0037000080eb008080eb001e0f400017
:1045a0005e9748001e00be00e00f5000e08f5800ec
:1045b000f2ff3a008000eb00210798002e009000e7
:1045c0000080fa00000006000600fa0030c0b300c8
:1045d00032e9b70006c2bf00614060000004e0009d
:1045e00010003a0006c2bf00644060000004e00012
:1045f0000c003a0006c2bf00684060000004e00002
:1046000008003a0006c2bf00704060000004e000ed
:1046100004003a0006c2bf00624060000004e000ef
:10462000030032000000eb0020079800160037005e
:1046300006a2a9000682a800007122000100200045
:10464000008fbe000a00370032c9bf000004e0003e
:1046500003003a0011002000210798000a003700eb
:104660000080eb008080eb001e0f40005e9748004a
:104670001e00be00e00f5000e08f5800f2ff3a002d
:104680008000eb00210798002e0090000080fa00c7
:10469000000006000600fa0030c0b30032e9b7009f
:1046a00006c2bf00614060000004e00010003a0054
:1046b00006c2bf00644060000004e0000c003a0045
:1046c00006c2bf00684060000004e00008003a0035
:1046d00006c2bf00704060000004e00004003a0021
:1046e00006c2bf00624060000004e0000300320028
:1046f0000000eb00200798001600370006a2a80073
:104700000682a8000071220001002000008fbe0078
:104710000a00370032c9bf000004e00003003a007d
:1047200011002000210798000a0037000080eb00ec
:104730008080eb001e0f40005e9748001e00be0008
:10474000e00f5000e08f5800f2ff3a008000eb00cd
:10475000210798002e0090000080fa00000006005b
:104760000a00fa00300798000071220001002000c2
:1047700010079800210798000040eb00004f7800d8
:1047800040c0b30032e9b7000071220001002000f0
:1047900010079800210798001d00370006c2bf00cf
:1047a000614060000004e00013003a0006c2bf0050
:1047b000644060000004e0000f003a0006c2bf0041
:1047c000684060000004e0000b003a0006c2bf0031
:1047d000704060000004e00007003a0009c2bf001a
:1047e0000044b2000004e00003003a0010c0b3002f
:1047f000004f78000b0037001e009000ae009000c4
:1048000061005000e08058001007980021079800d0
:104810001e009000ae009000e00f5000e08f5800a6
:10482000deff3a001e04e00003003a000000eb0047
:10483000400798001d0037000662a800006a2800a3
:104840001100200010079800210798001000370081
:1048500032c9bf000004e00007003a0000c2bf00f8
:10486000804078003e009000014878001000200051
:10487000400798000d0037001e009000ae00900029
:1048800061005000e0805800100798002107980050
:104890001e009000ae009000e00f5000e08f580026
:1048a000ebff3a000000eb00400798004e0090003c
:1048b0000080fa00000006000800fa004047980057
:1048c00020c0b30032e9b7004e40900002e2b700ca
:1048d0000071220001002000008fbe000a00370096
:1048e00032c9bf000004e00003003a0010002000bd
:1048f000300798000a0037000080eb008080eb0052
:104900001e0f40005e9748001e00be00e00f5000e2
:10491000e08f5800f2ff3a008000eb00310798006a
:104920003e0090000080fa0000000600801f780022
:104930003400f80000c0b300a00188000000fa00b5
:1049400085c0a9000040eb0032e9b7000080fa0002
:104950003400f9004f007800004006000000fa0023
:104960000000eb002015880020158000101588003d
:104970001015800000158800a802a800a822a80031
:10498000a842a900a862a900a882a900a8a2a9001b
:10499000a8c2a900a8e2a900a902a900a922a90009
:1049a000a942a900a962a900a982a900a9a2a900f7
:1049b000a9c2a900a9e2a9002001200020158800b1
:1049c0007000200030158800a1e2a8000080fa00e5
:1049d000000006000600fa00100798001e00900074
:1049e000ef0f5000030036000000eb002007980096
:1049f000120037001e00900030158800a022a80089
:104a00000000eb00000f7800010037001e0fe800e7
:104a1000700220009e0f1000fcff34008560a9008a
:104a2000a022a90085c0bf00684060000004e0002b
:104a3000fcff320000148000200798002e00900038
:104a40000080fa00000006000c22ef000e22ef00aa
:104a50000ee2a9000ec2a9008520a9008d20a800a1
:104a60000de2a80070002000a01088008540a90079
:104a70008d40a80081e0a900c0048000f1002f0053
:104a8000008060000155200000804000c0048800c4
:104a90000fe2a8000f42a800a428ef00a628ef000c
:104aa000000006008540a900809fbe00821f78009c
:104ab0004409e200150032004009e200160032000d
:104ac0004209e20014003200014a80004200200046
:104ad0000f22af00feff3700104a80000000e00008
:104ae000070032000000e90042a9b7003140780019
:104af00010e2b7000201e900f5ff3a0002003700ba
:104b00004029ef0001003700014a88004f0178007a
:104b10004f00be000040060000002000204a880030
:104b20004f0178004f00be00004006004409e2003b
:104b3000feff3a008d40a9008100e900114a88007b
:104b4000b040780081108800004a880011002000e1
:104b5000214a88008d40a80000000600204a8000fd
:104b600000000600809fbe008520a9000e22a9003b
:104b70000e02ab000800320020458000f003b200b6
:104b8000418620008100400012c2bf0080487800aa
:104b9000a428ec00f6ff37004f00be0000400600de
:104ba00020458000314580000100500000000600d3
:104bb00021458000324580000208e10008003200f3
:104bc000f203b2004186200002814000924078004a
:104bd00001487800a628ec00100020000000060024
:084be0000000eb0000000600dc
:020000040000fa
:0200000401f009
:04000000e6ff000017
:020000040000fa
:0200000401f009
:04000400ff7f00007a
:020000040000fa
:0200000401f009
:040008007fff000076
:020000040000fa
:0200000401f009
:04001400ffff0000ea
:020000040000fa
:10000800d6260000d6260000d6260000d6260000f8
:10001800d6260000d6260000d6260000d6260000e8
:10002800d6260000d6260000d6260000501700006d
:10003800d6260000d6260000d6260000d6260000c8
:10004800d6260000b225000052250000d626000062
:10005800d6260000d626000096240000d6260000ea
:10006800d6260000d6260000d6260000d626000098
:10007800d6260000f21900005a190000d626000002
:10008800d6260000d6260000d6260000d626000078
:10009800d6260000d6260000d6260000d626000068
:1000a800d6260000d6260000d6260000d626000058
:1000b800d6260000d6260000d6260000d626000048
:1000c800d6260000d6260000d6260000d626000038
:1000d800d6260000d6260000d6260000d626000028
:1000e800d6260000d6260000d6260000d626000018
:0800f800d6260000d626000008
:020000040000fa
:10010800d6260000d6260000d6260000d6260000f7
:10011800d6260000d6260000d6260000d6260000e7
:10012800d6260000d6260000d6260000501700006c
:10013800d6260000d6260000d6260000d6260000c7
:10014800d6260000b225000052250000d626000061
:10015800d6260000d626000096240000d6260000e9
:10016800d6260000d6260000d6260000d626000097
:10017800d6260000f21900005a190000d626000001
:10018800d6260000d6260000d6260000d626000077
:10019800d6260000d6260000d6260000d626000067
:1001a800d6260000d6260000d6260000d626000057
:1001b800d6260000d6260000d6260000d626000047
:1001c800d6260000d6260000d6260000d626000037
:1001d800d6260000d6260000d6260000d626000027
:1001e800d6260000d6260000d6260000d626000017
:0801f800d6260000d626000007
:020000040000fa
:104be80028250000732000002d2000002564000007
:104bf800290d00000a000000583a000020000000bb
:104c0800593a000020000000474f0000414c0000c6
:104c180058000000474f0000414c000059000000b8
:020000040000fa
:104c2800fe08000016000000020000000000fa0064
:104c380043000000fa4300000000000000000000ec
:104c48000000000000000000000000000008000054
:104c58006400000000000000a80800003400000004
:104c680000000000260900000c0000000000000001
:104c78003a090000060000000200000000000000e1
:104c880000000000460900000200000002000000c9
:104c980000000000320900000800000000000000c9
:104ca80040090000060000000200000000000000ab
:104cb800000000006408000044000000020000003a
:104cc80000000000000000000000000000000000dc
:104cd80000000000000000000000000000000000cc
:104ce80000000000000000000000000000000000bc
:104cf80000000000000000000000000000000000ac
:104d0800000000000000000000000000000000009b
:104d1800000000000000000000000000480900003a
:104d2800020000000000000014090000120000004a
:104d3800020000000100020000040000080010004a
:104d480000000000202b2d00233000004a0900003d
:104d58000800000002000000686a6c00747a4c00c9
:104d680000000000dc080000220000000200000033
:104d7800303132003334350036373800396162005b
:104d88006364650066003000313233003435360024
:104d980037383900414243004445460000000000ce
:044da8000000000007
:020000040000fa
:044dac000000fe0005
:00000001FF
