:020000040000fa
:080000001001040000000000e3
:020000040000fa
:1002000088120400000000006c13040000000000cd
:100210006e4f040000000000bc020400000000005b
:10022000cf3b2100807922000001880000000000ff
:10023000050007000c0007003e110200000000004e
:100240000040da000000fe004440a900c00d20007c
:100250000000e0000300320000002000a001880040
:100260004440a8000000060060472500010020006f
:100270001600370062004000e080480091018800cd
:100280009001ba0062004000e080480091018800bf
:100290009002ba0062004000e08048000002eb00db
:1002a0006028e10005003a008301e90007003300ff
:1002b000038009000059eb00040037006128e100c9
:1002c000010032000082eb00050007009101880068
:1002d0001001ba000200e000e6ff3a00000005004d
:1002e000910188008002780062004000e0804800b0
:1002f0003559ba008301e900080032002559ba00d7
:100300008301e900050032000400e000f4ff320040
:1003100015d9ba008301e900f1ff3a000000060098
:10032000889fbe00e30440000900a100808f5400b4
:1003300049003600e38f540001003e0049002000d0
:10034000f08c80000000e0000200320080007800a5
:100350000c003700011a210003003700908f540071
:10036000230036008080e800110078001100e000d2
:10037000faff3a000f003700928f54001c0036003d
:100380008280e800110178001100e000faff3a00d5
:1003900010017800011a210003003700908f5400eb
:1003a000130036008080e80011007800820f5000b2
:1003b000faff3a00e88c8000890f540001003100f8
:1003c0000904780008007800890007000000e000b8
:1003d00004003a00890f54001f0032000804d100c5
:1003e000f5ff37000818780030000700d4ff370009
:1003f000110178009201780064805100890f50004b
:1004000003003100120090008008780007003700d8
:1004100009004100800878009201900013009800c4
:100420001100780012881400090978009101780001
:100430001100e00004003200130090008380e80007
:100440000000e00001003a008000eb00f18c880021
:100450000280e800010037000000eb004f04be00fe
:10046000000006000004780006003700820041000a
:10047000208d8000e10078000200e800108d8800e7
:1004800001000100128d8000308d8000800f51002e
:10049000f6ff3900e00a2100208d880020022000ac
:1004a000308d880008007800f70307000000e000a6
:1004b000300032008080e90091027800e38f520022
:1004c0002c0036000508a3002a003a00028d8000a7
:1004d0000200e00002003200828f50000400310070
:1004e00002087800018d88001600370003017800ab
:1004f000920190000300e00002003200818f510061
:10050000faff39001202780004004100808f500089
:1005100018003900810f500003003a00050942001d
:1005200082007800070037000300e000030032007b
:1005300005804000808f51000e0039009300980024
:1005400011019800110190000200e0000900320042
:1005500011804000820f500006003a009e31ef00eb
:1005600011009000110178009008410010009000e7
:100570009000980000000600881f780002047800b0
:1005800022000700080040004f0478000000060029
:100590000000fa00881f7800000478003fb9970037
:1005a000ea81570080007800c02b2000200007005f
:1005b000800078000000e000020035000040eb0001
:1005c00080707c00010078004f0478000080fa0001
:1005d0000000060080007800010037000000e800fd
:1005e0001004e000fdff3a0001005000000006008a
:1005f0000000e00003003400ab030700e10f4000ff
:1006000001003a000000eb00000006000002780044
:100610008001780001003700b159780002004200e3
:10062000808f5100fcff3a000400780000000600b3
:100630006200fa00889fbe008a9fbe000004be00d0
:10064000020578008300780060f92f000f00400059
:10065000af00070088979f0099979f000000eb006c
:10066000a09f9f009a4578000b80fb000000ea00e5
:10067000cf04de000904e90050c2b30080cf55006a
:1006800001003200090478000800e0000b0034008b
:10069000080178008a0078001f9097008f919700da
:1006a0000300010090979f000000e00093003200db
:1006b0002f98970008004000a09f9f000905450063
:1006c00050c2b30080cf5500040032000b04e0009c
:1006d000e4ff3a002f989700890037000000eb00f4
:1006e000809f9f00f0979f00e0979f00d0979f000a
:1006f000c0979f00b0979f00c09f9f0009003700e0
:1007000040152100008050000000400081142100ad
:10071000e08078004f98970001007000c09f9f0014
:100720000a05e8001a4478008800fb004015210003
:100730007c000700800078000000e000f0ff3a0035
:10074000a0c2b300804f54000e003a00bf8897004b
:100750000180e900b08f9f0090007800b19f9f005a
:100760000100e00005003d000100ea00b09f9f008d
:100770004f9897000020a000c09f9f000a05e80046
:1007800010003700b19f9f0009003700bf98970005
:10079000f0ff2700808f5000040032006a08b90083
:1007a0000000410003004000b09f9f000a05e800e0
:1007b0001a01fb0003fd2f0003004100e90f500068
:1007c000f2ff3600e0c2b3009a4f1000040032007e
:1007d0000080eb00909f9f008a0478001c00370087
:1007e0008a04e800a0c2b300994f100007003a0045
:1007f000bf8897000180e900b08f9f00100078004b
:10080000909f9f008a84e800110037000000eb00f1
:10081000909f9f00090037009f989700f0ff2700e6
:10082000808f5000040032006a08b90000004100c7
:1008300003004000909f9f008904e8001901fb001d
:1008400003fd2f0003004100e90f5000f2ff3600c6
:10085000194478008800fb00401b2100310007008c
:100860000000e00002003a00004478000100370078
:100870008904e800a87f9f0080c6b300804f540021
:1008800004003a0066405000994f140007003200ff
:1008900008003700c0c6b300804f540005003a007e
:1008a000994f140003003a0065404000a07f9f006c
:1008b0008904e8000905e800c8fb2f000f04440084
:1008c00060f92f000f0040008085e8008801780063
:1008d0001901fb00800078000b0078001900070068
:1008e0000000e00005003a00880078000b00780066
:1008f0005e0107000000e0005aff3d000080eb00b1
:100900004f05be004f04be000080fa000000060044
:100910000200fa00f1bf9f00010878000080fa0091
:1009200000000600040037001004e00001003a0057
:10093000000005000000e80090cf1000faff3a0028
:1009400000000600889fbe008a1f7800000478001f
:10095000010278008244780003057800e0c6b30005
:10096000804f5100d700320015003c006b40500012
:10097000804f5100240032000a003c0070405000bb
:10098000804f51001401320065404000804f5100fb
:100990007600320050c2b300804f510027013a0068
:1009a0002301370040c6b300804f51001b003200c6
:1009b00065404000804f510020013a001700370089
:1009c00030c7b300804f51000301320007003c00e4
:1009d00064405000804f5100640032000040e80045
:1009e000804f510015013a00ec00370050c7b300aa
:1009f000804f51005d00320063404000804f510045
:100a00000e013a00590037009180e900010a780090
:100a10007800900011f079000e01370028619000f5
:100a2000c0c6b300804f51000a003a00140078009d
:100a300064015000020a78001200be004f88de00f8
:100a4000cf80de001202be00000378008003780031
:100a50001500370010c7b300804f510002003a0064
:100a6000940078000400370094007800a0c6b3001a
:100a7000804f510005003a0068805000000a78005d
:100a80003002be002003be00070037000180e900ed
:100a9000000a78001000780000027800cfa2de0083
:100aa0000503780086037800049cbe000694be000f
:100ab000a860900080c6b30080cf50000e003200c6
:100ac00020c6b30080cf500005003a000400fb00b0
:100ad000cf80de0001017800820178000a00370033
:100ae00040c7b30080cf5000030032006640400092
:100af00080cf500006003a0004007800cf80de006e
:100b00000101780082017800009cbe000294be00c2
:100b10003800be002801be00e00f5000e08f5800f2
:100b2000e00f5900e08f590003003d00780090006d
:100b3000d1c2b3000a003700081090000018a300cb
:100b40000300320078009000b1c2b3000400370007
:100b50000008a300560032007800900001c2b300e4
:100b600001707d000000e80050003700286190000f
:100b7000c0c6b300804f510007003a0094007800cf
:100b800064805000000a78001002be000003eb00f1
:100b9000860378001500370010c7b300804f51005e
:100ba00002003a00940078000400370094007800b6
:100bb000a0c6b300804f510005003a006880500085
:100bc000000a78003002be002003be000700370094
:100bd0000180e900000a7800100078000002780027
:100be000050020000600200007002000049cbe0035
:100bf0000694be00a860900080c6b30080cf50006d
:100c00000e00320020c6b30080cf500005003a002d
:100c10000480fb00010020000200200003002000ef
:100c20000a00370040c7b30080cf500003003200f5
:100c30006640400080cf500006003a000400780073
:100c4000010020000200200003002000009cbe00e4
:100c50000294be00081090000038a3001400320077
:100c60003800be002801be00e00f5000e08f5800a1
:100c7000e00f5900e08f59000d00320080c7b3002b
:100c800080cf54000300320080c5b30080cf5400f1
:100c900007003a007800900001c3b30001707d00a6
:100ca0008000e80089707d000080e80070049800f2
:100cb00078009000000045006004980089407800aa
:100cc00042003700a8609000c0c6b30080cf50003b
:100cd000250032000a003c006440500080cf5000e4
:100ce0002800320000c0e80080cf5000140032001d
:100cf0006840500080cf500022003a000a003700c0
:100d000040c7b30080cf50001e0032006640400054
:100d100080cf50001b0032006940500080cf50004f
:100d200018003a00060037001480e900000a780035
:100d300010007800485c90000848780047003700b1
:100d40001480e900000a780010027800680890001a
:100d5000cf80de000101780082017800009abe0099
:100d60000292be003d0037001480e900000a7800be
:100d70001001780068089000cf80de000089be0076
:100d8000360037001480e900000a7800100078006f
:100d9000680c900008087800300037001180e900e6
:100da0008008780010007800cf80de000101780014
:100db00082017800009cbe000294be007800900082
:100dc000000045006004980081c7b3000800780067
:100dd000f0000700210037001480e900000a7800c5
:100de0009001780063049800580990000200e00028
:100df00003003d0003007800f6fd07000a003700fd
:100e00008000eb0003007800950107008000780067
:100e10000000e000030032006800900000805000f5
:100e20000100370058089000100c98000b003700a4
:100e30007800900002707d00060037007800900076
:100e4000800045000904e00001003a0059c2b300e7
:100e5000894878000000e800700498000000eb006a
:100e60004f0578004f04be00000006000400fa00a1
:100e7000889fbe008a9fbe008c1f78000004780007
:100e80000106780070089000f80090000100500002
:100e90008808900001005000980890000100500060
:100ea000a808900001005000b80890000100500010
:100eb000c80890008105500000022200a0bf9f00da
:100ec0000003230090bf9f00081090000028a3009b
:100ed00018003a000b00e000160034008b04780084
:100ee00009057800e28f5400020036002a00200035
:100ef000020037000900e0000b003400c801900038
:100f00000a017800ec8057005800900003000100af
:100f1000500498000000e00096003200680890003d
:100f20000a004000600c98008a8454004240a900e6
:100f3000ebff3c00780190000200e0000b00340061
:100f4000c80190008c007800580090000300010058
:100f5000500498000000e00086003200680890000d
:100f6000f800900001004000600c9800880c900090
:100f70000900e0001500340009057800e28f5400f4
:100f8000020036002a002000020037000900e000bd
:100f90000b003400c80190000a017800ee80570071
:100fa0005800900003000100500498000000e00089
:100fb00070003200680890000a004000600c980041
:100fc0008a8454004240a900ebff3c0018099000bd
:100fd0000200e0000b003400c8019000e80090001f
:100fe0005800900003000100500498000000e00049
:100ff00060003200680890009808900001004000ee
:10100000600c9800a80c90000900e0001500340066
:1010100009057800e28f5400020036002a00200003
:10102000020037000900e0000b003400c801900006
:101030000a017800ee80570058009000030001007c
:10104000500498000000e0004a0032006808900058
:101050000a004000600c98008a8454004240a900b5
:10106000ebff3c00380990000200e0000d00340066
:10107000e80090001808900080804000c8019000af
:101080005800900003000100500498000000e000a8
:101090003800320068089000b80890000100400055
:1010a000600c9800c80c90000900e00015003400a6
:1010b00009057800e28f5400020036002a00200063
:1010c000020037000900e0000b003400c801900066
:1010d0000a017800ee8057005800900003000100dc
:1010e000500498000000e0002200320068089000e0
:1010f0000a004000600c98008a8454004240a90015
:10110000ebff3c00081090000028a3001b003200f9
:101110000b00e000190034008b047800090578000a
:10112000e28f5400020036002a002000020037003f
:101130000900e0000b003400c80190000a017800ab
:10114000ec80570058009000030001005004980004
:101150000000e00007003200680890000a0040002c
:10116000600c98008a8454004240a90003003400b7
:10117000eaff37000080eb00010037000000eb00c1
:101180004f0678004f05be004f04be000080fa00f5
:10119000000006006f02b000889fbe008a9fbe005c
:1011a0008c9fbe008e1f7800000678003010210052
:1011b00080bf9f0080c5b30080cf50000700320081
:1011c00082002000f2b79f00230f210083bf9f0001
:1011d0007740400080cf50000a00320080c7b30043
:1011e00080cf500005003200a4002000f4b79f001b
:1011f00080c5b30080cf500002003a0000012000fb
:10120000f0b79f003c04be002c05be0040c6b300f2
:1012100080cf5000030032006540400080cf500076
:101220000b003a00e00f5400e08f5c00e00f5d001f
:10123000e08f5d0006003d006000b8006011b8005e
:1012400008045000898458000a0559008b8559000c
:10125000e00f5400e08f5c00e00f5d00e08f5d0068
:1012600004003a005c0890008d0120000000e000be
:101270000c003200ffb0970001027800cfa2de0020
:1012800005037800860378000800be000a01be004e
:101290001d0307000fba970064407800d0e79f0055
:1012a0007d0120007fb0970000027800cfa2de0011
:1012b00005037800860378000800be000a01be001e
:1012c0000a030700009ebe000296be000d00e90062
:1012d000e1fc2f008f804000008740001a0037009b
:1012e0007fb1970002027800cfa2de0005037800ec
:1012f000860378003c00be002c01be0006030700f8
:101300000205be000004be008d06e900ffb1970093
:1013100003027800cfa2de00050378008603780080
:101320000800be000a01be00840307003fb2970018
:10133000000052008fb8970060cf7800089ebe0072
:101340000a96be000e07e9003c00be002c01be005c
:10135000b0b79f00c1b79f00d2b79f00e3b79f000f
:10136000e00f5000e08f5800e00f5900e08f590067
:10137000020034000d00e000d9ff3c00ffb09700f0
:10138000e88f500010003a000c1090000038a300c5
:101390000d003200f78f560006003e00e2fc2f00e1
:1013a0000d014100e2c07f0000c3b30080cf5000b8
:1013b000050032008d06e90000c3b300e3fc2f00f6
:1013c0008d81410080f17f0078811600120e980017
:1013d0006c009000e3fc2f008f8141008d80410064
:1013e0008afc07001c0990005c089000800f5100e7
:1013f00006003d0002005000000e98000c10900006
:101400000040a100001698000f0037000000e00027
:101410000d003d000c10900074006000f00f5000b3
:1014200009003a007c089000fc0090000100500088
:101430008c08900001005000020050004240a900ba
:1014400001003400000e98004f0778004f06be00e0
:101450004f05be004f04be006f02b1000000060041
:10146000820178000400370090cf100005003200a0
:101470000000e8008301e9000300e000faff3a0001
:101480000000eb00000006000c02e20004003d003a
:101490000f42ab00020032000f02ab00feff320031
:1014a0000040da00feff3700889fbe00800478000d
:1014b000908d80000000e00003003a00100007005b
:1014c0000000e0000a003500908d80000900e00077
:1014d00002003a000004780006003700000478009b
:1014e00009004000060007000000e00001003d0088
:1014f0000084eb00080078004f04be0000000600e6
:10150000800078000000e00004003a00c01b2100c9
:10151000908d880001017800060037000081eb0003
:10152000c03b2100808f500002003e00918d88005a
:101530000001eb000200780000000600839f6800b5
:101540000100e00002003d0060001000e080180093
:101550000300e00002003d0060011100e08119007d
:10156000600107004f00e00002003b006000100037
:10157000e080180000000600889fbe008a9fbe0021
:10158000010578000100e0000400350008003c007f
:101590000000e0002000320005003700600010006d
:1015a000e080180002003b0001f02c001a00370018
:1015b0000004be006011b8006b0920000982cf0052
:1015c000020039000882cf000441b0006942520095
:1015d0000e00320008003b0082817100610164004e
:1015e0008904d1000884d3008b05e8000442e80098
:1015f000f9ff3a00050037000804440089844c00d4
:101600008b05e9000442e900fbff3a0045010700b1
:101610000af0a70001f0a0004f05be004f04be0075
:1016200000000600889fbe008a9fbe008c1f7800c5
:10163000620107006901330003866c006450e10019
:10164000240032006420e100270032006150e100f4
:10165000220032006120e100210032008b8542002f
:10166000eb07b1000134b800003ab80008044200aa
:1016700089844a00013ab8000030b80088804000f0
:1016800009014a0004003300000040008180480046
:10169000020149008b05e900c909dd0083017000e2
:1016a0000100320013002000c814de004814dd00e1
:1016b0004709de001200b200c808de00088470008e
:1016c0001801070001f0a1000cf0a70001f0a00034
:1016d0004b0137006120e1004d0132000801be00de
:1016e0000200be00f7ff37006150e100fcff3a0046
:1016f0004701370003f0a200889fbe008a9fbe000a
:101700008c1f78002d010700340133006450e10084
:101710004f0032006420e1005200320003826c006e
:1017200007003b000905d0000306d000820f5400db
:101730000c065d00020039000200320089017800c9
:10174000030678008582550004003d000003fd007b
:101750008103fd008502ea008b854200840f720040
:1017600002003b0060001000e08018006011b8002b
:101770000005eb007a28e1000a0039000600780035
:10178000c75ddd00f707b200878075002d003700c8
:10179000828171000a017800610560008180d100ba
:1017a0000080d3008502e900f9ff3b0006044000f9
:1017b0008784480002003b0060041400e0841c00a1
:1017c0000988a300070032008a81710082817100bc
:1017d000610164008904d1000884d3008b05e8000e
:1017e000170037000978a30013003a000b00e0004f
:1017f000130034008b05e9000804440089844c0080
:101800000a4474000978a3000d003a000b00e000c0
:10181000070034008b05e9000804440089844c006b
:1018200001003a000b0020000978a300f7ff320006
:101830000001eb0002003700828171000a0178008c
:10184000b80007000cf0a70001f0a000ec00370082
:101850006420e10002003a00838f6c00ec0033004a
:101860000801be000200be00e500370014002000a1
:10187000ea003700f4ff2f00e800370004002000e2
:10188000e6003700889fbe008a9fbe008c1f78004c
:10189000ca000700d100330003866c006450e100e9
:1018a0002e0032006420e100330032006150e1007c
:1018b0002f0032006120e1003100320085855500a3
:1018c000eb07b000090020000804200005003700e5
:1018d0000804440089844c000a00310006034300d8
:1018e00087834b000001530081815b00f8ff3300c8
:1018f0000203be000800a0000804440089844c00d4
:10190000f6ff3900c639dd008301730001003200a3
:10191000130020008904d1000884d3000998a30093
:10192000050032000800a7000300a0008904d100d0
:101930000884d3008b05e8008904d1000884d30013
:101940000001eb000281d2007600070001f0a10047
:101950000cf0a70001f0a000a90037006420e1000e
:10196000ab0032000801be000200be00f7ff3700e6
:101970006120e100a60032006000b800f3ff3700ec
:101980000000200001f82700f0ff37000001be0032
:10199000bd0007000470a70003f0a1006509b100b5
:1019a000160032000d0035006828e1000600350001
:1019b000f0ff2f00f1ff27000300e00013003b00c1
:1019c0000100280000000500000040008180480060
:1019d0008502e900fcff3a0008003700f88f42005a
:1019e00002003c008000eb00000005008100d100f7
:1019f0000080d3008502e800fcff3a000300e0000d
:101a000002003b0060001000e080180000000600ab
:101a1000889fbe008a9fbe008c1f78000004be0015
:101a2000990007000478a30026003a006120e10035
:101a30002500320009f8a30025003a006420e100e7
:101a400021003200f507b1000508a30002003200b2
:101a500000004000818048006044b800031020006e
:101a6000020020000000400081804800080544007a
:101a700089854c000a0541008b8549000a05500004
:101a80008b855800030033000a00be000204740076
:101a9000838474008301d1000281d300830f71001d
:101aa000f0ff3a008904d1000884d30060014900a6
:101ab00082017800c1adde00fb07b000190007000d
:101ac0004f0037000960a0000800be004c0037003e
:101ad00012022000828d8800f0ff2f00f1ff270006
:101ae000470037006022b800060220000000d00046
:101af0008180d2000482d2008582d2000000a00042
:101b00000202520083825a0003003b00020242009c
:101b100083824a000000a1000603e900f3ff3a00b7
:101b20000000060081002000618055000b003d0090
:101b30000b00200061fe2f000100e1001d003400b9
:101b400082817100610164008904d1000884d3009e
:101b50000000e800faff3a00710020006100640014
:101b600003007000020060000900320061044400bc
:101b7000e0844c000988a500050032008b05e800d0
:101b80006808e10002003a008904d1000884d3000b
:101b9000f20f20000258e10005003d00c75ddd00a6
:101ba000f907b2008980750008007800000006007f
:101bb0000bf827008b007800000005000004be0031
:101bc000310007000003be000405be000200be0095
:101bd0002d000700844f7500000006000200be00c3
:101be0006450e100050036006420e1000200360088
:101bf0000968a30001003a000800be000160a000cf
:101c00004f0678004f05be004f04be0000000600de
:101c1000f0ff2f00f1ff2700f9ff3700889fbe007b
:101c20008a9fbe00841f7800e4ff07004f00780001
:101c300011003300f0ff2f00838f6c0006003b0083
:101c4000040565000a00a7000800370009f0a60097
:101c50001000200008003700820f5400838f5c00c2
:101c6000030039001000200001003e0000002000a9
:101c700009f0a7000000ea004f05be004f04be00b7
:101c80000000e00000000600c70ade00f107b20015
:101c9000f50fb20008003200e1cf4200020032002e
:101ca0000170a00024000500810f700001003200c7
:101cb0000408050044000500810f700002003a008e
:101cc000140005008502e9000000400081c04800c2
:101cd000fcff3b000170a00024000500881f780075
:101ce000000478005001be004000be000000420029
:101cf00081804a0002014b0083814b00009cbe00a2
:101d00000294be000400e1000588e1000690e100b5
:101d10000798e10002003100680044001008e80064
:101d20004f04780000000600f4874700889fbe003b
:101d30008a9fbe008c9fbe008e1f78000205be00e9
:101d40000004be00d4b79f00e5b79f00f6b79f0020
:101d500087bf9f000000eb00c0b79f00b0b79f0097
:101d6000a0b79f0090b79f0080b79f000d04200090
:101d7000bfb097004fb09700000140000000e000a6
:101d800014003d004f08de0000007100c0b79f0046
:101d9000ad00070001003d0012002000b000070068
:101da00001003d0012002000b500070001003d00c9
:101db00012002000ba000700be000700feff3a0034
:101dc000c2000700c80007000f004000c3ff070063
:101dd000270037004f08de0000067100ccb79f00d7
:101de0009900070001003d00120020009c00070040
:101df00001003d0012002000a100070001003d008d
:101e000012002000a6000700aa000700feff3a000b
:101e1000ae0007000fb297009fb297002fb3970054
:101e2000bfb39700b60007000000520081805a003f
:101e300002015b0083815b0080b79f0091b79f0028
:101e4000a2b79f00b3b79f000007eb00ac000700ec
:101e50000020e10001a8e10002b0e10003b8e100c8
:101e6000010031001e0020000e005600c0b79f0088
:101e70004fb297000400e00007003500100020007a
:101e8000010020006011b80008047000898470000f
:101e90000a0571008b8571008d06e900b4ff3a00d8
:101ea0000400e00003003d008f0007000f00400029
:101eb0008aff07004fa897000000e00004003a00e6
:101ec0000fb497009fb497002fb59700bfb5970048
:101ed000970007004f0778004f06be004f05be0071
:101ee0004f04be004f01b10000000600881f7800bb
:101ef00018002000881f78008bff07008f87e900fb
:101f00004f04780000000600801feb0086ff0700ea
:101f10008f87e90000000600889fbe008a9fbe00f0
:101f20008c1f78007b00070005003d002f00070094
:101f300007003d003d0007000006eb0004003700ed
:101f40003f00070002003d00300007001c00200099
:101f500077000700e5ff07000203be000002be0095
:101f60000c00e00001003200280007000400be0061
:101f70000601be004f0678004f05be004f04be00ac
:101f800000000600889fbe008a9fbe008c1f78005c
:101f90006000070003003d001400070006003d003c
:101fa000040037002600070003003d006000b80071
:101fb0006011b8001d0007005d000700d2ff070098
:101fc0000203be000002be000c00e000010032006f
:101fd0000e0007000400be000601be004f06780098
:101fe0004f05be004f04be00000006006000b800b0
:101ff0006011b80008045000898458000a0559008f
:102000008b8559001c002000030037006000b800d9
:102010006011b80005003700e00f5200e08f5a0051
:10202000e00f5b00e08f5b00000006000402500040
:102030008582580006035900878359000000060076
:102040000006eb00f4ff37000180400090b79f00ce
:102050000001eb008fb097000100e00000000600d7
:102060000200700090b79f000180400080b79f0081
:102070000001eb00ffa897000100e000000006004f
:102080000200700080b79f0001804000f0af9f0009
:102090000001eb00efa897000100e000000006003f
:1020a00002007000f0af9f00018240002000070096
:1020b000f50305008301d1000281d3008180d300a4
:1020c0000080d3008502e9000000060000027200d3
:1020d000e4af9f000804440089844c000a054d00c9
:1020e0008b854d00000006003fb29700cfb29700ed
:1020f0005fb39700efb3970000fe2f0000000600cb
:102100003fb09700cfb097005fb19700efb1970055
:10211000000006000205be000004be00e00f5000f3
:10212000e08f5800e00f5900e08f590000000600d2
:102130000800be000a01be0000000600889fbe0025
:102140008a9fbe008c1f78000205be000004be00fe
:102150000006eb00e00f5000e08f5800e00f590040
:10216000e08f590007003d006000b8006011b80022
:1021700008045000898458000a0559008b855900cd
:102180001c002000e00f5200e08f5a00e00f5b00bf
:10219000e08f5b0002003d000f0007000c00a20072
:1021a0000800be000a01be00120007000203be00c4
:1021b0000002be000c00e000010032000600070033
:1021c0000400be000601be004f0678004f05be00a9
:1021d0004f04be00000006006000b8006011b800a7
:1021e0000402500085825800060359008783590075
:1021f00000000600889fbe008a9fbe008c9fbe0024
:102200000404b8000506b8008904460060854e0045
:102210000606b8000a054600e0854e000706b8002d
:102220008b054600040eb800890446000a854e005e
:10223000e0854d00050eb8000a0546008b854e006e
:10224000060eb8008b0546000416b8000a054600c5
:102250008b854e000516b8008b054600041eb8009d
:102260008b0546000800be000a01be004f06be00f6
:102270004f05be004f04be00000006000200fa0039
:102280004a130700530007000040eb00ca1707007d
:10229000830107003a0207008f1a07001e0007009b
:1022a000e10f500003003a005716070063160700bd
:1022b000feff370018000700e20f500003003a004d
:1022c0000817070014170700feff37001200070069
:1022d000e30f50000b003a00021707000000370020
:1022e0000d170700000f78009e00780080402d0039
:1022f0004b1b07001e00e000f9ff320078170700b3
:10230000f7ff370004000700e40f500001003a0017
:10231000a81b0700ffff37000000fa00e6c2bf005d
:102320000080fb004600de00614060000081fb0091
:10233000e7c2bf000080fb000000d10061406000e8
:102340000080fb000000400080007800e7c2bf0072
:10235000614060000080fb00008040000000400001
:1023600080007800e6c2bf000080fb004700de006e
:102370000080fb00008040000000400000004100a1
:102380000080fa00000006000200fa0001110700b8
:102390009011070007110700f1c0b300c0c3b300dc
:1023a0000c110700004f78000611070000c4b300ad
:1023b0009e4f100003003a0010c0b300a8f1b70010
:1023c000020037000040eb00a8f1b7000080fa00df
:1023d000000006000000fa00c4c2a900c4e2a9007f
:1023e000c522a900c582a900c542a900c5a2a900ad
:1023f000c5c2a900c5e2a900c0c2a900c0e2a900e7
:10240000c122a900c182a900c142a900c1a2a9009c
:10241000c1c2a900c1e2a900d022a900cc22a90012
:10242000d042a900cc42a900e2e2a900e302a9003f
:10243000e802a900e822a900dee2a900df02a90063
:10244000e402a900e422a900e202a900de02a90038
:10245000d602a900d622a900d642a900d662a900b8
:10246000d682a900d6a2a900d6c2a900d6e2a900a8
:10247000d202a900d222a900d242a900d262a900a8
:10248000d282a900d2a2a900d2c2a900d2e2a90098
:10249000d1a2a900cda2a900e842a900e862a90042
:1024a000e442a900e462a900de22a800dec2a8007e
:1024b000e4c2a800e4e2a800e502a800e522a80022
:1024c000d302a800d322a800d342a800d362a80058
:1024d000d382a800d3a2a800d3c2a800d3e2a80048
:1024e000a9ff0700a8d1bf000004e00001003200ee
:1024f000831307000080fa00000006000000fa00c5
:10250000a8d1bf000080fb000080fa000000060098
:102510000400fa00308b80000000e0001f00320051
:10252000d18a800080da2f00808f50001b00350098
:10253000d18a800080252000808f500017003c0049
:10254000d602a900d622a900d642a900d662a900c7
:102550000000eb00308b8800d08a800000017800fa
:10256000120798001e0190000200e00003003d00e9
:102570001e0190000201ea0012079800007122007b
:102580001e019000110009000200d800ef00500069
:1025900080282100e70107004d003700d08a800025
:1025a0000000e0000c003400108b80000000e80008
:1025b000108b8800f08a80000000e900f08a880013
:1025c000f08a80000000e0000e003d003000200096
:1025d000f08a88000b003700108b80000000e900b3
:1025e000108b8800f08a80000000e800f08a8800e4
:1025f000f08a8000e30f5000020034000000eb007e
:10260000f08a8800f08a8000000f78001e017800b0
:10261000e10f5100130032001e007800e10f50005e
:1026200004003c001e0178000200e00008003200b7
:102630001a0037001e007800e20f50000e00320032
:102640001e017800e30f5100100032001300370024
:10265000d602a900d622a800d642a900d662a800b8
:102660000e003700d602a900d622a800d642a80044
:10267000d662a90009003700d602a800d622a90018
:10268000d642a800d662a90004003700d602a800ee
:10269000d622a900d642a900d662a800d18a80001d
:1026a00080da2f00808f500009003500d18a800029
:1026b00080252000808f500005003c001000200085
:1026c000308b8800f100200080282100990107004c
:1026d0000080fa00000006000400fa00408b800031
:1026e0000000e0001f003200e18a800080da2f0045
:1026f000808f50001b003500e18a8000802520007b
:10270000808f500017003c00d682a900d6a2a900f5
:10271000d6c2a900d6e2a9000000eb00408b8800d9
:10272000e08a800000017800120798001e019000e6
:102730000200e00003003d001e0190000201ea00db
:1027400012079800007122001e019000110009007c
:102750000200d800ef005000c036210075010700cc
:102760004d003700e08a80000000e0000c003d00d2
:10277000208b80000000e900208b8800008b800007
:102780000000e900008b8800008b80000000e00062
:102790000e003d0030002000008b88000b00370049
:1027a000208b80000000e800208b8800008b8000d8
:1027b0000000e800008b8800008b8000e30f5000d1
:1027c000020034000000eb00008b8800008b8000ca
:1027d000000f78001e017800e10f51001300320055
:1027e0001e007800e10f500004003c001e0178003c
:1027f0000200e000080032001a0037001e007800d6
:10280000e20f50000e0032001e017800e30f51006d
:102810001000320013003700d682a900d6a2a8000b
:10282000d6c2a900d6e2a8000e003700d682a900c1
:10283000d6a2a800d6c2a800d6e2a9000900370097
:10284000d682a800d6a2a900d6c2a800d6e2a900c6
:1028500004003700d682a800d6a2a900d6c2a900db
:10286000d6e2a800e18a800080da2f00808f500035
:1028700009003500e18a800080252000808f50000b
:1028800005003c0010002000408b8800f100200073
:10289000c0362100270107000080fa000000060072
:1028a0000000fa008000eb0080282100c90007002a
:1028b0008000eb00c0362100c60007000080fa004f
:1028c000000006000200fa00000f7800d602a900fe
:1028d000d622a900d642a900d662a9001e00e000b7
:1028e00006003a000000eb00d08a88008000eb0070
:1028f000802821000f0107002d00370080c12f0024
:102900009e0f10000a003d0080c12f00d08a880071
:10291000d28a8000008f2d00110009000200d8002b
:102920008000780080282100020107002000370085
:10293000803e20009e0f10000a003400803e2000e0
:10294000d08a8800d28a800000712200110009001c
:102950000200d8008000780080282100f5000700e0
:10296000130037001e007800d08a88001e00e000a7
:1029700008003d00008f2d001e01780011000900a5
:102980000200d8008000780080282100e9000700bc
:1029900007003700007122001e01780011000900b5
:1029a0000200d8008000780080282100e1000700a4
:1029b0000080fa00000006000200fa00000f780014
:1029c000d682a900d6a2a900d6c2a900d6e2a90043
:1029d0001e00e00006003a000000eb00e08a8800dc
:1029e0008000eb00c0362100d20007002d00370028
:1029f00080c12f009e0f10000a003d0080c12f00f3
:102a0000e08a8800e28a8000008f2d001100090012
:102a10000200d80080007800c0362100c500070001
:102a200020003700803e20009e0f10000a00340076
:102a3000803e2000e08a8800e28a80000071220047
:102a4000110009000200d80080007800c036210083
:102a5000b8000700130037001e007800e08a8800e5
:102a60001e00e00008003d00008f2d001e017800d0
:102a7000110009000200d80080007800c036210053
:102a8000ac00070007003700007122001e0178002b
:102a9000110009000200d80080007800c036210033
:102aa000a40007000080fa00000006000800fa00f9
:102ab000000f7800110798001e007800300798007a
:102ac0003e0190000200e00003003d003e00900047
:102ad0000000ea00300798001e01900022079800cd
:102ae0002e0090000000e00003003d002e01900049
:102af0000201ea00220798003e0090002e0190009b
:102b000082004000803e2000808f500006003c0084
:102b10001e0090001e0010006aff07001e009000bb
:102b20001e004000a4ff07000080fa00000006001d
:102b30000000fa00108b80000080fa000000060000
:102b40000200fa00000f78001e007800108b880049
:102b50000080fa00000006000000fa00208b8000d0
:102b60000080fa00000006000200fa00000f780062
:102b70001e007800208b88000080fa00000006000c
:102b80000000fa000000eb0080088800011120001e
:102b900091407800f0ccb30000c0600010e1b700b5
:102ba0000000eb0030088800205c200060088800ee
:102bb00084c0a9008cc0a80011e1a8000080fa0020
:102bc000000006000000fa0011e1a9000080fa00f0
:102bd000000006000800fa0010079800210798007e
:102be000508d8000000f78000b0037001e00780029
:102bf000b00090001e009000808f500003003a004b
:102c000011002000310798001f0037001e007800d7
:102c1000c0009000010f78001e00e000f3ff3a00b2
:102c2000a0002000bef50700000f78001e00e000a5
:102c300002003a00100020000af60700ae009000e3
:102c40001e007800010878009e0078000000eb006c
:102c5000900098009e00780010c0b300c04098001b
:102c60001e0078009e00900031009800518d800079
:102c70001e007800410098001e007800508d8800ea
:102c800011002000310798003e0090000080fa00fb
:102c9000000006000800fa00200798000000eb0082
:102ca00010079800508d8000000f78001a00370040
:102cb0001e007800b00090002e009000808f500021
:102cc00010003a001e0090000000e00005003200f5
:102cd0001e007800c00090001e0090004100980087
:102ce000030037001e00780040009000508d8800df
:102cf0001e007800edf50700110020003107980054
:102d0000090037001e007800100798001e007800a8
:102d1000c0009000010f78001e00e000e4ff3a00c0
:102d200020002000300798003e0090000080fa004c
:102d3000000006000800fa0010079800210798001c
:102d4000508d8000000f78000e0037001e007800c4
:102d5000b00090001e009000808f500006003a00e6
:102d6000ae0090001e0078000108780011002000dd
:102d700031079800070037001e007800c00090005f
:102d8000010f78001e00e000f0ff3a002000200054
:102d9000300798003e0090000080fa000000060016
:102da0000600fa0010079800508d8000000f780090
:102db0000e0037001e007800b00090001e0090004a
:102dc000808f500006003a009e0078000000eb0063
:102dd000900098001100200021079800070037009c
:102de0001e007800c0009000010f78001e00e00077
:102df000f0ff3a0020002000200798002e009000ed
:102e00000080fa00000006000600fa001007980093
:102e1000508d8000000f78000e0037001e007800f3
:102e2000b00090001e009000808f500006003a0015
:102e30009e0078000040eb00c04098001100200088
:102e400021079800070037001e007800c00090009e
:102e5000010f78001e00e000f0ff3a002000200083
:102e6000200798002e0090000080fa000000060065
:102e70000600fa0010079800508d8000000f7800bf
:102e80000e0037001e007800b00090001e00900079
:102e9000808f500006003a009e00780010c0b300fa
:102ea000c04098001100200021079800070037005b
:102eb0001e007800c0009000010f78001e00e000a6
:102ec000f0ff3a0020002000200798002e0090001c
:102ed0000080fa00000006003600f800809fbe0067
:102ee000829fbe00849fbe00869fbe003400f80013
:102ef00000c0b300a00188000200fa00508d8000dd
:102f0000000f780084c0a9001e0037001e00780062
:102f100040409000e14f500017003a001e0078003a
:102f2000100078000000e000130032001e0078005e
:102f3000100090008000e8001e007800110098004a
:102f40001e00780010009000800078001e007800bd
:102f5000100078000000e900808f50000600360065
:102f60001e00780030009000000001009e007800f4
:102f70000000eb00900098001e007800c000900058
:102f8000010f78001e00e000e0ff3a000080fa0028
:102f90003400f9004f03be004f02be004f01be00d7
:102fa0004f00be003600f900004006002400fa0081
:102fb000000f9800110f9800220f9800330f98000f
:102fc000440f9800550f9800660f98000e08900067
:102fd0004004b000000f98001e08900064004000fc
:102fe000100f98005e0890000000e000030032001f
:102ff0004e0890000000e00003003a00100020009e
:10300000700f98001f0137008e0890002e08900066
:1030100080804000402c2000808f5000030036004c
:1030200021002000710f9800160137009e089000c3
:103030003e08900080804000401e2000808f50009d
:103040000300360030002000700f98000d0137009b
:103050002e0890004e099000110009000280d8004f
:103060008000fd000000e00003003200410020006d
:10307000710f9800030137003e0890005e09900030
:10308000110009000280d8008000fd000000e0006f
:103090000300320050002000700f9800f900370044
:1030a0005e089000630060000000e00039003a0014
:1030b0004e089000630060000000e00011003a003c
:1030c00000082000000f7800400020001007980042
:1030d0005e0890004200de00300798004e08900025
:1030e0004200de00200798001e0890006400500097
:1030f000100f98000e08900064005000000f980018
:103100005a0037004e089000610060000000e000a7
:1031100011003a0000042000000f78002000200079
:10312000100798005e0890000000d100300798005a
:103130004e0890000000d100200798001e08900063
:103140000080e900100f98000e0890000080e90050
:10315000000f98004500370000022000000f7800a3
:103160001000200010079800de089000310798003a
:103170004e089000200798001e0890000000e9000b
:10318000100f98000e0890000000e900000f980052
:10319000360037005e089000610060000000e0002b
:1031a00024003a004e089000610060000000e0003a
:1031b00011003a0000042000000f780020002000d9
:1031c000100798005e0890000000d10030079800ba
:1031d0004e0890000000d100200798001e089000c3
:1031e0000080e900100f98000e0890000080e900b0
:1031f000000f98001d00370000022000000f78002b
:103200001000200010079800de0890003107980099
:103210004e089000200798001e0890000000e9006a
:10322000100f98000e0890000000e900000f9800b1
:103230000e00370010002000100798000002200048
:10324000000f7800ce089000210798005e089000db
:10325000300798001e0890000000e900100f980049
:103260000e0890000000e900000f98002e0090006a
:103270000000e900600798003e0090000000e900af
:10328000700798002e0890004e0990001100090068
:103290000280d800500798003e0890005e09900018
:1032a000110009000280d80040079800502c20002f
:1032b0001e019000110009000200d8008000780073
:1032c0001e0190000e089000811f78001100090077
:1032d0000280d80001017800cf0078003009070093
:1032e0000000e0000300320061002000710f980030
:1032f00064003700501e20001e01900011000900dc
:103300000200d800800078001e0190001e08900086
:10331000811f7800110009000280d80001017800a7
:10332000cf007800490907000000e00003003200e8
:1033300070002000700f980052003700411e2000de
:103340001e089000470907000000e000030032005b
:1033500081002000710f98004a0037006e0890002d
:103360000000e00018003a001e00780000179800e6
:10337000000420008e109000808f50000c0032005e
:10338000000820008e109000808f50000b0032004b
:10339000000220008e109000808f5000010032004b
:1033a0002000370040c0b300470807001d00370069
:1033b00020c0b300440807001a0037000040eb00ab
:1033c00041080700170037001e007800101798000a
:1033d000000420009e109000808f50000c003200ee
:1033e000000820009e109000808f50000b003200db
:1033f000000220009e109000808f500001003200db
:103400000800370050c0b3002f0807000500370040
:1034100040c0b3002c0807000200370020c0b300f2
:10342000290807001e007800804078006e08900090
:10343000af0807000000e000030032009000200009
:10344000700f98000f0037006e0890001000070002
:10345000000178007e029000ee019000de009000f6
:103460004e009000e90907000000e0000300320070
:10347000a1002000710f9800020037000000eb004f
:10348000700f98007e0890000080fa00000006008f
:103490000600fa00000f78001e0078002007980050
:1034a0002e009000e10f50000a0032002e00900024
:1034b000e20f50000a0032002e0090000000e000f1
:1034c00001003200090037001000200010079800aa
:1034d0000800370020002000100798000500370082
:1034e0002000200010079800020037001000200084
:1034f000100798001e0090000080fa0000000600ef
:103500001200fa00000f78001107980022079800b7
:1035100033079800440798005507980066079800fd
:10352000608d8000000f9800000326008e08900038
:10353000808f500013003200000328008e08900096
:10354000808f500019003200000323008e08900085
:10355000808f5000010032001e0037006e03900083
:10356000de0290004e029000be0190002e019000fd
:103570009e0090001e007800f70907007007980071
:10358000160037006e039000de0290004e0290009d
:10359000be0190002e0190009e0090001e00780059
:1035a000270b0700700798000c0037006e0390008f
:1035b000de0290004e029000be0190002e019000ad
:1035c0009e0090001e00780078fe070070079800ab
:1035d00002003700b0002000700798007e009000c5
:1035e0000080fa00000006000600fa00000f7800d4
:1035f00011079800608d80002007980000032600c6
:10360000ae009000808f50000d00320000032800b3
:10361000ae009000808f50000d00320000032300a8
:10362000ae009000808f5000010032000b00370088
:103630009e0090001e0078003e0207000700370041
:103640009e0090001e007800cf06070003003700a0
:103650009e0090001e007800c00807000080fa005d
:10366000000006000000fa00618d800000032300c6
:10367000808f500001003200010037001601070062
:103680000080fa00000006000400fa0051fb070069
:10369000400c0700d1a2a9004006200010079800a6
:1036a00004003700000000001e0090000000e90048
:1036b000100798001e0090000000e000f9ff3a009b
:1036c000d1a2a8004006200010079800040037008f
:1036d000000000001e0090000000e90010079800a4
:1036e0001e0090000000e000f9ff3a0081e0a90010
:1036f000f1048000f0002f00808060000066200050
:1037000000804000f00488008040eb00c0cdb30092
:10371000300c07001047980011c0b300c0cdb300b3
:103720002c0c0700004f78001e4090000080fb002a
:103730000000400000004000000040000000400089
:103740000000400000004000000040000000400079
:10375000800078001e80fb0000807000608d880073
:10376000618d800000032300808f500004003a0028
:103770008000eb000000eb009bff0700100037000b
:10378000618d800000032600808f500004003a0005
:10379000110020001000200093ff070008003700f0
:1037a000618d800000032800808f500004003a00e3
:1037b0008000eb000000eb008bff070038070700dc
:1037c000a8ff0700608d80000080fa00000006005e
:1037d0000800fa00200798003107980032c0bf00a7
:1037e0000080fb00000f78002e00900032e0b70050
:1037f0003e0090001000ba00100798001e007800ec
:1038000032e0b7001e0090000080fa0000000600c1
:103810000600fa00608d8000200798000003260053
:10382000ae009000808f500021003200000328007d
:10383000ae009000808f5000200032000003230073
:10384000ae009000808f5000010032001e00370053
:10385000e1ff2f00f0072000ddff0700630060009c
:10386000100798001e009000e20f50000a0032007e
:103870009e009000e38f50000a0032001e0090006e
:10388000e10f500001003200090037001100200054
:10389000010f78000e00370020002000000f780094
:1038a0000b0037008000eb00010f780008003700a4
:1038b00010002000000f78000500370011002000e4
:1038c000010f7800020037000080eb00000f780045
:1038d0001e0078000080fa00000006000600fa00d2
:1038e000000f780011079800608d80002007980075
:1038f00000032600ae009000808f50000d003200c3
:1039000000032800ae009000808f50000d003200b0
:1039100000032300ae009000808f500001003200b1
:103920000b0037009e0090001e0078008b030700fc
:10393000070037009e0090001e0078002f06070049
:10394000030037009e0090001e007800200807004a
:103950000080fa00000006000600fa00004f780020
:103960001147980022479800608d8000200798003a
:1039700000032600ae009000808f5000100032003f
:1039800000032800ae009000808f5000110032002c
:1039900000032300ae009000808f50000100320031
:1039a000100037002e4290009e4190001e41900072
:1039b0009e40780080c2b300c401070009003700b0
:1039c0002e4190009e4090001e4078002f06070078
:1039d000040037002e4190009e4090001e40780069
:1039e0001f0807000080fa00000006000600fa0029
:1039f000008fbe00608d8000200798000003260025
:103a0000ae009000808f50000c00320000032800b0
:103a1000ae009000808f50000b00320000032300a6
:103a2000ae009000808f5000010032000800370087
:103a30001e00be00bc020700050037001e00be00cd
:103a400024060700020037001e00be00160807000b
:103a50000080fa00000006000000fa00608d80007f
:103a60000080fa000000060000a0fe0086a0a90069
:103a70001421ef0000000000c15d800002bc2000a6
:103a800013002000321ce100050032000800350060
:103a9000000000000000000000000000f9ff3700f7
:103aa000a01680004800de0080587800f5ff37003f
:103ab000c15d8800bc2bec00e05d8000be0be30024
:103ac00003003a0010002000d05d88001fe1a9002b
:103ad0000080fe00004006000200fa00350b0700df
:103ae0000000eb00000f78000d0037009e00e8009a
:103af00020f920000080400010407800004178004c
:103b00009e00780020f920000080400010407800de
:103b100080407800c0cdb300520b07001e8fe80034
:103b20009e007800700d2000808f5000efff36005f
:103b3000240b07000080fa00000006000200fa00d3
:103b4000881f78001b0b07000000eb00000f7800b7
:103b50000d0037001e04e8009e00780020f92000c8
:103b6000008040001040780080407800c0cdb30055
:103b7000180b07008040780020f920000000440066
:103b8000014878001e8fe8009e007800700d20002c
:103b9000808f5000efff36000a0b07004f047800bb
:103ba0000080fa00000006000600fa00000f78000e
:103bb0001e007800200798002e009000e10f5000b2
:103bc0000a0032002e009000e20f50000a0032007e
:103bd0002e0090000000e0000100320009003700d4
:103be000c0c0b300d5efb7000900370080c0b300f4
:103bf000d5efb7000600370020c0b300d5efb700ff
:103c0000030037000080eb00100798000200370027
:103c10000000eb00100798001e0090000080fa00e2
:103c2000000006000400fa00000f780040042000a5
:103c30009e0f100006003200100120009e0f1000a1
:103c400003003200300320009e0f100005003a00f0
:103c50001e007800c5efb7000000eb0010079800c9
:103c6000020037000080eb00100798001e00900053
:103c70000080fa00000006000400fa00000f78003f
:103c80001e00e00015003200000220009e0f100010
:103c900012003200000320009e0f10000f003200bf
:103ca000000420009e0f10000c00320000052000d0
:103cb0009e0f100009003200000620009e0f100029
:103cc00006003200000620009e0f100003003200a4
:103cd000000120009e0f100005003a001e00780031
:103ce000bfefb7000000eb0010079800020037009c
:103cf0000080eb00100798001e0090000080fa0082
:103d0000000006000a00fa0020079800310798001a
:103d1000ae0090003e009000808f500003003900fc
:103d20000080eb00400798001e003700be009000a6
:103d300030382000808f5000030036000080eb00f8
:103d400040079800170037002e0090000000e9009f
:103d5000200798002e009000204798002e00900029
:103d60004800de00304798003e009000004f780089
:103d70003e0090004800de00104798003e40900052
:103d80009befb7002e4090009defb7001e409000c3
:103d9000a3efb7001e407800a5efb7000000eb00ce
:103da000400798004e0090000080fa0000000600d6
:103db0000a00fa002007980031079800ae00900032
:103dc0003e009000808f5000030039000080eb001f
:103dd000400798001b003700be009000301f2000f5
:103de000808f5000030036000080eb0040079800f1
:103df000140037002e009000204798002e009000fd
:103e00004800de00304798003e009000004f7800e8
:103e10003e0090004800de00104798003e409000b1
:103e20009fefb7002e409000a1efb7001e4090001a
:103e3000a7efb7001e407800a9efb7000000eb0025
:103e4000400798004e0090000080fa000000060035
:103e50000e00fa00300798004107980052079800ba
:103e6000be0090004e009000808f5000030039008b
:103e70000080eb00600798002b003700ce00900018
:103e8000301f2000808f5000030036000080eb00c0
:103e90006007980024003700de00900030382000d2
:103ea000808f5000030036000080eb006007980010
:103eb0001d0037003e009000404798003e009000f3
:103ec0004800de00504798004e00900020479800c0
:103ed0004e0090004800de00304798005e009000e1
:103ee000104798005e0090004800de00004f780008
:103ef0005e40900023f0b7004e40900025f0b700e0
:103f00003e40900027f0b7002e40900029f0b70007
:103f10001e4078002bf0b7001e4090002df0b70037
:103f20000000eb00600798006e0090000080fa002f
:103f3000000006000600fa0010079800210798000c
:103f40001e0090000000e000060032002e009000ed
:103f50000000e00003003200a0ccb300004f780066
:103f60000e0037001e0090000000e0000300320049
:103f7000a0c4b300004f7800080037002e00900066
:103f80000000e00003003200a0c8b300004f78003a
:103f900002003700a0c0b300004f78001e40780038
:103fa000c1efb7000080fa00000006000600fa002a
:103fb00020479800314798000000eb00000f780080
:103fc000100037009e00780020f92000008040009b
:103fd000904078002e40900080cf500008003a00ba
:103fe0001e00e80021f9200001004000be409000c2
:103ff000014878000000eb00200798000700370018
:104000001e8fe8009e007800700d2000808f500009
:10401000ecff36008080eb00210798002e00900016
:104020000080fa00000006000800fa00204798000f
:10403000210798000000eb00000f78001100370006
:104040009e00780020f92000008040009040780019
:104050002e40900080cf500009003a009e00e800fa
:1040600020f9200000804000904078002e00900051
:10407000014878000000eb00300798000700370087
:104080001e8fe8009e007800700d2000808f500089
:10409000ebff36000080eb00300798003e009000f8
:1040a0000080fa00000006000200fa00004f7800cd
:1040b000114798001e409000abefb7001e407800fb
:1040c000adefb7000080fa00000006000800fa001b
:1040d000004f780011479800224798003347980016
:1040e00044479800f0c4b3009e4f10000300360010
:1040f0000080eb00300798000c0037001e4078006d
:10410000afefb7001e409000b1efb7002e40900017
:10411000b3efb7004e409000b5efb7003e409000bf
:10412000b7efb7000000eb00300798003e009000aa
:104130000080fa00000006000400fa00008fbe00b4
:104140001e00be004a09dd004600de0000007100ce
:10415000c608de00bbefb7001e00be004209dd004e
:104160004e00de0000007100ce08de00b9efb7009f
:104170000040eb00bdefb7000080fa000000060031
:104180000200fa00004f78001e407800c7efb70029
:104190000080fa00000006000200fa00000f78001c
:1041a0001e00e00005003200d7cfbf0001c8b300f9
:1041b00001407000d7efb70003003700d7cfbf0032
:1041c0000074a100d7efb7000080fa0000000600dd
:1041d0000400fa00004f7800114798002247980029
:1041e0001e407800dbefb7001e409000ddefb70007
:1041f0002e409000dfefb7000080fa0000000600bc
:104200000200fa00004f7800114798001e40780025
:104210007f4060000045b000e1efb7001e40900015
:10422000e3efb7000080fa00000006000600fa0085
:1042300010079800414798004e4090000000fb0096
:1042400063006000000040000000400000004000eb
:1042500000004000000040008040780000c8b3002b
:1042600000c0400069f0b7000000eb00000f7800cc
:104270000d0037001e0078000000400032052000cd
:10428000000141001e007800800078001e009000b0
:10429000008040009040780020f92000000041009c
:1042a000014878001e0fe8001e007800e10f500062
:1042b000f0ff36000080fa00000006000000fa005f
:1042c0003c09070069d0bf000041780068d0bf00fa
:1042d00080407800c0cdb3006209070039090700ab
:1042e000a1ff200091407800e4cfbf00020007004a
:1042f0000080fa00000006000600fa00404798001f
:10430000514798000000eb00000f780029090700d2
:104310000000eb00100798001f0037009e0090007f
:1043200020f9200000804000904078004e4090002e
:1043300080cf5000150039009e00900020f9200029
:1043400000804000904078005e40900080cf500098
:104350000e003e001e0090008000e80020f92000c2
:104360000080400010407800004178009e009000de
:1043700020f9200000804000104078008040780044
:10438000c0cdb300370907001e0fe8001e009000e3
:104390000080e800100798009e009000700d20003b
:1043a000808f5000ddff3600060907001e007800f0
:1043b0000080fa00000006000400fa0010079800d0
:1043c0000000eb00000f78000d0037001e007800a1
:1043d00000004000b2062000000141001e007800ed
:1043e000800078001e00900000804000904078001f
:1043f00020f9200000004100014878001e0fe8006d
:104400001e007800e10f5000f0ff36000080fa0037
:10441000000006000200fa00004f780011479800e3
:104420001e4078000ff0b7001e40900011f0b7005a
:104430000080fa00000006000200fa00004f780039
:10444000114798001e40780013f0b7001e409000fe
:1044500015f0b7000080fa00000006000200fa0024
:10446000004f7800114798001e40780017f0b70001
:104470001e40900019f0b7000080fa00000006000e
:104480000200fa00004f78001e80fb000000400090
:104490000000400000004000000040006f4040006d
:1044a0002ff0b7000080fa00000006000200fa00ba
:1044b000004f7800114798001e80fb00000040006c
:1044c00000004000000040000000400080407800f4
:1044d0001e4090006f40600000c0400031f0b70007
:1044e0000080fa00000006000200fa00004f780089
:1044f000114798001e4090000080fb000000400023
:1045000000004000000040000000400080407800b3
:104510001e4078006f40600000c0400033f0b700dc
:104520000080fa00000006000400fa00008fbe00c0
:104530001e00be004088de00cf80de0035f0b700f0
:104540001e00be004809dd004800de0000007100ca
:10455000c888de0037f0b7001e00780039f0b700d9
:104560000080fa00000006000200fa00004f780008
:104570001e4078003bf0b7000080fa000000060003
:104580000400fa00000f7800110798001e00780060
:104590004800de0041f0b7001e00780043f0b7008d
:1045a0001e0090004800de0045f0b7001e0090009d
:1045b00047f0b7000080fa00000006000600fa008d
:1045c000004f780011479800224798003347980021
:1045d00044479800554798002e40900049f0b70096
:1045e0003e4090004bf0b7001e4078004df0b70001
:1045f0001e4090004ff0b7004e40900051f0b700c1
:104600005e40900053f0b7000080fa000000060002
:104610000a00fa00000f780011079800220798009e
:1046200033079800200d20001e0f40001e00900050
:10463000200db000100798002e0090006700400089
:10464000200798003e009000670040003007980067
:104650009e00900020352000808f5000030036001f
:104660000080eb004007980039003700be00900042
:10467000701e2000808f5000030036000080eb0089
:1046800040079800320037001e0090009e0f100077
:1046900004003100ae0090003e009000808f50007a
:1046a000030039000080eb00400798002800370025
:1046b000501a20009e0f10000c0036009e00900043
:1046c00090272000808f500008003e00ae00900030
:1046d000700a2000808f500004003600be00900059
:1046e00060142000808f5000030036000080eb0033
:1046f00040079800160037001e0078004800de00d2
:1047000055f0b7001e00780057f0b7001e0090006b
:104710004800de0059f0b7001e0090005bf0b700c3
:104720002e0090004800de005df0b7002e009000e3
:104730005ff0b7003e0090004800de0061f0b70077
:104740003e00900063f0b7000000eb0040079800c7
:104750004e0090000080fa00000006000600fa00fb
:1047600010079800210798001e0090000000e0004c
:10477000060032002e0090000000e000030032002e
:10478000c0c3b300004f78000e0037001e00900039
:104790000000e00003003200c0c2b300004f780008
:1047a000080037002e0090000000e00003003200f7
:1047b000c0c1b300004f780002003700c0c0b30092
:1047c000004f78001e40780065f0b7000080fa00c6
:1047d000000006000200fa00000f78001e00e00052
:1047e00005003200c9cfbf00f1c7b300014060002f
:1047f000c9efb70004003700c9cfbf0001c8b3003c
:1048000001407000c9efb7000080fa000000060008
:104810000400fa00000f7800110798001e00e00065
:1048200005003200c9cfbf00f1cbb30001406000ea
:10483000c9efb70004003700c9cfbf0001c4b300ff
:1048400001407000c9efb7001e0090000000e000ba
:1048500005003200c9cfbf00f1cdb30001406000b8
:10486000c9efb70004003700c9cfbf0001c2b300d1
:1048700001407000c9efb7000080fa000000060098
:104880000a00fa00bfcfbf000080fb00400798007d
:1048900000032000ce009000808f500031003200d5
:1048a00000032000ce009000808f50000b003c00e1
:1048b0004e009000f00f5000220032000002200055
:1048c000ce009000808f5000220032004e009000f9
:1048d0000000e0001700320036003700000520001d
:1048e000ce009000808f500026003200000520008e
:1048f000ce009000808f500005003c000004200096
:10490000ce009000808f50001a003200290037003e
:1049100000062000ce009000808f50001d00320065
:1049200000072000ce009000808f50001d00320054
:10493000200037000000280001072000008fbe0083
:10494000200037000000200061092000008fbe0019
:104950001c0037000000240081032000008fbe00ef
:104960001800370000002200c1012000008fbe00a7
:104970001400370000002100e1002000008fbe007d
:10498000100037000080200071002000008fbe0062
:104990000c0037000040280031002000008fbe00ce
:1049a0000800370000202c0011002000008fbe00fe
:1049b000040037006000b800200798003107980015
:1049c0000a003700d5cfbf00ec4f500004003a007a
:1049d0001e00be000000400081804800008fbe0025
:1049e0001e00be0020079800310798002e0090009e
:1049f000be0090000080fa00000006001000fa00df
:104a00002007980031079800420798005307980044
:104a1000640798005e0090000000e000030035008d
:104a20005e009000e30f5000030034000080eb00b4
:104a3000700798004d0037006e0090000000e00005
:104a4000030035006e009000e30f500003003400b7
:104a50000080eb00700798004400370088ff0700d3
:104a60000001be00606a20000013b8006010b900a9
:104a70000702780000024200606a20000098b90036
:104a800000024200840378002e0090006101b9000a
:104a90000600be00a9f207001007980078ff070083
:104aa0000001be00606a20000013b8006010b90069
:104ab0000702780000024200606a20000098b900f6
:104ac00000024200840378003e0090006101b900ba
:104ad0000600be0099f20700000f78001e0090004b
:104ae0004800de00cdefb7001e009000cfefb7000a
:104af0001e0078004800de00d1efb7001e007800ed
:104b0000d3efb7004e0090000000e0000400320038
:104b1000c9cfbf000044a000c9efb70004003700b0
:104b2000c9cfbf00f1ceb30001406000c9efb700ac
:104b30006e009000e34060005e0090006300600043
:104b4000000040000000400000c14000c9cfbf008d
:104b50008040780000cfb30000c0600000404100fa
:104b6000c9efb7000000eb00700798007e009000ce
:104b70000080fa00000006000200fa00004f7800f2
:104b80000c0707001e41780031c0b300c0cdb30050
:104b9000340707000b0707000080fa00000006003a
:104ba0000400fa00004f780011479800224798004f
:104bb0001e407800f0ff0700fe0607002e4190001f
:104bc0009e409000c0cdb30026070700fd060700f9
:104bd0000080fa00000006000400fa002047980058
:104be000314798002e409000e3ff0700f1060700d0
:104bf000be409000c0cdb300f6060700004f78001d
:104c0000f00607001e80fb000080fa00000006008e
:104c10000200fa00004f78001e41780011c9b3006d
:104c20000040eb00deff07000080fa0000000600f5
:104c30000200fa00004f78001e41780081c6b300e0
:104c400010c0b300d6ff07000080fa000000060085
:104c50000600fa00004f78001e80fb002007980035
:104c600000042000ae009000808f50001a00320037
:104c700000082000ae009000808f50002700320016
:104c800000022000ae009000808f50000100320032
:104c90003300370010c0b300e5ff07001e41780065
:104ca00001c8b30010c0b300bdff07001e4178006b
:104cb00011c8b30010c0b300b9ff070012c0b300a1
:104cc00021c8b30010c0b300b5ff07000000eb001f
:104cd000100798002400370030c0b300d4ff07004d
:104ce0001e41780001c8b30010c0b300acff07003c
:104cf0001e41780011c8b30010c0b300a8ff070020
:104d000012c0b30021c8b30010c0b300a4ff070055
:104d10008000eb00110798001300370070c0b3004b
:104d2000c3ff07001e41780001c8b30010c0b300e4
:104d30009bff07001e41780011c8b30010c0b300ec
:104d400097ff070012c0b30021c8b30010c0b30022
:104d500093ff07000000eb001007980002003700e7
:104d60008080eb00110798001e0090000080fa0080
:104d7000000006000600fa00004f78001e80fb00cd
:104d80002007980000042000ae009000808f5000a3
:104d90001a00320000082000ae009000808f500002
:104da0002700320000022000ae009000808f5000eb
:104db00001003200330037000040eb009cff070089
:104dc0001e41780001c8b30010c0b30074ff070093
:104dd0001e41780011c8b30010c0b30070ff070077
:104de00012c0b30021c8b30010c0b3006cff0700ad
:104df0000000eb00100798002400370010c0b3003b
:104e00008bff07001e41780001c8b30010c0b3003b
:104e100063ff07001e41780011c8b30010c0b30043
:104e20005fff070012c0b30021c8b30010c0b30079
:104e30005bff07008000eb001107980013003700ac
:104e400030c0b3007aff07001e41780001c8b300ec
:104e500010c0b30052ff07001e41780011c8b30014
:104e600010c0b3004eff070012c0b30021c8b3004a
:104e700010c0b3004aff07000000eb0010079800c5
:104e8000020037008080eb00110798001e009000a0
:104e90000080fa00000006000600fa00004f7800cb
:104ea000114798001e80fb00200798002e009000fc
:104eb000e10f50000f0032002e009000e20f500072
:104ec000140032002e0090000000e00001003200cb
:104ed00018003700d2c0b30081c3b30010c0b300c4
:104ee0002fff07001e40900059ff07001007980091
:104ef0001200370082c0b30081c3b30010c0b300fa
:104f000027ff07001e4090009aff07001007980037
:104f10000a00370022c0b30081c3b30010c0b30041
:104f20001fff07001e40900092ff07001007980027
:104f3000020037000080eb00100798001e00900070
:104f40000080fa00000006000a00fa00200798001e
:104f500031079800ae0090003e009000808f500016
:104f6000030039000080eb00400798001e00370066
:104f7000be009000f0312000808f5000030036000a
:104f80000080eb0040079800170037002e009000cb
:104f90000000e900200798002e00900020479800ac
:104fa0002e0090004800de00304798003e00900040
:104fb000004f78003e0090004800de001047980047
:104fc0002e41900011c5b30010c0b300f4fe0700dd
:104fd0003e41900001c5b30010c0b300f0fe0700d1
:104fe0000000eb00400798004e0090000080fa009f
:104ff000000006000800fa0020079800310798001a
:105000000000eb000080fa00000006000a00fa0031
:105010002007980031079800ae0090003e009000f5
:10502000808f5000030039000080eb00400798009b
:1050300023003700be009000301f2000808f5000fa
:10504000030036000080eb00400798001c0037008a
:105050002e009000204798002e0090004800de00af
:10506000304798003e009000004f78003e009000ce
:105070004800de00104798003e41900001c6b30092
:1050800010c0b300c6fe07002e41900011c6b30049
:1050900010c0b300c2fe07001e41900021c6b3003d
:1050a00010c0b300befe07001e41780031c6b30039
:1050b00010c0b300bafe07000000eb0040079800e4
:1050c0004e0090000080fa00000006000200fa0086
:1050d000000f780012c0b300a1c5b30020c0b30018
:1050e000affe070012c4b30021c3b30010c0b30069
:1050f000abfe07001e00e00011003a0000c1eb000b
:1051000081c8b30010c0b300a5fe070000c1eb00ca
:1051100091c8b30010c0b300a1fe070082c0b30065
:10512000a1c8b30010c0b3009dfe070000c1eb0092
:10513000b1c8b30010c0b30099fe070010003700db
:1051400002c2b30081c8b30010c0b30094fe0700d0
:1051500002c8b30091c8b30010c0b30090fe0700ae
:1051600082c0b300a1c8b30010c0b3008cfe07001a
:1051700000c1eb00b1c8b30010c0b30088fe070047
:105180000080fa00000006000600fa0010079800f0
:105190002107980001c9b3000040eb008efe070014
:1051a000004f78001e0090000000e0000300320075
:1051b00000c8b3001e4f700002003700f0c7b300f4
:1051c0001e4f60002e0090000000e000030032003f
:1051d00000c4b3001e4f700002003700f0cbb300d4
:1051e0001e4f60001e41780001c9b3000040eb0073
:1051f0006bfe07000080fa00000006000600fa00bf
:10520000100798002107980080c9b300004f78006c
:105210001e0090000000e00001003a001e24a000e3
:105220002e0090000000e0000a003a001e04a000da
:105230000041eb0051c5b30020c0b30058fe070089
:105240000041eb0061c5b30020c0b30054fe07006d
:105250000800370082c0b30051c5b30020c0b300be
:105260004ffe0700c2c0b30061c5b30020c0b30049
:105270004bfe07001e41780041c0b30020c0b300c0
:1052800047fe07000080fa00000006000400fa0054
:10529000004f780011479800224798001e4178007f
:1052a00041cab30020c0b3003dfe07001e4190007c
:1052b00051cab30020c0b30039fe07002e41900050
:1052c00061cab30020c0b30035fe07000080fa00b9
:1052d000000006000400fa00008fbe001e00be00a1
:1052e0004808de000100200000417800c1c2b30080
:1052f00020c0b3002afe07001e00be004008de00ea
:105300000100200000417800d1c2b30020c0b300ea
:1053100023fe07001e00be004809dd004800de0035
:1053200000007100c808de0000417800e1c2b3004f
:1053300020c0b3001afe07001e007800004178006c
:10534000f1c2b30020c0b30015fe07000080fa00d0
:10535000000006000200fa00004f78001505070063
:105360001e41780031c0b300c0cdb3003d05070039
:10537000140507000080fa00000006000400fa008f
:10538000004f780011479800224798001e4078008f
:10539000f0ff0700070507002e4190009e40900097
:1053a000c0cdb3002f050700060507000080fa00f6
:1053b000000006000400fa002047980031479800da
:1053c0002e409000e3ff0700fa040700be40900063
:1053d000c0cdb300ff040700004f7800f9040700b8
:1053e0001e80fb000080fa00000006000400fa00a6
:1053f000204798002e409000d6ff0700ed040700dc
:1054000031c0b300c0cdb300f2040700004f7800f4
:10541000ec0407001e80fb000080fa00000006007c
:105420000200fa000040eb00caff0700e104070099
:10543000b1c5b300c0cdb300e6040700004f78004b
:105440001e40780010479800de040700f1c7b30043
:105450001e40900001406000104798009e40900060
:10546000f0cbb30000c06000104798009e40900051
:1054700070cfb30000c0600010479800cd04070053
:105480001e419000b1c5b300c0cdb300f5040700c4
:10549000cc0407001e80fb000080fa00000006001c
:1054a0000200fa000040eb00004f7800dcff07002c
:1054b000004f780080c2b3009b0107001e80fb00f4
:1054c0000080fa00000006000200fa00004f780099
:1054d0001e417800a1c6b3000040eb00a7ff070003
:1054e0000080fa00000006000200fa00004f780079
:1054f0001e41780071cbb30010c0b3009fff0700be
:105500000080fa00000006000600fa00004f780054
:105510001e80fb002007980000042000ae009000d1
:10552000808f50001600320000082000ae0090006e
:10553000808f50001f00320000022000ae0090005b
:10554000808f5000010032002700370010c0b300e8
:10555000e5ff07001e41780031c9b30010c0b30059
:1055600086ff07001e41780041c9b30010c0b30098
:1055700082ff07000000eb00100798001c003700b6
:1055800030c0b300d8ff07001e41780031c9b30016
:1055900010c0b30079ff07001e41780041c9b30075
:1055a00010c0b30075ff07008000eb0011079800e2
:1055b0000f00370070c0b300cbff07001e4178001a
:1055c00031c9b30010c0b3006cff07001e41780062
:1055d00041c9b30010c0b30068ff07000000eb0032
:1055e00010079800020037008080eb001107980038
:1055f0001e0090000080fa00000006000600fa007d
:10560000004f78001e80fb00200798000004200057
:10561000ae009000808f500016003200000820007d
:10562000ae009000808f50001f003200000220006a
:10563000ae009000808f500001003200270037003c
:105640000040eb00a8ff07001e41780031c9b300fd
:1056500010c0b30049ff07001e41780041c9b300e4
:1056600010c0b30045ff07000000eb0010079800d2
:105670001c00370010c0b3009bff07001e417800dc
:1056800031c9b30010c0b3003cff07001e417800d1
:1056900041c9b30010c0b30038ff07008000eb0021
:1056a000110798000f00370030c0b3008eff0700cd
:1056b0001e41780031c9b30010c0b3002fff0700ae
:1056c0001e41780041c9b30010c0b3002bff070092
:1056d0000000eb0010079800020037008080eb000c
:1056e000110798001e0090000080fa0000000600dc
:1056f0000600fa00004f7800114798001e80fb005a
:10570000200798002e009000e10f50000f0032009b
:105710002e009000e20f5000140032002e00900086
:105720000000e000010032001800370032c4b3006e
:10573000e1c4b30010c0b30010ff07001e4090008a
:1057400071ff0700100798001200370002c3b30072
:10575000e1c4b30010c0b30008ff07001e40900072
:10576000a6ff0700100798000a00370022c0b30008
:10577000e1c4b30010c0b30000ff07001e4090005a
:105780009eff070010079800020037000080eb0022
:10579000100798001e0090000080fa00000006002c
:1057a0000a00fa002007980031079800ae00900028
:1057b0003e009000808f5000030039000080eb0015
:1057c000400798001e003700be0090007030200097
:1057d000808f5000030036000080eb0040079800e7
:1057e000170037002e0090000000e9002007980005
:1057f0002e009000204798002e0090004800de0008
:10580000304798003e009000004f78003e00900026
:105810004800de00104798002e41900091c0b30070
:105820000040eb00d5fe07003e41900081c0b30070
:105830000040eb00d1fe07000000eb00400798009d
:105840004e0090000080fa00000006000800fa00f8
:1058500020079800310798000000eb000080fa0054
:10586000000006000a00fa0020079800310798009f
:10587000ae0090003e009000808f50000300390081
:105880000080eb004007980023003700be00900026
:1058900030202000808f5000030036000080eb0095
:1058a000400798001c0037002e0090002047980009
:1058b0002e0090004800de00304798003e00900027
:1058c000004f78003e0090004800de00104798002e
:1058d0003e41900001c1b3000040eb00a7fe07006d
:1058e0002e41900011c1b3000040eb00a3fe070061
:1058f0001e41900021c1b3000040eb009ffe070055
:105900001e41780031c1b3000040eb009bfe070050
:105910000000eb00400798004e0090000080fa0065
:10592000000006000200fa00000f78001e00e000f0
:1059300008003a0002c8b30041c0b30010c0b30071
:105940008efe070022c0b30061c0b30010c0b300d8
:105950008afe07000080fa00000006000600fa0038
:105960001007980021079800c1c6b3000040eb0063
:1059700090fe0700004f78001e0090000000e0003d
:105980000300320000c8b3001e4f70000200370051
:10599000f0c7b3001e4f60002e0090000000e00032
:1059a0000300320000c4b3001e4f70000200370035
:1059b000f0cbb3001e4f60001e417800c1c6b3009b
:1059c0000040eb006dfe07000080fa0000000600ba
:1059d0000600fa00100798002107980080c9b3005c
:1059e000004f78001e0090000000e00001003a0027
:1059f0001e24a0002e0090000000e0000a003a00e3
:105a00001e04a0000041eb0081c4b30020c0b3001d
:105a10005afe07000041eb0091c4b30020c0b30060
:105a200056fe07000800370082c0b30081c4b300ef
:105a300020c0b30051fe0700c2c0b30091c4b30040
:105a400020c0b3004dfe07001e41780041c0b300e6
:105a500020c0b30049fe07000080fa0000000600e5
:105a60000400fa00004f7800114798002247980080
:105a70001e41780031c2b3000040eb003ffe07003a
:105a80001e41900041c2b3000040eb003bfe070006
:105a90002e41900051c2b3000040eb0037fe0700da
:105aa0000080fa00000006000400fa00008fbe002b
:105ab0001e00be004808de00010020000041780002
:105ac00021c1b30020c0b3002cfe07001e00be00a1
:105ad0004008de00010020000041780031c1b30021
:105ae00020c0b30025fe07001e00be004809dd00ef
:105af0004800de0000007100c808de0000417800a8
:105b000041c1b30020c0b3001cfe07001e00780096
:105b10000041780051c1b30020c0b30017fe070058
:105b20000080fa00000006000200fa00004f780032
:105b30001e417800e1c9b30010c0b3000ffe07009a
:105b40000080fa00000006003400f800881f78008a
:105b500008c0b300a80188004f0478000000fa00d4
:105b600086c0a9001fe1a80021e1a9000080fa0079
:105b70003400f900004006000000fa002000200078
:105b8000000988000000eb00c00888001000200019
:105b9000e008880086c0a9008ec0a80021e1a80006
:105ba0000080fa00000006000000fa00200020003b
:105bb000f0088800b05d8000a0088800b05d80001b
:105bc0000000e800d008880086a0a9001fe1a90015
:105bd0008ea0a8000080fa00000006000200fa0073
:105be000000f78000000eb00e05d88001e007800e8
:105bf000c05d88000000eb00d05d8800eaff070070
:105c0000ddff07000080fa00000006001200fa0025
:105c100030079800410798005207980063079800e2
:105c2000740798000000eb0010079800ce00900069
:105c30005e0090000088b900800078006e0090003f
:105c40000000e8000088b9000000e800800078004b
:105c5000a0142000808f5000030036000080eb006d
:105c6000000f9800350037000000eb002007980077
:105c7000230037000000eb00000f78000900370018
:105c80009e00900000bc20008080400010c0b30047
:105c9000804878001e0090000000e800100798007f
:105ca0001e0fe8005e0090009e0f1000f4ff35000c
:105cb0000000eb00000f7800090037009e00900004
:105cc00000bc2000808040000040eb00804878004d
